:020000040800F2
:1000000030260020CD010008D50100083D1600086B
:10001000D9010008DB010008DD0100080000000034
:10002000939D939B0899969702010000DF010008B9
:10003000E1010008CC6D0008E30100089D160008EE
:10004000E7010008E7010008E7010008E7010008F0
:10005000E7010008E7010008E7010008E7010008E0
:10006000E7010008E7010008E7010008E7010008D0
:10007000E7010008E7010008E7010008E7010008C0
:10008000E7010008E7010008E7010008E7010008B0
:1000900091310008E7010008E7010008E7010008C6
:1000A000E7010008E7010008E7010008E701000890
:1000B000E7010008E7010008E7010008E701000880
:1000C000E7010008E7010008E7010008E701000870
:1000D000E7010008E701000871190008E7010008BE
:1000E000E7010008E7010008E701000800F002F856
:1000F00000F05AF80AA090E8000C82448344AAF168
:100100000107DA4501D100F04FF8AFF2090EBAE865
:100110000F0013F0010F18BFFB1A43F0010318473B
:10012000FC7C00001C7D00000A444FF0000C10F81D
:10013000013B13F0070408BF10F8014B1D1108BF65
:1001400010F8015B641E05D010F8016B641E01F805
:10015000016BF9D113F0080F1EBF10F8014BAD1C55
:100160000C1B09D16D1E58BF01F801CBFAD505E073
:1001700014F8016B01F8016B6D1EF9D59142D6D3CD
:10018000704700000023002400250026103A28BFF5
:1001900078C1FBD8520728BF30C148BF0B607047F9
:1001A0001FB51FBD10B510BD00F02FFA1146FFF7A7
:1001B000F7FF04F0BBFB00F04DFA03B4FFF7F2FFCA
:1001C00003BC00F055FA00008546084709488047FF
:1001D00009480047FEE7FEE7FEE7FEE7FEE7FEE729
:1001E000FEE7FEE7FEE7FEE704480549054A064B41
:1001F0007047000039170008ED000008302000208B
:10020000302600203022002030220020B2F12003CE
:100210000AD5C2F1200320FA02F001FA03F321FA11
:1002200002F140EA0300704721FA03F04FF00001A9
:10023000704740EA010310B59B070FD1042A0DD384
:1002400010C808C9121F9C42F8D020BA19BA8842B7
:1002500001D9012010BD4FF0FF3010BD1AB1D307F6
:1002600003D0521C07E0002010BD10F8013B11F82C
:10027000014B1B1B07D110F8013B11F8014B1B1B55
:1002800001D1921EF1D1184610BD10B5431C02E0F9
:1002900010F8011B71B18107FAD14FF0013202C889
:1002A0008C1A8C4314EAC211F9D0C01A0A0603D082
:1002B000C01E10BDC01A10BD0A0401D0801E10BDA2
:1002C0000902FCD0401E10BD40EA010370B59B0737
:1002D0002ED14FF00136042A2AD308C810C99D1B1D
:1002E0009D43121F15EAC61517D0D8B2E1B2401AC5
:1002F00050EA056110D198B2A1B2401A50EA054106
:100300000AD123F07F4024F07F41401A50EA0521B2
:1003100002D1180EA0EB146070BDA342DBD018BA56
:1003200021BA884201D9012070BD4FF0FF3070BD65
:100330000AB9002070BD10F8013B11F8014B63B100
:10034000A3420AD1521E08D010F8013B11F8014B0C
:100350001BB1A34201D1521EEDD1181B70BD421E2C
:1003600012F8013F002BFBD111F8013B002B02F8E2
:10037000013BF9D17047032A40F2308010F0030CA2
:1003800000F0158011F8013BBCF1020F624498BFE8
:1003900011F801CB00F8013B38BF11F8013BA2F185
:1003A000040298BF00F801CB38BF00F8013B11F000
:1003B000030300F06780083AC0F0088051F8043B5E
:1003C000083A51F804CBA0E80810F5E7121D5CBF0D
:1003D00051F8043B40F8043BAFF30080D20724BF40
:1003E00011F8013B11F801CB48BF11F8012B24BFD4
:1003F00000F8013B00F801CB48BF00F8012B704723
:10040000431A28BF9A427FF6B6AF032A104411441C
:1004100040F2268010F0030F1EBF11F8013D521E5E
:1004200000F8013D10F0030F7FF4F6AF11F0030365
:1004300000F0C180083AC0F00B8051F8043D083A42
:1004400051F804CD40F8043D40F804CDFFF7F3BF68
:10045000121D5CBF51F8043D40F8043DAFF300802D
:10046000D20724BF11F8013D11F801CD48BF11F8A2
:10047000012C24BF00F8013D00F801CD48BF00F871
:10048000012C704710B5203AC0F00B80B1E818502D
:10049000203AA0E81850B1E81850A0E81850BFF46E
:1004A000F5AF5FEA027C24BFB1E81850A0E818500D
:1004B00044BF18C918C0BDE810405FEA827C24BF61
:1004C00051F8043B40F8043B08BF7047D20728BFEF
:1004D00031F8023B48BF11F8012B28BF20F8023B3E
:1004E00048BF00F8012B704702F0FF0343EA0322E4
:1004F00042EA024200F002B84FF000020429C0F0C4
:10050000128010F0030C00F01B80CCF1040CBCF145
:10051000020F18BF00F8012BA8BF20F8022BA1EB97
:100520000C0100F00DB85FEAC17C24BF00F8012B7C
:1005300000F8012B48BF00F8012B70474FF0000274
:1005400000B5134694469646203922BFA0E80C50C9
:10055000A0E80C50B1F12001BFF4F7AF090728BFA4
:10056000A0E80C5048BF0CC05DF804EB890028BF20
:1005700040F8042B08BF704748BF20F8022B11F049
:10058000804F18BF00F8012B7047704770477047C5
:10059000431A28BF9A427FF675AF104410F0030F3C
:1005A00011441EBF11F8013D521E00F8013D10F02C
:1005B000030F7FF4F6AF103AC0F00A8010B531E9AE
:1005C0001850103A20E91850BFF4F9AFBDE81040B8
:1005D000530724BF31E9081020E9081044BF51F83F
:1005E000043D40F8043D12F0030F08BF7047D207E6
:1005F00028BF31F8023D48BF11F8012C28BF20F870
:10060000023D48BF00F8012C7047754600F02CF8F9
:10061000AE4605006946534620F00700854618B0EF
:1006200020B5FFF7E1FDBDE820404FF000064FF098
:1006300000074FF000084FF0000B21F00701AC4617
:10064000ACE8C009ACE8C009ACE8C009ACE8C00936
:100650008D46704710B50446AFF300802046BDE8D4
:100660001040FFF7AABD000000487047D01F0020CF
:1006700001491820ABBEFEE72600020070470000CB
:1006800001078A0E07490A44D2F8001C000602D569
:1006900048F6CF7001E04CF68F700140C2F8001CA4
:1006A00070470000005000400207930E0C4A30B51E
:1006B0001344D3F8002C000648F68F7402EA0400B5
:1006C00048F2800582EA010202D502F0300101E021
:1006D00002F4405108432843C3F8000C30BD000029
:1006E0000050004030B585B00546002400F03CF9CC
:1006F0000120002103900091CDE9011504A968466D
:1007000000F092F800B1012400F0E2F805B02046B4
:1007100030BD000006490020C8610648016941F06B
:1007200004010161016941F040010161704700006D
:100730007019002000200240064A0021D1610649BC
:100740000A6942F002020A614861086940F040000B
:10075000086170477019002000200240044B0022FD
:10076000DA61044A136943F00103136101807047A1
:1007700070190020002002400E49C868C2060E48C9
:1007800003D5C26942F00202C261CA68520703D5AA
:10079000C26942F00102C261CA69D20707D0C269C8
:1007A00042F00402C261C86920F00100C86114204F
:1007B000C8607047002002407019002070B50446E0
:1007C00000F0CEF90546114E09E0601C07D024B1B7
:1007D00000F0C6F9401BA04201D9032070BDF068AB
:1007E000C007F2D1F068800601D52020F060F068E3
:1007F000C00605D4F069C00702D1F068400703D5F0
:10080000FFF7BAFF012070BD002070BD002002403C
:1008100031B500F0A5F9044600F0A2F90099001BDB
:100820008842F9D338BD00002DE9F0470546264837
:100830000F460126017E01290FD001218146017654
:100840002868DFF888804CF25034022808D0A2468D
:100850002046FFF7B3FFA8B131E00220BDE8F087E2
:100860002046FFF7ABFF08BB0120FFF753FF2046F0
:10087000FFF7A4FFD8F81010064621F00401C8F8CD
:1008800010101CE04FF0FF303860AC6811E02046DB
:10089000FFF752FF5046FFF791FFD8F810100600FF
:1008A00021F00201C8F8101001D03C6007E004F507
:1008B0008064D5E9020100EB8120A042E7D8002145
:1008C00089F818103046C9E770190020002002404E
:1008D0000348016941F08001016100207047000078
:1008E000002002402DE9F05F05461D48884600249F
:1008F000017E16461F46012909D001218146017655
:100900004CF2503A5046FFF759FF18B123E002204D
:10091000BDE8F09F012D02D0022D00D00425D34662
:10092000DFF840A015E0220130463946FFF76EFCA3
:1009300081B208EB4400FFF711FF5846FFF73EFF76
:10094000DAF8102022F00102CAF8102018B9641C4D
:10095000E4B2AC42E7D3002289F81820D8E70000BF
:10096000701900200020024005480169090605D5DC
:1009700004494160044941600020704701207047EC
:100980000020024023016745AB89EFCD2DE9F84FE8
:10099000DFF8A091002309F1040A0AF1040B1C46B8
:1009A0004FF00F080BF1040E01270A68A7403A40E8
:1009B000BA4272D1DFF880C14D68A5EB0C066545DF
:1009C0002BD00DDC032D34D005DC35B3012D19D02F
:1009D000022D2FD11BE0112D16D0122D2AD119E096
:1009E000B6F5881F19D006DCB6F5803F15D0B6F5F0
:1009F000801F1FD111E0B6F5001F0ED0B6F5041F01
:100A000018D10AE0CB6815E0CB681B1D12E0CB685B
:100A100008330FE0CB680C330CE08B682BB1012B53
:100A20004FF0080303D0476104E0042302E00761AC
:100A300000E00023FF2A01D8064601E000F1040689
:100A40004FEA840501D9A5F12005376808FA05FCAD
:100A500027EA0C0703FA05F547EA050737604D68F2
:100A6000ED0060D5354DAE6946F00106AE61AD6969
:100A700024F0030605F001050095314D7719BE6895
:100A8000A5072D0F08FA05FC26EA0C06DFF8B4C00E
:100A9000604503D14FF0000C17E044E0DFF8A8C038
:100AA000604502D14FF0010C0FE0DFF8A0C06045B7
:100AB00002D14FF0020C08E0DFF894C0604502D18B
:100AC0004FF0030C01E04FF0040C0CFA05FC4CEA6B
:100AD000060CC7F808C04D68D9F80060ED034D4614
:100AE00001D5164300E096432E604D68DAF80060A9
:100AF000AD03554601D5164300E096432E604D6880
:100B0000DBF80060ED025D4601D5164300E0964338
:100B10002E604D68DEF80060AD02754601D51643C3
:100B200000E096432E60641C102CFFF43DAFBDE83E
:100B3000F88F000000040140000011100010024076
:100B40000000014000080140000C0140001001407D
:100B5000001401400AB1016170470904FBE700007D
:100B6000EFF3108172B607480068406A064B8208AE
:100B70001868121AC2F30D02104481F3108818602D
:100B80007047000030190020C0020020074810B54F
:100B9000016841F010010160032000F05DF80F20B2
:100BA00000F006F800F056F8002010BD00200240CA
:100BB00010B588B005A9684600F020F90398B0F593
:100BC000806F08D0B0F5A06F35D0B0F5C06F34D0CD
:100BD000B0F5E06F33D001201A494FF08042002475
:100BE0000968B1FBF0F04FF47A61B0FBF1F11648FF
:100BF000491E02604FF6FF72C0E90324C0E90114E8
:100C000044611248C16941F00101C161C06900F04D
:100C1000010006900C4800F012FC002809D10C4895
:100C20000460094800F027FC002802D1064800F0C3
:100C30003FFC08B010BD0220CEE70420CCE708201E
:100C4000CAE70000C4020020301900200010024052
:100C5000C002002070470000064A00F0070110683B
:100C60004FF6FF03184040EA012003490843106093
:100C7000704700000CED00E00000FA052DE9F04798
:100C8000DFF8688104460E46D8F8000000F007003F
:100C9000B0420CD2D8F8001021F007013143C8F857
:100CA0000010D8F8000000F00700B04273D120789F
:100CB0004F4F800705D57868A16820F0F000084301
:100CC00078602078C00755D06068012201280CD0D8
:100CD000022828D0022393FAA3F1B1FA81F141F05E
:100CE0002001490904D0396803E04FF40033F2E7EA
:100CF000796A93FAA3F3B3FA83F303F01F039A40DC
:100D0000114248D0796821F0030101437960FFF76F
:100D100027FF0546606841F2883101280CD002287F
:100D2000894615D022E04FF00073D4E7FFF718FF93
:100D3000411B494501D916E089467868C0F3810016
:100D40000128F3D116E0FFF70BFF411B49450AD8F4
:100D50007868C0F381000228F5D10BE0FFF700FFAF
:100D6000411B494502D90320BDE8F087786810F09F
:100D70000C0FF3D1D8F80010404601F00701B14242
:100D80000BD9016821F0070131430160006800F0D0
:100D90000700B04201D00120E6E72078400705D5E2
:100DA0007868E16820F4E060084378602078000704
:100DB00006D57868216920F4605040EAC100786067
:100DC00000F03CF87968F02292FAA2F201F0F0010A
:100DD000B2FA82F2D140074A515CC8400649086025
:100DE0000F20FFF7E5FE0020BEE7000000200240D4
:100DF0000010024080720008C40200200F2202602E
:100E00000C4A536803F003034360536803F0F00394
:100E10008360536803F4E063C36052684FF4E06397
:100E200003EAD20202610448006800F0070008608B
:100E300070470000001002400020024010B519A0C9
:100E400085B00FC88DE80F001AA01B4B00680490F6
:100E500059681A4801F00C02042A1DD0082A1BD137
:100E60004FF4701494FAA4F401F47012B4FA84F4F8
:100E7000E240C9031DF8022010D559684FF4003331
:100E800093FAA3F301F40031B3FA83F3D94004AB2E
:100E9000595CB0FBF1F0504305B010BD0848504319
:100EA000FAE7000002030405060708090A0B0C0D07
:100EB0000E0F1010010200000010024000127A0014
:100EC00000093D002DE9F84F04460078FE4EC007AA
:100ED0004FF001057FD070684FF40038C0F38100F7
:100EE000012807D07068C0F3810002281BD1706808
:100EF000C00318D598FAA8F0B0FA80F040F02000AE
:100F0000400901D0306800E0706A98FAA8F1B1FA9F
:100F100081F101F01F0105FA01F108425BD0606820
:100F2000002879D057E06068B0F5803F0BD010B151
:100F3000B0F5A02F11D0306820F4803030603068D8
:100F400020F4802002E0306840F480303060606837
:100F500018B3FFF705FE074609E0306840F480202B
:100F60003060F0E7FFF7FCFDC01B642870D898FAEA
:100F7000A8F0B0FA80F040F02000400901D03068BD
:100F800000E0706A98FAA8F1B1FA81F101F01F014E
:100F900005FA01F10842E5D01DE0FFF7E1FD074643
:100FA00004E0FFF7DDFDC01B6428DFD898FAA8F045
:100FB000B0FA80F040F02000400901D0306800E035
:100FC000706A98FAA8F1B1FA81F101F01F0105FAEF
:100FD00001F10842E5D12078DFF8F08280074FF078
:100FE000000A4FF002075AD570684FF0F80B10F066
:100FF0000C0F07D07068C0F3810002281CD1706804
:10100000C00319D497FAA7F0B0FA80F040F020009E
:10101000400902D0306801E08AE0706A97FAA7F1CF
:10102000B1FA81F101F01F0105FA01F108422BD05C
:10103000206901287CD127E0206988B395FAA5F0C2
:10104000B0FA80F048F82050FFF78AFD814606E0AC
:101050004DE1FFF785FDA0EB0900022886D897FA3D
:10106000A7F0B0FA80F040F02000400901D03068CD
:1010700000E0706A97FAA7F1B1FA81F101F01F015F
:1010800005FA01F10842E4D030689BFAABF220F097
:10109000F8016069B2FA82F290400143316025E0C4
:1010A000FFE795FAA5F1B1FA81F148F821A0FFF721
:1010B00057FD814605E0FFF753FDA0EB090002282C
:1010C000CCD897FAA7F0B0FA80F040F020004009A1
:1010D00001D0306800E0706A97FAA7F1B1FA81F1A7
:1010E00001F01F0105FA01F10842E4D12078000760
:1010F0006DD5A069B8B395FAA5F0B0FA80F008EB09
:101100008000C0F88054FFF72BFD814605E0FFF713
:1011100027FDA0EB09000228A0D897FAA7F0B0FAA3
:1011200080F040F06000B5EB501F02D130680CE059
:1011300063E197FAA7F0B0FA80F040F06000B7EBF7
:10114000501F01D1306A00E0706A97FAA7F1B1FA36
:1011500081F101F01F0105FA01F21042D7D0012000
:10116000FFF756FB33E0FFE795FAA5F1B1FA81F1FD
:1011700008EB8101C1F880A4FFF7F2FC814605E08D
:10118000FFF7EEFCA0EB0900022899D897FAA7F028
:10119000B0FA80F040F06000B5EB501F01D130682C
:1011A0000BE097FAA7F0B0FA80F040F06000B7EBE0
:1011B000501F01D1306A00E0706A97FAA7F1B1FAC6
:1011C00081F101F01F0105FA01F21042D8D1207817
:1011D000400763D5F06940F08050F061F069DFF8B6
:1011E000F0B000F080500090DBF8001041F4807106
:1011F000CBF80010FFF7B4FC814605E0FFF7B0FC28
:10120000A0EB0900642872D8DBF80000C005F5D512
:10121000E06801280AD008B1052813D0306A20F010
:1012200001003062306A20F0040002E0306A40F0D1
:1012300001003062E06841F2883B80B3FFF790FC28
:1012400081460AE0306A40F004003062EEE7FFF7C2
:1012500087FCA0EB0901594549D897FAA7F0B0FAE5
:1012600080F040F04000B5EB501F01D130680BE03A
:1012700097FAA7F0B0FA80F040F04000B7EB501FAB
:1012800001D1306A00E0706A97FAA7F1B1FA81F1F2
:1012900001F01F0205FA02F10842D8D033E0FFE75F
:1012A000FFF75EFC814605E0FFF75AFCA0EB090161
:1012B00059451CD897FAA7F0B0FA80F040F04000EA
:1012C000B5EB501F08D105E000100240000042427B
:1012D0000070004030680CE097FAA7F0B0FA80F098
:1012E00040F04000B7EB501F02D1306A01E08AE0C5
:1012F000706A97FAA7F1B1FA81F101F01F0205FABD
:1013000002F10842D0D1E06998B37168C1F381015C
:10131000022972D002284FF080714FF0007B5046B6
:101320000AD091FAA1F1B1FA81F148F82100FFF752
:1013300017FC04465F4669E08A4691FAA1F1B1FACA
:1013400081F1C14648F82100FFF70AFCA84607468C
:101350005D4604E0FFF704FCC01B022853D895FA51
:10136000A5F0B0FA80F040F02000400902D03068CB
:1013700001E060E0706A95FAA5F1B1FA81F101F03F
:101380001F0208FA02F10842E4D1206AB0F5803F5A
:1013900005D17068A16820F4003008437060D4E97A
:1013A00008010843716821F47411084370609AFAC7
:1013B000AAF0B0FA80F0474649F82080FFF7D0FB4A
:1013C000044604E0FFF7CCFB001B02281BD895FA6B
:1013D000A5F0B0FA80F040F02000400901D030685C
:1013E00000E0706A95FAA5F1B1FA81F101F01F01F0
:1013F00007FA01F10842E5D01DE01EE0FFF7B0FB5F
:10140000001B022802D90320BDE8F88F97FAA7F045
:10141000B0FA80F040F02000400901D0306800E0D0
:10142000706A97FAA7F1B1FA81F101F01F0105FA8C
:1014300001F10842E2D10020E6E70120E4E710B51F
:101440000446022084F839002068016A41F2111232
:10145000114207D1016A9210114203D1016821F0B3
:1014600001010160204600F021F8002084F83900D5
:1014700084F8380010BD10B5040003D094F839008A
:1014800010B107E0012010BD002084F8380020468C
:1014900000F00DF8022084F83900211D206800F0CA
:1014A00081F9012084F83900002010BD7047704791
:1014B000022180F8391001680A6842F001020A60CE
:1014C000012180F839100020704770B5044690F86B
:1014D00038000D4601280DD0012684F8386002201E
:1014E00084F8390042B1042A18D0082A2AD00C2ADC
:1014F0004DD139E0022070BD206800F091F92068DC
:10150000816941F0080181612068816921F004014D
:101510008161206881692A69114311E0206800F027
:10152000ABF92068816941F40061816120688169BB
:1015300021F480618161206881692A6941EA022180
:10154000816124E0206800F0C5F92068C16941F09C
:101550000801C1612068C16921F00401C1612068EE
:10156000C1692A69114311E0206800F0DFF92068A1
:10157000C16941F40061C1612068C16921F48061E1
:10158000C1612068C1692A6941EA0221C16184F808
:101590003960002084F8380070BD10B50446022080
:1015A00084F839002068016A41F21112114207D112
:1015B000016A9210114203D1016821F0010101601A
:1015C000204600F021F8002084F8390084F8380023
:1015D00010BD10B5040003D094F8390010B107E035
:1015E000012010BD002084F83800204600F00DF8DE
:1015F000022084F83900211D206800F0D3F8012072
:1016000084F83900002010BD7047704710B50446BB
:101610000068012200F0F8F807492068884203D1E9
:10162000416C41F4004141642068016841F00101CE
:101630000160002010BD0000002C014001F00AFEF6
:10164000002070472DE9F04117460D4680460026E0
:10165000FFF78AF9A80706D000206E220DA101F03D
:101660004FFE00240DE00120F7E757F8242008EB97
:10167000840100230220FFF735F908B1012603E0B9
:10168000641CB4EB950FF0D3FFF722F93046BDE8A8
:10169000F08100002866696C6529000010B50B4CCC
:1016A000E16849B1206938B12268B2FBF0F300FB70
:1016B000132008B9002088472068401C2060A068DB
:1016C000002802D0A068401EA06010BDE8020020E3
:1016D000144A10B55068144B10F00C01134803D095
:1016E000042901D0082901D0036012E05168536831
:1016F00001F470114FF0020413F4803F04EB9141A8
:1017000002D053689B0301D5094B00E0064B5943B7
:1017100001605168074AC1F30311515C0268CA4075
:10172000026010BD0010024000127A00C4020020C6
:1017300000093D00807200080D48016841F0010178
:10174000016041680B4A1140416001680A4A11403A
:101750000160016821F480210160416821F4FE01EB
:1017600041604FF41F0181600449C0030860704765
:10177000001002400000FFF8FFFFF6FE08ED00E059
:10178000BFF34F8F05480168054A01F4E06111433A
:101790000160BFF34F8F00BFFDE700000CED00E0DC
:1017A0000400FA05F0B50268144C154D154E4FF0C3
:1017B0008047A04205D0B84203D0A84201D0B04231
:1017C00003D122F070034A681A43A04205D0B84200
:1017D00003D0A84201D0B04203D122F44073CA68BA
:1017E0001A4302608A68C2620A688262A04201D11A
:1017F0000969016301214161F0BD0000002C014035
:10180000000400400008004010B50123046A8B402A
:101810009C430462036A8A401343036210BD0000C4
:1018200030B5026A22F001020262036A42688469EA
:1018300024F073050C682C4323F002058B682B43BE
:101840000C4DA84206D123F00805CB6843EA0503F6
:1018500023F0040307D14D6922F4407245EA0205E2
:101860008A6942EA05024260846149684163036211
:1018700030BD0000002C014030B5026A22F0100299
:101880000262026A436884690D6824F4E64444EA0B
:1018900005248D6822F0200242EA05120C4DA84270
:1018A00006D1CD6822F0800242EA051222F0400201
:1018B00007D14D6923F4406343EA85038D6943EA08
:1018C00085034360846149688163026230BD000022
:1018D000002C014030B5026A22F480720262036A71
:1018E0004268C46923F4007324F073050C682C4328
:1018F0008D6843EA05230C4DA84206D1CD6823F438
:10190000006343EA052323F4806307D14D6922F481
:10191000405242EA05128D6942EA05124260C461F2
:101920004968C163036230BD002C014030B5026AD2
:1019300022F480520262036A4268C4690D6824F48A
:10194000E64444EA05248D6823F4005343EA053352
:10195000064DA84204D14D6922F4804242EA851224
:101960004260C46149680164036230BD002C0140DB
:1019700070B515480468154DA00612D52868C6B282
:10198000134801F01FFD132804D93146104801F017
:1019900063FD06E005D14FF013020EA10C4801F0E3
:1019A00089FD200607D5104801F019FD20B10E4829
:1019B00001F024FD286070BD0448083001680B4A1E
:1019C0001140016070BD000000440040044400402C
:1019D000A01B00203C4441504C696E6B3A4F766529
:1019E00072666C6F773E0A00901900207FFFFFEF50
:1019F00000B50346FEF744FE43F2300118465DF899
:101A000004EBFEF751BE0000F0B58278204D02F0E5
:101A10000F0316066F6881882C8802F00F0207EB0F
:101A2000021204D5491C21F00101146011E09460F8
:101A30003E2909D91F3121F01F014FF0FF3404EB7B
:101A4000411444F4004403E0491C21F001014C021C
:101A5000D4602A880A442A80C07810F0030006D097
:101A6000012807D0022808D003280AD107E04FF444
:101A7000007106E04FF4806103E0002101E04FF4C3
:101A8000C061044A194302EB8300C0F8001CF0BD9A
:101A9000D402002000500040002802D10149B020AB
:101AA00008807047D40200200949CA1450B10120AF
:101AB0000860002008600B1D18604FF4E0500860BB
:101AC000044803E0032008600248001D02607047DC
:101AD000405C0040100C014010B50B4C0B48A28834
:101AE0000078824200D902461AB907490020143909
:101AF00008718020216801F019FB216801442160F0
:101B0000A188081AA08010BD140300209372000859
:101B100010B5064C0020A288216800F0A1FF2168C2
:101B200001442160A188081AA08010BD1403002080
:101B300070470021FEF7B8BD43F22001FEF7B4BDA7
:101B40002DE9F0476E4F0446A7F1080580074FF0D6
:101B50000009A5F1140622D501F0B2FA3878C009BF
:101B6000FFF7E6FFF888A8803878C0F3411121B16B
:101B700001295AD002296FD165E07978DFF8848194
:101B80000C2969D2DFE801F0060C68136818276891
:101B90002B31384601F044F81FE0FFF79DFF67E066
:101BA000002005E001F09CFAD8F8000039E001209F
:101BB00001F074F8C0B3F5E710F01F0F4CD1B878FE
:101BC000012140F08000307000F07F0001F06AFADF
:101BD00001F086FA4CE000F06BFF28B3DDE710F06F
:101BE0001F0F39D146481B3812E001F0A7F8D8B1D1
:101BF00001F076FA444813E000F01F0001282BD1D1
:101C0000707888B13879B178884225D23F49084444
:101C10002860C2E701F056F930B101F061FA3C48A2
:101C2000006828B3804723E016E010F01F0013D0AF
:101C3000012811D100F074F8D0B900F073F8B8B9E8
:101C400000F06CF807E010F01F0F05D100F098F8D5
:101C500070B900F097F858B93878000603D4F888BE
:101C600008B1002000E0802001F026FAA5F80490D9
:101C7000600721D5387800061CD4A888E0B1FFF7AA
:101C800047FFA888C0B93878C0F3411161B1012974
:101C90000AD110F01F0007D0012805D100F03CF850
:101CA00050B900F037F838B9802001F005FAA5F8EE
:101CB000049001E001F01AFA200712D538780006E6
:101CC00006D5A888317908430BD0FFF705FF08E057
:101CD0003078010605D500F07F003070002101F05A
:101CE000E1F9600602D50020FFF782FE200604D548
:101CF000BDE8F0478020FFF77BBEBDE8F08700001D
:101D00001C030020F8720008F0720008D2020020C4
:101D1000F4720008002070470020704700207047D0
:101D20000020704710B51248124A0179127891428A
:101D30001BD142784188C088FE2A09D0FF2A14D1DD
:101D400099B990B900F0DEFD78B101F0C9F90AE067
:101D500059B9012809D100F0FFFA30B10749064806
:101D60000860FFF7B9FE012010BD002010BD000083
:101D70001C030020D1020020781E00201403002044
:101D800000207047002070472DE9F041EFF31080EC
:101D900072B6DFF8D8800022D8F8104080F310889F
:101DA000C8F81020600507D501F022F904F0F4F915
:101DB0002F48006800B18047200505D501F0A0F943
:101DC0002C48006800B18047E00405D501F0A4F973
:101DD0002948006800B18047A00503D5274800685E
:101DE00000B18047264D600403D5296809B102205F
:101DF0008847244FA00427D5296829B3012022E071
:101E0000EFF3108372B62048072250F82100491CD6
:101E1000B1FBF2F602FB161183F3108886B2050CB3
:101E2000C8F80810280604D557F8261009B108206C
:101E30008847280408D557F8261029B1280501D568
:101E4000022000E00420884720040DD5EFF3108223
:101E500072B6D8E90210814201D1012000E00020D1
:101E600082F310880028CBD0BDE8F081D402002096
:101E70009C720008A0720008A4720008A8720008F2
:101E8000AC720008B0720008F81E0020064810B5B9
:101E9000C16941F40001C161142001F0CDF9034989
:101EA0004FF40060086010BD00100240140C0140A7
:101EB00070B500F0F5F800281CD00F4802220F4D35
:101EC000027042700E4C03202A632870A06802281A
:101ED00003D9A4F11F008260A2600A480649007875
:101EE00040F0800001F022F9A068296B401AA06040
:101EF0000120207370BD0000B81E002024030020C4
:101F0000C11F002094720008114910B508780228FA
:101F100008D0032810D0042812D0052801D10020B1
:101F2000087010BD0B48C07B282801D0A828F8D124
:101F3000BDE8104000F054BABDE8104000F018BDF4
:101F40000548007840F0800000F02AFDF4E700002A
:101F500024030020A21F0020947200081F4A10B51D
:101F60001178B1B301290ED01D48052900781BD086
:101F7000072929D000F014FD1A4902200873BDE892
:101F8000104000F0F5BC17481F38C07B2A2803D04A
:101F90002F2805D0AA2820D1BDE8104000F0F4BABF
:101FA000BDE8104000F086BA012181400E4800686B
:101FB000014201D0012000E00020BDE8104040F2C5
:101FC0003F420AA101F09CB900201070106B1F283D
:101FD00003D1BDE8104000F0C7B810BD24030020B5
:101FE00095720008C11F00200C0300202866696C50
:101FF00065290000104910B54868C86008B1012083
:1020000010BD0E4800F11F0482687AB1007B000603
:1020100004D50B48007840F0800005E0A068096B0B
:10202000884203D00748007800F0BAFC01202073F2
:1020300000F09EFC002010BD24030020A21F002001
:1020400094720008957200081048007900F08F0122
:10205000080605D501F00F004FF48032824001E000
:1020600001228A400A48007840F0800088420CD162
:1020700008490968114208D00749084A096891428D
:1020800003D10D22044901F051B870471C03002010
:10209000947200080C030020C11F002055534253C6
:1020A00070B50A48022400F11F05816831B1007B38
:1020B000000608D40648007800F072FC2C7300F08B
:1020C00057FC002070BD012070BD0000A21F002041
:1020D0009572000810B50E480E4C8068216B88423E
:1020E00002D82063032000E0042020700A480B4936
:1020F000226B007840F0800001F018F80448226B51
:102100001F308168891A81600021017310BD0000B1
:10211000A21F00202403002094720008B81E002093
:10212000064810B5028807480549007800F098FC79
:1021300005490863BDE81040FFF710BF9A72000818
:10214000B81E0020957200082403002010B5044634
:10215000400702D50020FFF7E3FF200703D5BDE8C5
:102160001040FFF7D1BE10BD2DE9F047734E326B22
:102170001F2A01D2134600E01F230020704D714931
:1021800002E00C5C2C54401C9842FAD3DFF8BC915E
:102190000127DFF8B4A199F800001F2A40F0800061
:1021A0007ED129686A4A91427AD1654C69681F34A8
:1021B0006160A968A160697B19B9A97B09B110297F
:1021C00001D927738AE0E97B4FF002082A293ED023
:1021D00022DC1A294FD00FDC0429F2D006DCE9B347
:1021E0000329EED1BDE8F04700F04ABB1229E8D13F
:1021F000BDE8F04700F0B8B8232944D007DC1B291C
:1022000035D01E29DDD1BDE8F04700F0DBB8252927
:102210003DD02829D5D148E09E2940D00FDC552952
:10222000CFD004DC2F2954D03529CAD103E05A2954
:1022300025D09129C5D1BDE8F04700F0E1BBA12927
:1022400029D0A3295DD0A8292FD0AA29B9D100F07F
:1022500067FA002805D0287B000600E003E04BD495
:102260003770BDE8F087BDE8F04700F0D1BBBDE8AE
:10227000F04700F0ABBBBDE8F04700F029BABDE87D
:10228000F04700F0F9B9BDE8F04700F0C3BABDE887
:10229000F04700F097BABDE8F047FFF709BE00E04D
:1022A00032E0BDE8F04700F03DBB00F039FA00280D
:1022B000D7D0287B000605D586F80080BDE8F0471A
:1022C00000F08EB89AF8000000F06AFB84F80C80E9
:1022D00004E0287C800705D400202073BDE8F04787
:1022E00000F046BB00F01CFA0028BAD0287B00069C
:1022F00002D437703762B4E799F8000040F08000EC
:10230000E2E700F04DFB5CE74C4600F049FB20782B
:10231000104C00F00F014FF4803088402168554682
:10232000084320609AF8000000F03AFB28788740C4
:102330002068074306202760307092E724030020BE
:10234000A21F0020B81E0020957200089472000899
:102350005553424310030020024900200870012019
:1023600070470000781E002010B5FFF799FE002886
:1023700020D0114B002080211870597002219970D3
:10238000D97020241C7158719871D8710B4801685C
:1023900008200A7812B11A54491C00E01C54401C51
:1023A000C0B22428F5D3064924200863BDE81040B4
:1023B000FFF790BE10BD0000B81E0020CC02002028
:1023C000240300200548C07CC107044800F11F0019
:1023D00000D00121017300F0CBBA0000A21F002041
:1023E0002DE9F0412E4D2F4F0026A969686ADFF8CC
:1023F000B88088420AD33878002440F0800000F08A
:10240000CFFA88F80C6000F0B3FA08E028492748B2
:10241000097830F81140E86A844200D30446FFF797
:10242000E9FD00B90024A86A48B374B1A96AE86953
:1024300022460144387840F0800000F077FEA86A18
:102440002044A862E86A001BE862D5E90410AA6A81
:102450004143914203D1AE62696A08446862D8F888
:1024600008104046091BC8F80810002C05D0E96A7E
:10247000002902D1032129700673BDE8F081002CE8
:10248000E3D0E96A28690144491EB1FBF0F26869AA
:10249000824200D90246E969686A03F035FEC5E761
:1024A0002403002094720008C11F002096720008C7
:1024B000030300202DE9F0412F4C00252F4EA16988
:1024C000606A884207D32E482563007800F068FAD6
:1024D000357300F04DFAFFF78DFD20B1206B08B386
:1024E000A06A10B10FE0256320E0E16A2069014491
:1024F000491EB1FBF0F26069824200D90246E169EF
:10250000606A03F001FE00201E49A36A226B0BE003
:10251000D4F81CC01F181CF8077011F800C06745DC
:1025200001D0256202E0401C9042F1D3A16A206BE9
:102530000A18A262E16A0B1AE362D4E904714F43FC
:10254000974203D1A562626A11446162B168091AB7
:10255000B16000280DD013B12078052809D1206A78
:1025600028B100203073BDE8F04100F001BA01202D
:10257000F8E7BDE8F081000024030020C11F00201F
:1025800095720008B81E00202DE9F041344D002658
:10259000344FA969686A884207D333482E630078AC
:1025A00000F0FEF93E7300F0E3F9FFF723FD00B9F8
:1025B0002E63296BA86A08442969884206D9BDE8B8
:1025C000F041FE2229A1002000F09ABE00202949F6
:1025D00005E0AB6AEC690A5C0344401CE2542A6BD8
:1025E0009042F6D3A86A11000844A862EA6AA2EBF6
:1025F0000102EA6222D092B988B129690844401EDA
:10260000B0FBF1F46869844200D904462246E969C6
:10261000686A03F093FDAE62686A20440DE0D5E974
:10262000041202FB01F3834208D1E969686A03F0EE
:1026300085FDAE626969686A08446862B968286B9A
:10264000091AB960002809D0E86A10B1287805286D
:1026500004D13E73BDE8F04100F08AB9BDE8F081D5
:1026600024030020C11F0020957200082866696CB1
:1026700065290000B81E002010B5FFF711FD0028E5
:102680001FD0FFF7B7FC00281BD00E480021062200
:1026900001700D4B427081701A7AD201C2700171C3
:1026A00041718171C1710949082018638A68082A3B
:1026B00003D9A1F11F0290608860BDE81040FFF7C8
:1026C00009BD10BDB81E002024030020C11F00203A
:1026D00010B5FFF7E5FC00281BD0FFF78BFC0028A6
:1026E00017D00C480321002201700B4942700B7A6D
:1026F000DB018370C2700420086308498A68042AD9
:1027000003D9A1F11F0290608860BDE81040FFF777
:10271000E1BC10BDB81E002024030020C11F002012
:1027200070B5244C244DD4F8110000BA20F0FF01FC
:10273000207D01430020C5E90910E07B2F280AD045
:1027400004DC28280BD02A2817D104E0A8280DD0B3
:10275000AA2812D106E0FFF74DFC002827D0E08A16
:1027600041BA0AE0FFF746FC002820D0D4F8150053
:1027700000BA20F0FF01207E014328690D4E41433D
:10278000E962A06801251F3668B1884210D0207B1D
:10279000000604D50948007840F0800001E00848B0
:1027A000007800F0FDF8357300F0E2F8002070BD0D
:1027B000012070BDA21F0020240300209472000895
:1027C0009572000810B5FFF76BFC00281CD0FFF7CE
:1027D00011FC002818D00D4A0D489169491E0B0EB6
:1027E00003700B0C43700B0A8370C17011690B0EE0
:1027F00003710B0C43710B0A8371C17108201063C4
:10280000BDE81040FFF766BC10BD000024030020A7
:10281000B81E002010B5FFF743FC002829D0FFF7B1
:10282000E9FB002825D013480021134A01704170AC
:1028300081700821C17091690B0E03710B0C4371FB
:102840000B0A8371C1710221017211690B0C437271
:102850000B0A8372C17209490C2010638A680C2A22
:1028600003D9A1F11F0290608860BDE81040FFF716
:1028700031BC10BDB81E002024030020C11F002061
:1028800010B5FFF70DFC002835D01B4870211B4BFD
:10289000017000214170DC685A6832EA040406D0F5
:1028A00006248470282404734173DA6008E0DAB1E6
:1028B000134A127BE2B10522827020220273417317
:1028C000C1700171417181710A22C271017241723C
:1028D0008172C1728173C1730174417412201863D3
:1028E000BDE81040FFF7F6BB022282703A22E5E70E
:1028F00081700173E3E710BDB81E0020240300209F
:10290000C11F0020044900200860044908600449F0
:10291000072008700120704710030020C11F00200D
:102920002403002010B5FFF7BBFB002817D00C488C
:1029300020220021027041700A4CC17703202263DB
:10294000207009480649007840F0800000F0EEFB56
:102950000648226B8168891A81600121017310BDCC
:10296000B81E00202403002094720008C11F00201C
:10297000084910B50648086007480D22007840F065
:10298000800000F0D3FB05490520087010BD000051
:1029900055534253C11F00209472000824030020A5
:1029A00010B5044600F088FB200605D504F00F01A1
:1029B0004FF48030884001E00120A04002490A68BD
:1029C0001043086010BD00000C0300200A4810B539
:1029D000817C00F11F0429B101202073BDE8104063
:1029E000FFF7C6BFC07C054900F00100486003F056
:1029F000A3FB0020F1E70000A21F00202403002019
:102A0000024900200873FFF7B3BF0000C11F002078
:102A10000F4810B5816800F11F0469B1007B000602
:102A200004D50C48007840F0800001E00A480078A6
:102A3000FFF7B6FF012004E0FFF7DCFA002805D01D
:102A400000202073BDE81040FFF792BF10BD0000CA
:102A5000A21F0020947200089572000870470000C1
:102A600070B5104C00F00F030F4D646804EB0313B6
:102A70009C689B8905EB4404C3F30905954200D982
:102A8000154600236A1C04E034F8046B21F8026B3D
:102A90005B1CB3EB520FF7D34FF44051FDF704FE2C
:102AA000284670BDD402002000600040FFF7CCBA79
:102AB0002DE9FC414E4BA3F11C051878A3F1080445
:102AC00010F01F0002D001286DD179E04949D87873
:102AD000494E0A784649494F1C390628C97810D012
:102AE00006DC012809D0022814D003287ED141E059
:102AF00007282AD00F2879D156E0414820601220BB
:102B00005CE0002A72D019B13E4820600A2055E0EE
:102B10003D48FAE70AB9012968D0022021B100979F
:102B2000787000209A7809E000967070F9E70099B3
:102B30000B7813B14B8819440091401C8242F6D1A6
:102B40000098017879B3206037E062B3072021B1A3
:102B50000096707000209A7809E000977870F9E785
:102B600000990B7813B14B8819440091401C8242A4
:102B7000F6D1E5E7254800909878032801D0002099
:102B800008E001F0E3FD0BE000990A780AB1114476
:102B90000091401C99788142F6D10098017811B1DA
:102BA000206000780AE021E01948007800281BD056
:102BB0001848009020600178C1B14088019005E07C
:102BC00001A9684600F02AF800280DD0A1880198D4
:102BD000814208D9104980B2A0800978491E084274
:102BE00001D1012028710120BDE8FC810020FBE714
:102BF0001C03002091720008B01D0020D0020020AC
:102C0000FC7200080F7300080E73000812730008AE
:102C10009272000810730008937200080020704739
:102C200070B51C481B4C0078A4F1080410F01F007C
:102C30000AD0184AA4F11403174D597812790128C3
:102C400006D0022824D109E01248163820601DE081
:102C5000F1B1987882421BD2002015E002F08F007B
:102C6000020605D500F00F064FF48032B24001E0B5
:102C70000122824009B900070AD19868104207D0A2
:102C8000D868104000D0012028802560012070BD48
:102C9000002070BD1C030020781E002070B5264B5C
:102CA000024619461878498810F01F00A3F11C0647
:102CB00004D0012829D0022827D111E0012924D1EC
:102CC00032B1012000F030FAF08840F0020005E057
:102CD000002000F029FAF08820F00200F08029E0BE
:102CE000187900F08F04200605D504F00F004FF48A
:102CF0008035854001E00125A540707828B1200786
:102D000003D0B068284200D009B1002070BD2AB1BC
:102D1000204600F0D1F9F06828430AE030692842E3
:102D200008D12046FEF764FE2046FFF7BFFEF0689C
:102D3000A843F060012070BD1C0300202DE9F05F66
:102D40005A480026017811F01F0F7DD1574F807827
:102D50001C3FB1464FF0010A4FF4803B00287AD067
:102D6000534801783846C07809B901286CD008B1B9
:102D7000504C6CE0504C6AE06078022805D0042882
:102D800045D0052845D007285CD14848617980782E
:102D900081423AD1787020794949B8700020474A79
:102DA000098802E002F80090401C8842FAD301250D
:102DB000B8460AFA05F0D8F80810084202D02846AA
:102DC000FEF7B7FED8F808100BFA05F0084203D05A
:102DD00045F08000FEF7ADFE6D1C102DE9D34FF0DD
:102DE0000110C8E902090120C8F81090FEF754FE4E
:102DF000E0794006B8F8060002D540F0010001E095
:102E000020F00100A8F806001CE060881BE0E678CE
:102E100018E0BEB9A07800F08F05280604D505F0AB
:102E20000F010BFA01F001E00AFA05F0B96801435D
:102E30002046B960FEF7E8FD2846FEF77DFE2846ED
:102E400000F02EF9207801E02BE004E00444207823
:102E5000002891D120E04D4687F8019001245E467C
:102E6000B9680AFA04F0084202D02046FEF761FE73
:102E7000B96806FA04F0084203D044F08000FEF777
:102E800058FE641C102CEBD34FF00110C7E902056B
:102E900000203D61FEF700FE044879788078884282
:102EA00002D00020BDE8F09F0120FBE71C030020BA
:102EB00091720008D0020020B01D0020D202002034
:102EC000C80200202DE9F84F444800273E4600780C
:102ED000BA4600F01F00B94601287CD13F491C3991
:102EE0004878002874D0002000903D4802780846B9
:102EF000C0780AB901286ED08B4608B1394C63E01E
:102F0000394C61E06078022805D004280AD00528F1
:102F10001AD0072856D161799BF80100814251D01F
:102F2000608850E02D48A778E67801794FF00009D5
:102F3000B94247D18078B04244D1012000902B485B
:102F400010F807A0C6553DE024490879B84239D1A8
:102F5000A07800F08F085FEA086005D508F00F0040
:102F60004FF48035854002E0012505FA08F58878A0
:102F7000B04215D1DBF8081020462943CBF80810E1
:102F8000DBF80C10A943CBF80C10FEF73DFD4046D2
:102F9000FEF7D2FD404600F083F849EA050911E04A
:102FA00056450FD119EA050F0CD1DBF80810404641
:102FB000A943CBF80810DBF80C10A943CBF80C1090
:102FC000FEF7B7FD20780444207800289AD10098B5
:102FD000BDE8F88FFFE70020FAE700001C0300209F
:102FE00091720008D0020020B01D0020D202002003
:102FF0004FF0E0214FF480100023C1F88001BFF3AF
:103000004F8FBFF36F8F1E4803601E48006818B1D2
:103010004FF40050410001E00020014608431A49E6
:103020000968002901D04FF4007140EA010002D084
:103030004FF4807101E04FF0000140EA01001349B4
:1030400040F41C400860134811494FF030020360FF
:10305000486802604FF0700282604FF0B0020A8050
:1030600048F2FF71C1600C494FF4485008600B49A9
:103070004FF0800008604FF0140000F0DDB8000051
:10308000445C0040AC720008A8720008405C00403C
:10309000D4020020505C0040005C00404C5C0040CA
:1030A000FDF7EEBA002903D1024940F08000086024
:1030B000704700004C5C004041F21001FDF7F4BA8B
:1030C000082202490020FFF7CBBC00001C030020AF
:1030D00002484FF40071806801F017BDF80100202C
:1030E00000221146802000F021B800000248034968
:1030F00002780020FFF7B4BC93720008781E00200D
:103100000448016841F008010160016841F00401D0
:1031100001607047405C00400248016821F00801EE
:1031200001607047405C004070470000F0B5154FEB
:10313000154606467A6800F00F0002EB0012124BAB
:10314000126803EB420400236A1C04E031F802CB4E
:1031500044F804CB5B1CB3EB520FF7D3796801EB57
:1031600000114D60094901EB8000D0F8000CC0F35C
:103170000110012803D030213046FDF795FA28468A
:10318000F0BD0000D402002000600040005000406C
:103190002DE9F047244A1068244F20F01F013B69B5
:1031A0001943396100F4FE41C9431160DFF8809092
:1031B000000448F2800632D59046D8F80000010499
:1031C0002DD510F00F0009EB8005D5F8004C07D184
:1031D000210405D5210503D479688989890515D08D
:1031E00064F31F4002F072FA200406D544EA060098
:1031F00040F68F710840C5F8000C2006DDD5344339
:1032000048F60F700440C5F8004CD6E72106EDD50E
:10321000C4F30E0161F31F4002F058FAE6E7BDE87F
:10322000F047FFF755BF0000445C0040D402002087
:103230000050004000207047002809DB00F01F020A
:10324000012191404009800000F1E020C0F8001108
:1032500070470000EFF3088400F00F010D2901D141
:10326000EFF30984A18B04F12005890500D52D1DFC
:10327000C10600D4483500F08DF9EFF3098000F065
:1032800089F9EFF3088000F085F9EFF3148000F07E
:1032900081F9284600F07EF9606900F07BF9A069A9
:1032A00000F078F9E06900F075F91248006800F064
:1032B00071F91048001F006800F06CF90D48001DFE
:1032C000006800F067F90B481030006800F062F900
:1032D00008480830006800F05DF906480C300068C6
:1032E00000F058F9432204A1002000F009F8FEF78D
:1032F00047FAFEE72CED00E02866696C65290000BE
:103300002DE9F04116460F46002818D1EFF310853D
:1033100072B600231A461946184600F05BF90400FD
:1033200003D13146384600F0B9F985F31088002CF6
:1033300005D1EFF30380C00601D103F0D7F9BDE852
:10334000F0817047002070477047000010B52822B8
:103350000D490E48FDF796F803F08CFA0C4803F07F
:1033600083FA03F0F1F80B490B4A0C4B08604FF459
:103370000071B0FBF1F01160094901221A60086088
:1033800009490848086010BD3C6F0008C80F0020BC
:10339000713B00085803002034030020380300204C
:1033A0003C030020C80D0020400300200448417861
:1033B0008078814201D001207047002070470000D2
:1033C0009002002030B50546EFF3108472B600F08D
:1033D00006F8A968081A84F31088401E30BDEFF380
:1033E000108372B6D0E900128A4201D3501A02E06B
:1033F00080681044401A83F31088704770B5044603
:10340000EFF3108572B6D4E90001884201D00120A3
:1034100000E0002042220EA1FFF772FFE168206861
:103420000E5C401C2060A16888420CD302D14FF092
:10343000010001E04FF000004FF0470204A1FFF748
:103440005FFF0020206085F31088304670BD0000CB
:103450002866696C6529000070B50446EFF3108595
:1034600072B6C068626881546068401C6060A16880
:1034700088420CD302D14FF0010001E04FF0000070
:103480004FF0300209A1FFF73BFF00206060D4E954
:103490000001884201D0012000E00020352203A174
:1034A000FFF72EFF85F3108870BD00002866696C59
:1034B000652900002DE9F04114460E460746FFF746
:1034C00081FF844200D220460546002404E0315D9D
:1034D0003846FFF7C1FF641CAC42F8D32846BDE86C
:1034E000F08100F029BC00F027BC002070470120CB
:1034F0007047002070470020704700002DE9F04120
:103500008E212148FCF7F8FF204C214F8E252068A2
:103510001D4EB84210D1A5888E2D01D22A4601E059
:103520004FF08E0201D84FF08E0518491648FCF76F
:1035300022FF002086F847008E211448FCF7DCFFAC
:103540002760A58041223546F11DE01DFCF713FFE1
:1035500035F8480F24F8480FA878A070E878E07094
:103560008200094909484C314C30FCF704FF95F8BA
:10357000440084F8440095F8450084F84500BDE80F
:10358000F04100F0C7B80000141F0020004F0020D9
:10359000646C766B074A92F84B10102901D3002017
:1035A000704702EB8101C86412F84B0F401CC0B297
:1035B00010707047004F002010B5054C4121E01DF0
:1035C000FCF79AFF002024F8480FE07010BD0000BF
:1035D000004F00202DE9F047184F81461D46164642
:1035E0008846F81DFCF751FE441CB9F1000002D0DA
:1035F0004146FCF781FF002006B1308005B12870FC
:10360000F879002818D0444502D8F91D224604E074
:10361000A4EB0800C1194246C91DB9F1000F02D040
:10362000B7F84800308016B14846FCF7A4FE15B143
:1036300097F84A0028700120BDE8F087004F00206D
:10364000014890F88C007047004F0020054A92F81E
:103650004B1029B102F14C01016092F84B00704708
:1036600000207047004F002002488079002800D0D9
:1036700001207047004F002002488079002800D0C8
:1036800001207047141F0020034890F88D00002887
:1036900000D0012070470000004F00202DE9F041CC
:1036A00088460746FCF7F1FD104D441C4126314683
:1036B000E81DFCF721FF412C02D83946224602E0E2
:1036C000413CE11932462C46E81DFCF754FEA4F8B3
:1036D000488000F0A1F808B1012003E000F09EF856
:1036E00000B1022084F84A00BDE8F081004F0020BC
:1036F000014981F88C007047004F00200149887112
:1037000070470000004F0020014981F88D0070478C
:10371000004F0020704770477047704770470000A7
:103720002DE9F0410F4606464FF0FF340025DFF843
:103730003C8012E0705D082101F048FE84EA0064DC
:1037400008204146002C02DA81EA440400E06400CB
:10375000401E10F0FF00F5D16D1CBD42EADB2021B8
:10376000204601F033FEC043BDE8F081B71DC1041F
:103770002DE9F0410E4617462021C04301F026FEF8
:1037800004460025DFF83C8012E0705D082101F05E
:103790001DFE84EA006408204146002C02DA81EA1A
:1037A000440400E06400401E10F0FF00F5D16D1CE1
:1037B000BD42EADB2021204601F008FEC043BDE8FF
:1037C000F0810000B71DC10470B514460D460646D1
:1037D000B2F5806F07D240F2DD120AA10020FFF798
:1037E0008FFD022070BD00F08FFC08B1102070BD6D
:1037F0002A462146304600F0A3FD0028F7D02020BD
:1038000070BD00002866696C65290000C10600F0E3
:103810000F0000D409307047012070470020704726
:1038200010B500231A4600F0A9FA002800D00120A4
:1038300010BD10B502F0BCFD012800D0002010BD65
:103840002DE9F041164E144C144D3078012806D065
:1038500040F2371213A10020FFF752FD09E0B078C3
:10386000022748B140F23D120EA10020FFF748FDAB
:1038700037700220BDE8F081204600F017F810B143
:1038800037702220F6E704F58064AC42F4D30120BF
:10389000B0700020EEE7000000C0000800FC010846
:1038A000640200202866696C652900002DE9F0415A
:1038B0002A4E04463078012805D0FF2228A1002096
:1038C000FFF71EFD19E04FF480684046B4FBF0F1AD
:1038D00008FB1141022511B140F2071208E0F1780E
:1038E00071B1D6E902121144A14209D04FF4877296
:1038F0001BA10020FFF704FD35700220BDE8F08118
:103900001949B4F1006F01D38C4223D30121F17026
:10391000164FC6E902481648BC4201D3844201D37F
:1039200023200CE0FFF77AFF01004FF0260006D0BD
:1039300039468C4203D142463846FFF745FF2628D8
:1039400003D00028DAD03570D8E7204600F0DCFB41
:103950000028D3D035702120D0E700006402002079
:103960002866696C6529000000BC000800C00008DA
:1039700000FC01084FF480607047000010B5282853
:1039800004D2064951F82000002805D1F72204A1ED
:103990000020FFF7B5FC04A010BD00005C6E00081D
:1039A0002866696C652900000000000001460120BE
:1039B000282901D20148405C70470000B001002076
:1039C0002DE9F04789460546804600E06D1C2878C1
:1039D000402802D00028F9D169E0687862284BD0ED
:1039E00014DC4D2841D008DC422845D044284CD076
:1039F000482844D04C281BD156E052284BD054289C
:103A000040D0552834D0562812D141E0722842D0F7
:103A100008DC642839D0682831D06C2844D06D285F
:103A200006D122E074282DD0752821D076282FD0F9
:103A300021A42846FCF729FC07462046FCF725FC74
:103A40000646A819C11908EB0902891E91422DD218
:103A5000BA1EA91CFCF7D4FC324621462846FCF7C6
:103A60008AFC28780028B2D121E000F063FE01E052
:103A700000F068FE0446DCE700F002FEFAE700F022
:103A80002FFEF7E700F05AFEF4E700F025FEF1E71D
:103A900000F060FEEEE70A4890F82A0010B1084CEA
:103AA0002A34C6E707A4C4E715A4C2E73D44A5EB42
:103AB0000800BDE8F08700004552524F5200000058
:103AC000CC6D000868747470733A2F2F6D62656452
:103AD0002E6F72672F6465766963652F3F636F642D
:103AE000653D40553F76657273696F6E3D40563F48
:103AF0007461726765745F69643D40540000000042
:103B000068747470733A2F2F77696B692E6C7561C6
:103B1000746F732E636F6D2F742F6461706C696E98
:103B20006B0000002DE9F043A3B0884681461E4695
:103B30001746802102A82A9DFCF700FD002002AC58
:103B400003E02154401C7F2802D2295C0029F8D1CF
:103B500080212046FFF734FFCDE9004033463A4646
:103B60004146484602F05AFB23B0BDE8F083704757
:103B70002DE9F0411E4615460C46074602F028FF87
:103B80002C4890F8201003290FD0022C0FD004B33A
:103B9000012C0AD10168A94207D190F82210A9B3DB
:103BA00000214A1E016082608161BDE8F0810068E9
:103BB000A842FAD1304602F0ADFC0446304602F08D
:103BC000ABFC0646384601F013FE0346224631465A
:103BD00017E0384601F00CFE0328E6D0304602F02C
:103BE00097FC8007E1D4384601F002FE07463046D4
:103BF00002F090FC0446304602F08EFC01463B4643
:103C000022462846BDE8F04101F09CBF28220A491F
:103C10000848FCF737FC01F07FFE0848817801294D
:103C200003D14178022900D18170BDE8F04101F053
:103C30007BBE0000C80F00203C6F000890020020EF
:103C40002DE9F0411D4E0446174696F8220088469D
:103C5000550260B92946404601F09CFD032802D078
:103C6000214601F033FF96F8220000280FD070683B
:103C7000A0420CD8F068A0420BD008D93069401C93
:103C800000D134613069A04200D204463461BDE8FD
:103C9000F081F0692A461044F061E019F06096F86E
:103CA000230020B1BDE8F041002001F085BF41466E
:103CB0002046BDE8F04101F0BDBE0000C80F002065
:103CC000F0B518A185B0096804910278002104AB11
:103CD0005C5C944224D0491C0329F9D312A1002230
:103CE00091E878006F46815C8DE87800A1F1610C65
:103CF000BCF1190F14D9202901D2052910D14FF098
:103D0000000C17F80CE08E450AD00CF1010CBCF148
:103D1000100FF6D3521C0B2AE5D3012005B0F0BDDD
:103D20000020FBE7E5002000222A2B2C2E2F3A3B17
:103D30003C3D3E3F5B5C5D7C70B50D4D00202C78BA
:103D400074B100212970A97809B100F0C5FA022CDC
:103D500005D06978032902D0002800D1252070BD44
:103D600040F26B1203A10020FFF7CAFA022070BDD7
:103D7000340200202866696C6529000070B51C4675
:103D80000546302901D3012000E00020472212A17E
:103D9000FFF7B6FA286A696A114E0CB9002232712F
:103DA000104A91420AD11049884201D1022070BDC7
:103DB0000D49FC3988420CD1012070BD284602F023
:103DC000A7FA18B11CB90120307100E00CB1032032
:103DD00070BD002070BD00002866696C6529000078
:103DE00034020020089996978F9E939B2DE9F05FEF
:103DF0004FF00004DDF828B05FEA030A90468946D8
:103E00000746254611D05FEA0B000ED00020CAF805
:103E100000000646CBF80000FFF7FEFC80B1294801
:103E2000022F06D0032F04D032E0712243E0064671
:103E300018E0B8F1000FFAD08145F8D01B2428E033
:103E4000FFF7ECFC20B3012F02D0032F0CD01FE0B2
:103E50004FF00061B8F1000F03D0894501D01A245A
:103E600017E00E4618480FE01848006980B10C3082
:103E700003E08168012909D0143001680029F8D1D4
:103E800041680029F5D11248056802E00668FAE7A2
:103E90001C24FFF72CFB08B9012F03D024B12046C6
:103EA000BDE8F09F1C24FAE725B1CAF80060CBF802
:103EB0000050F4E7B82207A10020FFF721FA022002
:103EC000EEE7000000C00008386F0008CC6D000865
:103ED000106F00082866696C6529000030B5154C24
:103EE00000236178012904D0022904D003291FD1BD
:103EF00003E0114B17E0114B15E02179C1B11049D6
:103F00000969A9B10C3107E0844204D84C688442A5
:103F100001D34B6806E014310C68002CF4D14D68D5
:103F2000002DF1D123B11044984201D3012030BDBE
:103F3000002030BD3402002000BC000800FC010855
:103F4000CC6D000810B50C4C207830B1DA220BA1F2
:103F50000020FFF7D5F9022010BDFF2230210948CB
:103F6000FCF7C2FA0120207000206070A060E060C1
:103F70002061A070E07010BD340200202866696CDA
:103F800065290000700500202DE9F04116460F4616
:103F900005460024FFF742FC50B1032D08D1064826
:103FA000006928B131463846FFF7CCF900B11D242D
:103FB0002046BDE8F0810000CC6D00082DE9FE4FE1
:103FC00006464D48894615460178012907D0EF225B
:103FD0004AA10020FFF794F90220BDE8FE8FC178C6
:103FE0004FF0010A19B9C660066180F803A0804647
:103FF00080780327002869D1D8F8101042468E42F5
:1040000001D1012000E000202944C8F8101048B375
:104010009068C0F13004AC4200D92C46394A494678
:1040200010442246FCF7A7F9D8F808002D1B2044BD
:10403000A1442644C8F80800302839D3444602D1A8
:104040004FF0010001E04FF0000040F211122BA1EF
:10405000FFF756F9D4E9021201232A48FFF78EFE32
:10406000607001E088F8017001A8009002AB0122A5
:10407000444698F80100D8F80C10FFF7B7FE08BBCB
:10408000FFF737FA28B11F496078A268FFF77CFF75
:10409000C0B9A0784FF49A7280F0010017A1FFF721
:1040A0002FF9019800F0D0F860B984F802A002E07E
:1040B00098F8020098B144461249D4E9022000F071
:1040C0003DF808B1277088E7A07840B12A464946F4
:1040D000304600F033F810B188F800707DE72A46CA
:1040E00049463046FFF7FAFE0028ECD0022188F856
:1040F0000010132071E70000340200202866696C6C
:10410000652900007005002010B5EFF3108472B629
:10411000FCF7E8FA84F3108810BD01444FF4003234
:10412000A0F10060491E904205D2A1F100619142C8
:1041300001D2012070470020704700002DE9F047B0
:104140003D4E05460024707817468846012807D062
:104150007B223AA10020FFF7D3F80220BDE8F087C8
:10416000F0784FF0020A50B9284601F037FA0400FF
:1041700002D086F801A05CE00120F0707561B068A3
:10418000B5FBF0F100FB11516A1A7169B1FBF0F354
:1041900000FB1310081A824204D0284600F0DAF817
:1041A0000400E6D13069B5FBF0F100FB11516A1A49
:1041B0007169B1FBF0F300FB1310081A824204D0BE
:1041C000284601F00BFA0400D3D1B1464E46D6E999
:1041D00001010844A84207D8284600F0BBF80400B3
:1041E00002D089F801A024E00FB3D6E90301084406
:1041F000A84204D8284601F0F1F90400F1D1706812
:10420000B168B146281A0E1AB74200D23E460D498F
:10421000324608444146FCF7AEF836B1002089F832
:1042200002003544B044BF1BD0E70120F7E7C9F8CE
:104230001450204692E70000480200202866696C6E
:1042400065290000A005002070B51F4D0446687860
:1042500008B1472226E024B3606810B3A06800B319
:10426000E068F0B12069E0B16069D0B1A069C0B187
:10427000E069B0B1FF224FF480611448FCF734F9D3
:104280000126AE700020E8706860A860E8602861D0
:10429000C5E9050420688047040008D1287838B1B2
:1042A00010E04D220AA10020FFF72AF8022070BD7D
:1042B000A86900698047040004D0A8694068804765
:1042C000204670BD6E70FBE748020020A00500206C
:1042D0002866696C6529000070B5154C002560786A
:1042E00010B1012807D00AE0CC2212A10020FFF76C
:1042F00007F8022070BD002000F02CF80546A069E8
:10430000406880470646FF224FF480610B48FCF767
:10431000EBF80120A0700021E1706160A160E16014
:104320002161616161700EB1304670BD284670BD7B
:10433000480200202866696C65290000A00500205D
:1043400010B5EFF3108472B6FDF77CF984F3108892
:1043500010BD000070B50E4E05460024B07840B97F
:10436000B0690C498368D6E90102984704460120E8
:10437000B070FF220748B168FCF7B6F8B068B5FB2B
:10438000F0F100FB1150281A7060204670BD00004B
:1043900048020020A00500200748006948B10648EF
:1043A0000069D0F89C0120B103480069D0F89C0155
:1043B00070470148001DFBE7CC6D00080748006905
:1043C00048B106480069B0F8A00120B1034800696F
:1043D000B0F8A001704701484088FBE7CC6D0008A9
:1043E000002203461146104618470020704700007F
:1043F0000248006840F30000401C7047080C014070
:10440000F0B5584885B0816941F004018161816946
:1044100001F004010491816941F008018161816921
:1044200001F008010491816941F010018161816905
:1044300001F010010491816941F0200181618169DD
:1044400001F020010491816941F0010181618169DC
:1044500001F00101049144494A6822F0E06242F00F
:1044600000724A60816941F00401816180693F49BD
:1044700000F0040004904FF40060086001243B4FFA
:10448000CDE900040325143F694603953846FCF73F
:104490007DFA0122960231463846FCF75BFBCDE9F6
:1044A0000064694638460395FCF770FA012204213E
:1044B0003846FCF74FFB0420CDE90004694603951C
:1044C0003846FCF763FA012231463846FCF742FBD6
:1044D000CDE90064694638460395FCF757FA012296
:1044E00031463846FCF736FBCDE90064694638466C
:1044F0000395FCF74BFA012211463846FCF72AFBDC
:104500001120CDE90040694638460294FCF73EFA96
:1045100016494FF0A53020310860081F016841F0AE
:1045200001010160E603002231463846FCF712FB28
:10453000CDE90064694638460395FCF727FA200266
:10454000009002200190039569460948FCF71EFA85
:1045500000F0F6FA07480490401E0490FCD105B024
:10456000F0BD00000010024000000140140C0140AA
:104570000008014040420F0028B100224FF4806142
:104580000248FCF7E7BA0122F8E70000000C0140FE
:1045900028B100224FF480610248FCF7DBBA012207
:1045A000F8E70000000C014028B100224FF48061C0
:1045B0000248FCF7CFBA0122F8E70000000C0140E6
:1045C0002DE9F04385B081460D481D4616468846C4
:1045D000DDE90C410DC802AF87E80D00B81C01F001
:1045E000F6FD0020CDE900478DF812002B4632463B
:1045F0004146484601F048F905B0BDE8F0830000A7
:1046000004700008092800D927303030C0B2704744
:1046100070B5174C00204BF6FC356060A0604FF081
:104620000066E06029463046FFF777FD20B1294655
:104630003046FFF775F860600E4D0F4E2946304644
:10464000FFF76BFD20B129463046FFF769F8A060FF
:104650000A4E4FF4806529463046FFF75EFD00287C
:1046600004D029463046FFF75BF8E06070BD0000DB
:10467000D8010020FC3B010000C0000800FC01083C
:1046800000487047E801002010B50C210948FFF7E9
:1046900044FD00280AD04FF00060074A016A9142A9
:1046A00003D1406A0549884201D0002010BD012095
:1046B00010BD000020000008939D939B08999697D9
:1046C0000148406870470000D80100200148806818
:1046D00070470000D801002000487047FC0300200C
:1046E00000487047BA03002010B50C210948FFF7B5
:1046F00014FD00280AD00748074A2038016A914271
:1047000003D1406A0549884201D0002010BD012034
:1047100010BD000020C000088F9E939B08999697BB
:1047200010B5FFF7E1FF002801D00148806A10BDF5
:1047300000C0000800487047AD03002000487047E3
:10474000DB030020004870477C03002000487047CE
:104750000504002000487047F201002070B5FFF703
:1047600057FF204800F0C8FD00F0C0FE1D48312171
:104770002030FBF7E3FE1B481B492030FBF7EFFD21
:1047800019491848491D2030FBF7E9FD15495E31EC
:10479000A1F13E00FBF7E3FD1249A031A1F1800039
:1047A000FBF7DDFD0F4800242030FBF76EFD0D4ABE
:1047B000C1B20220A93200EB4100107003205070FA
:1047C00002200023A2F1890508E02E5D1654401C4A
:1047D000C0B21354401C641CC0B2E4B28C42F4D387
:1047E00070BD00005C030020E801002010B5124CF1
:1047F000207830B1622211A10020FEF781FD022055
:1048000010BD002211461046FCF71AFF08B11E2009
:1048100010BD00206070A070E070A060E0602071AA
:1048200020616061A0614FF480610648FBF764FE7F
:1048300001202070002010BD640200202866696CF1
:1048400065290000A00900202DE9F047DFF8C89095
:1048500004462F4F99F800002E4D90468A460128B5
:1048600008D040F279122DA10020FEF749FD022068
:10487000BDE8F087BC4201D3AC4201D32320F7E767
:10488000FEF7CCFF98B32E1B301F4146404501D99F
:104890000A4600E0321F5146D9F81800FEF768FFBB
:1048A0002049C9F818008C4208D21F49E01B08446F
:1048B00042465146FBF75FFD0020D9E704EB0801B3
:1048C000A94222D10AEB06014D4611F8012C51F8FC
:1048D000041C62F31F61884201D02720C8E75246BA
:1048E00041462046FFF72CFD10B12020C0E70CE028
:1048F0004FF480620C493846FEF766FF0446FFF726
:1049000087FE012068702046B2E72620B0E700004D
:1049100000C0000800FC0108640200202866696CE1
:104920006529000000C40008A009002000F084FDF3
:10493000FFF766FDFEF7E2FDFEF703FD00F05EFD0A
:1049400088B90E4C206970B1C06801F0E1FC50B12B
:10495000FEF792FE38B92069094AC1681160C06843
:1049600003C8FBF731FC00F0C0F8002211460548EF
:1049700000F0D6F800F0BEF8FEE70000CC6D0008AD
:1049800008ED00E099490008024901220A704870C8
:1049900070470000F80100200125FEF76DFE10B100
:1049A000642000F09DF800F0B9F8434FB860002093
:1049B000FFF7EEFD0020FFF7DFFD2846FFF7F4FDCF
:1049C000FFF7CCFE01F07CFB012001F0A9FE0020E6
:1049D00001F074FB4FF0000887F803800120C7F84E
:1049E0000C80B87001460B2443464246334800F021
:1049F0009CF8032100F09EF84FF0FF3940F2032AA3
:104A00004A460021504600F087F886B2B00501D52D
:104A1000FDF7BAF9F0072FD05A2001F099FEF87887
:104A2000012806D1F86810B1401EF86001D187F85E
:104A30000380B878F0B101280ED0032814D00428E0
:104A40001AD1F878C0B90CB1641E15D1002001F05C
:104A500035FB87F802800FE00CB1641E0CD10120F9
:104A600001F02CFB032003E001F020FB20B1022029
:104A7000B87001E0FCF784FEB007C1D53878002893
:104A8000BED07878012808D0022806D0012587F802
:104A900000802846FFF788FDB2E7012D01D00125EF
:104AA00000E00025002DF4D00128F2D187F8008025
:104AB00087F80180EDE70000F8010020015A0008A6
:104AC000FFF740BA10B5044640F20111FBF714FDA0
:104AD00000F09EFC00202070BDE81040FFF732BAC5
:104AE00010B500F075FF002010BD10B500F040FFBC
:104AF000002010BD10B500F061FF002010BD0020A7
:104B00007047002070470020704710B50C460846DB
:104B100000F010FF204610BD00F016BF01207047C6
:104B200010B500F045FF012010BD10B500F03AFFB0
:104B3000012010BD10B5084600F014FF002010BD84
:104B400070B58EB00CA907A8FCF758F90B98B0F512
:104B5000005F05D0B0F5205F23D0B0F5405F22D0D4
:104B600001202549274D00240968B1FBF0F02349B5
:104B7000B0FBF1F62248C5E90004761EC5E90364DE
:104B80002148AC606C61816941F400618161806998
:104B900000F400600D902846FCF7FFFC28B152227B
:104BA00023E00220DDE70420DBE71648FCF711FDD7
:104BB00008B1582219E07020CDE900040294039452
:104BC00004940594002269460E480694FCF77DFC87
:104BD00008B1652209E02968700848630021094886
:104BE000FCF714FD002804D06C2208A10020FEF779
:104BF00087FB0EB070BD0000C402002000127A00D6
:104C0000002C0140F4180020001002402866696C56
:104C1000652900002DE9FF5F8B46044600EB0B0879
:104C2000109D8C484FF0000AC5F800A000791F467F
:104C300028B120783A2871D1864981F804A0854EA0
:104C4000DFF81492F078002818D086F803A099F8BD
:104C5000002009F104011846FBF78DFB99F80000CC
:104C60002968074408442860F068010CB9F801007D
:104C70000904014399F800000844F060CFE020786F
:104C80000A2829D00D28FCD03A281BD031780029D9
:104C90007CD0FEF7BBFD00F00F02707819F80030F1
:104CA0001A4309F80020401CC2B2727099F8000043
:104CB0008646401D82423AD3674A0021084613784F
:104CC0005B1D10E025216448FBF716FC86F800A068
:104CD00086F801A086F802A0A0E012F800C0401CEF
:104CE0006144C9B2C0B28342F7D809B104269AE040
:104CF000B07800281BD10120B070B9F801004946F6
:104D000042BAA9F8012099F8030004285ED006DC15
:104D100070B101283ED002287CD13DE082E00A2813
:104D200002D00D2876D103E0888840BAF08071E087
:104D3000F08838B1494B1B88984203D0484B1B88F8
:104D4000984224D1F068030C1B041343834204D01F
:104D50000120F0700226641C65E0894686F803A0F5
:104D60007246091D3846FBF706FB99F800002968D2
:104D7000074408442860F068B9F801106FF30F0089
:104D8000084399F800100844F06043E039E001203E
:104D9000307147E0012646E029680E98FF22411A4B
:104DA0003846FBF7A1FB2868F168091A0F980160E3
:104DB0000298A8EB0401ABEB0101016099F8041023
:104DC00099F80500090341EA001015E029680E98DA
:104DD000FF22411A3846FBF787FB2868F168091A59
:104DE0000F9801600298A8EB0401ABEB0101016090
:104DF000B9F8040040BA0004F060022004B0BDE835
:104E0000F09F7178252923D2FEF700FD727800010A
:104E100009F802003078D8B100203070641C444595
:104E20007FF42DAF002629680E98FF22411A3846DC
:104E3000FBF75AFB07482968C068411A0F980160C0
:104E40000298A8EB0401ABEB010101603046D5E705
:104E50000120E2E780020020A00D00208A0200204D
:104E6000880200202DE9F05FDFF800810446DFF8BA
:104E7000F89098F8000015468B46012805D0A2222C
:104E80003BA10020FEF73CFA3FE04FF48060B4FB0A
:104E9000F0F300FB1343014602260BB1AB222EE0D8
:104EA0000A46954204D3B5FBF0F302FB135008B158
:104EB000B22224E0B4FBF1F002FB10402844884207
:104EC00001D9B9221BE098F8020078B998F80300DC
:104ED00050B1D8F80800844204D3D8F80C10084424
:104EE000A04203D8C7220AE0C12208E098F80400D3
:104EF00070B1D8E904010844A04209D0CF221CA116
:104F00000020FEF7FDF988F800600220BDE8F09F60
:104F100019486719844202D2B7F1006F17D84FF0D1
:104F2000010A88F804A02A4659462046C8E90445E3
:104F3000FFF78AFC262804D00028E7D088F8006014
:104F4000E4E75A4629462046FFF7FAF918B188F8EF
:104F500000602020DAE74F4503D3FFF759FB88F8BC
:104F600001A00020D2E7000000FC0108640200203C
:104F70002866696C6529000000BC00084FF4806059
:104F80007047000070B514460E46054620444FF4A5
:104F90008061B1EB402F07D240F263220AA10020CA
:104FA000FEF7AEF9002070BD4FF400713046FBF7FC
:104FB000A3FA35B906480749006942013046FBF7B4
:104FC000DAF9600270BD00002866696C652900008E
:104FD000A8020020F414002010B50B464FF4007412
:104FE00008B1002010BD224602491846FBF7C3F95C
:104FF000204610BD341200202DE9F04F8A464102B0
:1050000087B000234FEA422B1D460693029130B130
:10501000BAF1000F03D0002007B0BDE8F08F344C88
:105020002078012841D0022841D0002631A00090EC
:1050300059465046029A01F015F90746304931A009
:10504000CDE900013B4659465046029A00F01CFC4F
:10505000074461882DA0CDE900013B4659465046E2
:10506000029A00F045FEC4194EB12AA0CDE900060F
:10507000234659465046029A00F006FC044406A80E
:10508000FEF7E4FA060030D0069870B323A0009033
:10509000234659465046029A01F0E4F8044403AF0F
:1050A0004FF00A084FF4007919E01FA6BEE721A6C9
:1050B000BCE723A003AB07C883E80700069850F8B5
:1050C00025106D1CEDB203A801F081F8CDE9007840
:1050D000234659465046029A01F0A0F80444B542CE
:1050E00003D204F10A004845E3D3204694E70000C8
:1050F000A00200204173736572740D0A0000000065
:10510000F00F002046696C65000000004C696E6578
:1051100000000000536F7572636500004865786495
:10512000756D70730D0A0000426F6F746C6F61646F
:10513000657200004170706C69636174696F6E0024
:1051400000000000000000000D0A000030B413460B
:105150000C464202204630BC590200F005BE000059
:105160002DE9FE4F044640028A464FEA422B0026B4
:10517000029001F0CDFA0546FEF700FC07462846EE
:10518000FEF714FC05462CB1BAF1000F02D0002046
:10519000BDE8FE8F20A0CDE90007334659465046B2
:1051A000029A00F071FB04461DA000902346594668
:1051B0005046029A01F056F80026044401274FF0A9
:1051C0000208DFF8649019E04FB918A1CDE9001882
:1051D000234659465046029A01F020F80444E80755
:1051E0000AD059F826000090234659465046029AA4
:1051F00001F038F8044400276D08761C0DB1052E27
:10520000E2D30BA1CDE90018234659465046029A35
:1052100001F004F82044BBE76572726F7200000071
:10522000747970653A200000F06F00082C200000AF
:105230000D0A0000F8B5460255020F46002310B1D2
:105240000FB10020F8BD0D4800903246294638467F
:1052500001F008F804460AA0009023463246294689
:105260003846FEF75FFC044406A000902346324611
:105270002946384600F0F6FF2044F8BD487C000877
:105280004052000022293B0D0A3C2F736372697063
:10529000743E0D0A3C2F626F64793E0D0A3C2F6804
:1052A000746D6C3E0D0A00002DE9F041094C064674
:1052B0000D462046FAF7E9FF074645B116B1002032
:1052C000BDE8F081024621462846FBF754F83846EF
:1052D000F6E70000847B000810B50B464FF400741D
:1052E00008B1002010BD224602491846FBF743F8DA
:1052F000204610BD3410002006490B68091D0A68BD
:10530000091D09680360C0E901214FF0A531C160A2
:1053100070470000E8F7FF1F10B508465402214609
:10532000FBF7EAF8204610BD70B5244D4FF0FF346E
:105330006878A978884201D0012000E0002040F27E
:10534000F9121FA1FDF7DCFF6878022803D0C0B175
:1053500001281AD022E01C484FF4FA7490F820007B
:10536000E0B101280AD0022818D0032816D040F254
:105370000B2213A10020FDF7C3FF0FE044F62064C9
:105380000CE0A878022808D008E0A878022801D00C
:1053900018B103E040F6C41400E00024601C05D1FD
:1053A00040F21B2206A1FDF7ABFF0024A868A04233
:1053B00001D9012070BD002070BD000090020020C6
:1053C0002866696C65290000C80F002070B5202987
:1053D00003D000231A4601260CE090FAA0F070BD1D
:1053E000C40704D08D1A6D1E06FA05F42343400845
:1053F000521CD2B28A42F3D3184670BD10B5FEF7E4
:10540000F7FF18B9FEF7F1FF002800D0012010BD0A
:1054100010B525210648FBF76FF806480021C1604A
:10542000017041708170C170C180017110BD0000B8
:10543000A00D00208002002030B58FB014210AA8F2
:10544000FBF77CF828216846FBF778F8FCF740F971
:10545000FBF79CFB01250024CDE90A5429460AA844
:10546000FBF70CFC20B1402216A10020FDF748FFFD
:105470004FF48030CDE9005002250294CDE9075069
:105480004FF4E01009906846FBF71CFD20B14C2258
:105490000CA10020FDF734FF0F20CDE90A054FF4E1
:1054A0008060CDE90C4002210AA80E94FBF7E6FBD0
:1054B000002804D0572203A10020FDF721FF0FB0E0
:1054C00030BD00002866696C652900007CB5DDE907
:1054D00006540CB103A400E003A4CDE9005400F08D
:1054E000D3F97CBD31000000300000002DE9F04709
:1054F00000242546FEF762FFDFF8D8900646A04656
:105500004F4621213448C9F81080FAF7F5FF324898
:1055100021212130FAF7F0FF2F4809214230FBF713
:105520000DF887F814802C4FA7F15E0A78195AF805
:10553000241000F04CFE641C2844E4B2C5B2042CD4
:10554000F4D307F805800025234F2C462137A7F117
:105550006F0A78195AF8241000F039FE641C2844A8
:10556000E4B2C5B2042CF4D307F805801A4F4446C0
:10557000423738464D46D9F8001000F028FEC0B238
:105580003C54FEF709FF006828611248103004718E
:10559000300BFFF737F80F4D15352870C6F3032091
:1055A000FFF730F86870C6F30310FFF72BF8A87008
:1055B00006F00F00FFF726F8E870681D2C71302107
:1055C000017032214170352181703821C170047120
:1055D000BDE8F087D8010020BA0300202DE9F04192
:1055E000364E0746B0694169384688470546B06976
:1055F000816938468847044635B12CB14FF480683C
:1056000045450AD8012009E040F235122CA10020BE
:10561000FDF776FE0220BDE8F08100204FF49D7278
:1056200027A1FDF76DFEB8FBF5F105FB118048B130
:10563000002040F23B1222A1FDF762FEAC4203D3F0
:10564000012002E00120F4E700204FF49E721CA12B
:10565000FDF756FEB4FBF5F005FB1040C0B100208D
:1056600040F23D1216A1FDF74BFEB7FBF4F004FB30
:105670001070381AC6E903047060444500D34446EC
:10568000B460B169096A29B1884704000AD101E010
:105690000120E5E7307850B1B069C168F06888470B
:1056A000040004D0B069406880472046B3E7FF2279
:1056B0000548B168FAF718FF0020ACE7480200205F
:1056C0002866696C65290000A005002010B5EFF37D
:1056D000108272B6074C084BD96844F821000720A5
:1056E000491CB1FBF0F400FB141082F31088D86061
:1056F00010BD0000F81E0020D402002010B5094C97
:10570000207840B100F05EF86068C16806488847BC
:105710000021217010BDC02204A10020FDF7F0FD82
:10572000022010BD080200206C0400202866696C6D
:105730006529000070B5134C0546207808B1852214
:1057400002E0022D06D38B220FA10020FDF7D8FD29
:10575000022070BDFFF7E2F9A0604FF482710C489F
:10576000FAF7ECFE0120207006480C3000EB051023
:1057700060604168064888470028EAD0032121700C
:1057800070BD0000080200202866696C65290000D1
:105790006C0400202DE9F041094D0E460746002417
:1057A00005EB0410314602683846904710B1204698
:1057B000BDE8F081641CE4B2022CF1D30320F7E7CA
:1057C0001402002010B5FFF7A9F90649896888423C
:1057D00001D1012000E00020BDE81040622202A1BA
:1057E000FDF78EBD080200202866696C652900005F
:1057F00010B500F1080103220C4607A0FAF764FD7A
:10580000002806D00322214604A0FAF75DFD08B166
:10581000032010BD012010BD42494E0048455800EC
:1058200070B5154D06460C462878012806D0A422EE
:1058300012A10020FDF764FD022070BDFFF7C2FF3A
:1058400068682246314683680E4898470446132804
:1058500006D0142C06D02CB103202870204670BD31
:105860000220FAE72878012800D00020B22203A104
:10587000FDF746FDF2E70000080200202866696C8B
:10588000652900006C0400202DE9FC478246DDE913
:105890000A0700901C4690468946504600F0E2FCFC
:1058A000054602260EA0CDE9000663194246494688
:1058B000504600F0B3FC0544631942464946504641
:1058C000009700F0CFFC054406A0CDE9000663195F
:1058D00042464946504600F0A1FC2844BDE8FC87FA
:1058E0003A2000000D0A000010B5FFF717F907492C
:1058F0004968884201D1012000E00020BDE8104045
:1059000040F2691202A1FDF7FBBC000090020020EA
:105910002866696C6529000002480021C068FFF70D
:10592000EEB80000900200200148C068FFF7EBB815
:105930009002002072B603494A6802434A6062B688
:1059400070470000E8020020054903464A681342F8
:10595000FCD0486872B64A6882434A6062B67047B3
:10596000E80200200149086170470000E8020020B9
:1059700009490020086048608860C8600861486183
:105980004FF0E021054A4A61054BF02283F8142DBF
:105990008861072008617047E80200207EFC0A0049
:1059A0000FE000E00149C86070470000E8020020F5
:1059B0000149486170470000E8020020034841693E
:1059C000002901D00020084770470000E8020020AD
:1059D0000249886088680028FCD17047E8020020EE
:1059E00002480078012800D000207047640200209F
:1059F000884203D3904201D80120704700207047AD
:105A000010B50B4C0221A068FFF77FF860680321F6
:105A1000B0FBF1F201FB1201401C6060002905D1CE
:105A2000A068BDE810400121FFF76FB810BD00006D
:105A3000F80100202DE9F041224D16460C4695F85C
:105A4000230038B1BDE8F0414FF430721E49002008
:105A5000FDF756BCF00522D000204FF431721A49F0
:105A6000FDF74EFC95F8210040F2C5221649FDF7DE
:105A700047FC31462046FFF7D3FE012704464FF08E
:105A8000000813280DD0142C17D085F824806869DD
:105A9000304468612046BDE8F04100F08DB8012037
:105AA000DBE7FFF72BFE85F8218085F8237004469D
:105AB00085F82470FDF748FCE9E7002485F8247098
:105AC000E5E70000C80F00201059000870B51B4D15
:105AD00006460C4695F8210088B1002040F2852248
