:040000050800C0ED42
:020000040800F2
:10C00000D087002025C3000853C3000827ED00088F
:10C0100057C3000859C300085BC3000886BAFAAFCB
:10C020008F9E939B089996970201000039C20008E1
:10C030005FC3000828930108C1C2000811C30008AB
:10C0400065C3000865C3000865C3000865C3000830
:10C0500065C3000865C3000865C3000865C3000820
:10C0600065C3000865C3000865C3000865C3000810
:10C0700065C3000865C3000865C3000865C3000800
:10C0800065C3000865C3000865C3000865C30008F0
:10C090008529010865C3000865C3000865C3000859
:10C0A00065C3000865C3000865C3000865C30008D0
:10C0B00065C3000865C3000865C3000865C30008C0
:10C0C00065C3000865C3000865C3000865C30008B0
:10C0D00065C3000865C300088104010865C3000842
:10C0E00065C3000865C3000865C3000800F002F8D6
:10C0F00000F05AF80AA090E8000C82448344AAF1A8
:10C100000107DA4501D100F04FF8AFF2090EBAE8A5
:10C110000F0013F0010F18BFFB1A43F0010318477B
:10C12000A0E80000C0E800000A444FF0000C10F83E
:10C13000013B13F0070408BF10F8014B1D1108BFA5
:10C1400010F8015B641E05D010F8016B641E01F845
:10C15000016BF9D113F0080F1EBF10F8014BAD1C95
:10C160000C1B09D16D1E58BF01F801CBFAD505E0B3
:10C1700014F8016B01F8016B6D1EF9D59142D6D30D
:10C18000704700000023002400250026103A28BF35
:10C1900078C1FBD8520728BF30C148BF0B60704739
:10C1A0001FB51FBD10B510BD00F001FB114603B453
:10C1B00006F0F6FC03BCFFF7F3FF08F009FB00F004
:10C1C0001BFB03B4FFF7EEFF03BC00F01FFB0000F6
:10C1D00080F309887047EFF309807047684680F361
:10C1E000098804480078C00714BF0220032080F3A8
:10C1F00014887047E89B0108DFF818C0EFF3058347
:10C200001B0618BF6047EFF31483DB0708BF6047C6
:10C2100000DF704729580108DFF818C0EFF30583E5
:10C220001B0618BF6047EFF31483DB0708BF6047A6
:10C2300000DF7047355A0108EFF30980816911F872
:10C24000021C39BB90E80F10E047EFF3098C194B43
:10C2500093E80600914218D059B10CB44FF0010395
:10C2600081F821302CE9F00FC1F824C009F07AFEE2
:10C270000CBC1A60D2F824C0BCE8F00F92F8213050
:10C280008CF309881BB192F82000CCF800006FF005
:10C29000020E704710B5084A1268914209D8074C3F
:10C2A00054F8214090E80F10A047EFF3098C8CE878
:10C2B0000F0010BDC40400201CC800081CC80008E2
:10C2C00009F03AFD114B93E8060091421BD00CB4E3
:10C2D0004FF0000381F82130EFF3098C2CE9F00FC7
:10C2E000C1F824C009F03EFE0CBC1A60D2F824C08C
:10C2F000BCE8F00F8CF3098892F821301BB192F85A
:10C300002030CCF800306FF0020E7047C4040020DB
:10C3100009F0ECFED6E7000008F0D2FC09F0E6FEDA
:10C32000D0E7000013484FF001010160124A134B9F
:10C330001360134B1360134B1360134B9361134C37
:10C340004FF0A53525604FF0000111488047114896
:10C350000047FEE7FEE7FEE7FEE7FEE7FEE7FEE753
:10C36000FEE7FEE7FEE700000B480C490C4A0D4BC8
:10C3700070470000F0100240006C0140863AD9A7D7
:10C38000CDDF12AB2635EDCDFF8301208C2202409C
:10C3900069010108EDC00008D0810020D08700208D
:10C3A000D0830020D0830020004870477081002097
:10C3B000B2F120030AD5C2F1200320FA02F001FAFB
:10C3C00003F321FA02F140EA0300704721FA03F077
:10C3D0004FF00001704740EA010310B59B070FD1F1
:10C3E000042A0DD310C808C9121F9C42F8D020BAE5
:10C3F00019BA884201D9012010BD4FF0FF3010BD9D
:10C400001AB1D30703D0521C07E0002010BD10F86A
:10C41000013B11F8014B1B1B07D110F8013B11F830
:10C42000014B1B1B01D1921EF1D1184610BD10B556
:10C43000431C02E010F8011B71B18107FAD14FF0E3
:10C44000013202C88C1A8C4314EAC211F9D0C01A06
:10C450000A0603D0C01E10BDC01A10BD0A0401D0C8
:10C46000801E10BD0902FCD0401E10BD40EA010331
:10C4700070B59B072ED14FF00136042A2AD308C885
:10C4800010C99D1B9D43121F15EAC61517D0D8B2BF
:10C49000E1B2401A50EA056110D198B2A1B2401A37
:10C4A00050EA05410AD123F07F4024F07F41401A31
:10C4B00050EA052102D1180EA0EB146070BDA34212
:10C4C000DBD018BA21BA884201D9012070BD4FF0E3
:10C4D000FF3070BD0AB9002070BD10F8013B11F8A3
:10C4E000014B63B1A3420AD1521E08D010F8013BA0
:10C4F00011F8014B1BB1A34201D1521EEDD1181B03
:10C5000070BD421E12F8013F002BFBD111F8013B18
:10C51000002B02F8013BF9D17047032A40F230802A
:10C5200010F0030C00F0158011F8013BBCF1020F74
:10C53000624498BF11F801CB00F8013B38BF11F8F5
:10C54000013BA2F1040298BF00F801CB38BF00F80C
:10C55000013B11F0030300F06780083AC0F0088047
:10C5600051F8043B083A51F804CBA0E80810F5E76D
:10C57000121D5CBF51F8043B40F8043BAFF3008050
:10C58000D20724BF11F8013B11F801CB48BF11F8C5
:10C59000012B24BF00F8013B00F801CB48BF00F895
:10C5A000012B7047431A28BF9A427FF6B6AF032A81
:10C5B0001044114440F2268010F0030F1EBF11F802
:10C5C000013D521E00F8013D10F0030F7FF4F6AF5D
:10C5D00011F0030300F0C180083AC0F00B8051F85D
:10C5E000043D083A51F804CD40F8043D40F804CD2C
:10C5F000FFF7F3BF121D5CBF51F8043D40F8043D46
:10C60000AFF30080D20724BF11F8013D11F801CD2E
:10C6100048BF11F8012C24BF00F8013D00F801CDFE
:10C6200048BF00F8012C704710B5203AC0F00B80CD
:10C63000B1E81850203AA0E81850B1E81850A0E826
:10C640001850BFF4F5AF5FEA027C24BFB1E8185080
:10C65000A0E8185044BF18C918C0BDE810405FEAF0
:10C66000827C24BF51F8043B40F8043B08BF70476C
:10C67000D20728BF31F8023B48BF11F8012B28BF71
:10C6800020F8023B48BF00F8012B704702F0FF037F
:10C6900043EA032242EA024200F002B84FF00002ED
:10C6A0000429C0F0128010F0030C00F01B80CCF1C4
:10C6B000040CBCF1020F18BF00F8012BA8BF20F832
:10C6C000022BA1EB0C0100F00DB85FEAC17C24BF86
:10C6D00000F8012B00F8012B48BF00F8012B704730
:10C6E0004FF0000200B5134694469646203922BF0B
:10C6F000A0E80C50A0E80C50B1F12001BFF4F7AF56
:10C70000090728BFA0E80C5048BF0CC05DF804EB37
:10C71000890028BF40F8042B08BF704748BF20F8A5
:10C72000022B11F0804F18BF00F8012B70477047A3
:10C7300070477047431A28BF9A427FF675AF10447E
:10C7400010F0030F11441EBF11F8013D521E00F8F6
:10C75000013D10F0030F7FF4F6AF103AC0F00A80ED
:10C7600010B531E91850103A20E91850BFF4F9AF6C
:10C77000BDE81040530724BF31E9081020E9081034
:10C7800044BF51F8043D40F8043D12F0030F08BFC8
:10C790007047D20728BF31F8023D48BF11F8012C7D
:10C7A00028BF20F8023D48BF00F8012C70477546AD
:10C7B000FFF7FAFDAE4605006946534620F0070034
:10C7C000854618B020B5FFF7CFFDBDE820404FF0FB
:10C7D00000064FF000074FF000084FF0000B21F06B
:10C7E0000701AC46ACE8C009ACE8C009ACE8C00938
:10C7F000ACE8C0098D46704710B50446AFF3008021
:10C800002046BDE81040FFF7DCBC000001491820BD
:10C81000ABBEFEE7260002007047000000000000EB
:10C820002DE9F84F1E4D8246012090468B464FF071
:10C830000009C5F8F0001C4C1A4820601B48206015
:10C840001B482060184E1836306800901948306038
:10C85000194F4FF0A530C7F88C0218480123002269
:10C86000D0F80CC04146584607F52377E047686882
:10C8700020F4403040EA0A00686000983060C5F853
:10C88000F0900848C04320600848C0432060084832
:10C89000C04320604FF05A3038600120BDE8F88F67
:10C8A00000100240863AD9A7006C0140CDDF12ABE0
:10C8B0002635EDCDFF8301200020024000D0FF1F70
:10C8C0002DE9F047047827488A46264D0126244959
:10C8D000471410354FF4804854B1012C09D0022C74
:10C8E00017D000248AF800404FF00110BDE8F0870F
:10C8F00001240E700D21814608F0F2FB2F600E21FD
:10C90000484608F0EDFBC5F8008001220C2148469E
:10C910001DE002220A700D21814608F0E1FB2F6024
:10C920000E21484608F0DCFBC5F8008001220C21EE
:10C93000484608F083FB0C4F0921384608F0D0FB2D
:10C94000094978151031086001220A21384608F09B
:10C9500075FB0021484608F0F5FB2E60C2E7000099
:10C9600000060020000C0140000801402DE9F041C4
:10C9700002787F2A03D0BDE8F04100F001BB01F846
:10C98000012B10F8015F01F8015B461C0C464FF0CB
:10C99000021708E02146304600F0F2FA074406EBA1
:10C9A000104680B204446D1EF4D23846BDE8F081D2
:10C9B00070B5002402460B462046092A3FD00ADC07
:10C9C0002B49092A086951D2DFE802F0505050156E
:10C9D0001920262C2F004021FC2A47D004DCF02A05
:10C9E00033D0F12A42D132E0FD2A3FD0FE2A3AD09C
:10C9F000FF2A3BD133E01C4607F038FD22E0062435
:10CA000022461C491846FFF788FD2FE0A8B1D0F850
:10CA1000A41104E018460CE078B1D0F8A811002960
:10CA2000F8D10AE01846C96F02E0D1F88010184624
:10CA300019B108F0DFFE044618E0002416E00C46A9
:10CA400007F01CFD01462046F3E733200CE0197087
:10CA5000422159700F219970D870042406E0197092
:10CA60005870022402E0642018700124204670BD32
:10CA700028930108AC9301082DE9F04F87B00446D4
:10CA800005900020CDE9011001F10209E549087087
:10CA9000E54914F8012B8246CA77897F07468A4206
:10CAA0007ED214F8016B002E7AD000BF14F8015B1F
:10CAB000E90701D00B2100E00A218B46A90770D5B8
:10CAC000F7B3D948DA45B0F814800FD1E8060DD491
:10CAD0006946284602F028FB022816D1B8F1010861
:10CAE00003D3D04909780029F2D048E1BAF10A0FFE
:10CAF00003D00A20824602F03DF9CA4F69460E2053
:10CB000002F012FB022803D000270128EDD107E034
:10CB1000B8F1010802D339780029EFD000272EE1BF
:10CB2000009989F80010009A09F10101120A01F830
:10CB3000012B009A120C01F8012B009A120E00E052
:10CB400015E001F8012B89468FB129060FD5B649AA
:10CB500009F10102C96889F800100B0A02F8013BCB
:10CB60000B0C02F8013B090E02F8011B9146E90685
:10CB70005AD5A17834F8030BDFF8AC8261F31F407B
:10CB800014F8011BDA4540EA01600490B8F8160079
:10CB90000390584602D0DA4602F0ECF8C34601E0B2
:10CBA00011E174E0B8F814800021284602F0BCFAC4
:10CBB000022802D0012898D107E0B8F1010803D378
:10CBC000984909780029EFD0D9E0BBF8148069466C
:10CBD000284602F0A9FA022802D0012818D107E05D
:10CBE000B8F1010814D38F4909780029EFD00FE07C
:10CBF000DBF81810009A1140049A914208D003996A
:10CC0000491E0391491C03D0864909780029DCD0CC
:10CC1000DBF81810009A1140049A914201D040F0BC
:10CC2000100001281ED1A0E0002F2FD15946DA456F
:10CC300003D008468A4602F09DF87B48DFF8E4B14D
:10CC4000B0F814800021284602F06EFA022802D0C3
:10CC5000012807D107E0B8F1010803D39BF80010C1
:10CC60000029EFD08BE029060FD56F49CA6809F17A
:10CC7000010189F80020130A01F8013B130C01F8A7
:10CC8000013B120E01F8012B894601276DE06FB3BD
:10CC9000BAF10A0F03D00A20824602F06BF862480C
:10CCA000B0F8148069460E2002F03EFA022802D045
:10CCB000012864D107E0B8F1010860D35949097827
:10CCC0000029EFD05BE0009989F80010009909F184
:10CCD0000100090A00F8011B0099090C00F8011B6A
:10CCE0000099090E00F8011B81460027A17834F84D
:10CCF000030B61F31F4014F8011B40EA0160009030
:10CD0000A90603D54849886101202EE05946DA4535
:10CD100003D008468A4602F02DF84348DFF804B1F4
:10CD2000B0F814806946284602F0FEF9022802D0C5
:10CD3000012824D107E0B8F1010820D39BF80010A6
:10CD40000029EFD01BE029060FD5374909F1010270
:10CD5000C96889F800100B0A02F8013B0B0C02F8B5
:10CD6000013B090E02F8011B91460299491C0291F0
:10CD70002C49097819B9761E7FF498AE09E046B1BE
:10CD800014F8011B8A0701D5C90600D5241D761E9B
:10CD9000F5E7012836D1BAF10A0F02D00A2001F0D6
:10CDA000E9FF21481F4E858A0FB369460E2002F025
:10CDB000BBF9022802D0012824D105E06D1E21D341
:10CDC00031780029F1D01DE0009989F80010009A0F
:10CDD00009F10101120A01F8012B009A120C01F865
:10CDE000012B009A120E01F8012B89460AE000215E
:10CDF0000E2002F099F9022804D16D1E02D3317879
:10CE00000029F4D0DDE901120A70019948700199F6
:10CE1000A9EB0100059907B0611A40EA0140BDE89D
:10CE2000F08F000000000020000600202DE9F84FE0
:10CE3000DFF844810027044638460D4601F1030A15
:10CE400088F800704D4914F8012BCA77897F8A420F
:10CE500022D234F8026B002E1ED014F8019B5FEA38
:10CE6000C97001D00B2000E00A20834601F082FF48
:10CE70005FEA897061D54148848A0021484602F002
:10CE800053F9022802D001286DD134E0641E6AD320
:10CE900098F800100029F0D065E03EB9BBF10A0F08
:10CEA00002D00A2001F066FF4FF00E093348848A51
:10CEB0006946484602F038F9022802D0012852D1CA
:10CEC00006E0641E4FD398F800100029F0D04AE025
:10CED00000998AF80010009A0AF10101120A01F87B
:10CEE000012B009A120C01F8012B009A120E01F886
:10CEF000012B8A467F1C761ECFD234E0A17834F80D
:10CF0000030B61F31F4014F8011B40EA016000901D
:10CF10001A48B0F814806946484602F005F902281C
:10CF200002D001281FD107E0B8F101081BD3124934
:10CF300009780029EFD016E07F1C761EDED2BBF107
:10CF40000A0F02D00A2001F015FF0C480A4E848A0D
:10CF500000210E2002F0E8F8022804D1641E02D35A
:10CF600031780029F4D02F70390A6970A870AAEBC3
:10CF70000500BDE8F88F000000000020000600203A
:10CF80002DE9F0470278A2F180031F2B03D800F0AF
:10CF900077F9BDE8F087A2F1A0035E2B02D800F07C
:10CFA0000BFAF6E701F8012B0C4610F8017B00257F
:10CFB000FF23AA49AA4A4FF001161E2F73D2DFE8B9
:10CFC00007F00F17292DF8EEED72EC4D5B727272BF
:10CFD00072725F6473818EB3D87272727272728A67
:10CFE0000078611CFFF7E4FC207000F10210D0E72C
:10CFF00002781AB1012A0BD0237024E14078C207CD
:10D000004FF4006001D0974A01E0964A121D10606B
:10D01000257018E12146FFF753FC34E0914E15705E
:10D02000103E00220D21304608F008F800220E21A3
:10D03000304608F003F800220C21304607F0FEFFCE
:10D04000894E00220921304607F0F8FF00220A210C
:10D05000304607F0F3FF25700121F4E00288834891
:10D06000834B0068B0FBF3F00323801CB0FBF3F0AC
:10D070005043401EFDD1CBE7657025700221E2E0F0
:10D08000214600F0ABFC0146DDE086780188C078DF
:10D0900066F31F41774E51EA00607DD0906003F047
:10D0A00023F8257083E0D5E010F8016B0EB94FF43A
:10D0B00080760146304602F0E3FFF61DF008257049
:10D0C000010453E0007800F00301491C1177C0F31C
:10D0D00080005077E5E7214600F0BEF9D3E704F879
:10D0E000015B0125A0462F4610F8016B17E000BF39
:10D0F00010F8019B824619F03F0000D14020C01D6E
:10D10000C40842465146484601F0BEFF25446D1C06
:10D110000AEB04005FEA096101D5A0442744761EAA
:10D12000E6D247EA05418EE010F8013B00219377F3
:10D130000E460BE002EB060C10F8017B8CF8207019
:10D1400002EB460C761CACF8281039449E42F1D311
:10D15000002007E0161896F82060891B02EB4006B5
:10D16000401C31879842F5D32570190401F1011153
:10D1700069E01178022919D10078D077917F88422F
:10D1800014D20E2001F0F6FD01F014FF257060703E
:10D19000010AA170010C04E008E057E033E013E05D
:10D1A00007E0E170000E207133494CE023703146F6
:10D1B00049E001781174B0F801109182B0F80300D1
:10D1C000D08225702D493EE012782146012A14D0E4
:10D1D000022A15D0421C12F8013B43B112F8014B50
:10D1E000A60701D5E40600D5121D5B1EF6D1101A64
:10D1F0000D7000044D70801C45E700F075F942E7A2
:10D20000FFF73AFC3FE706461078214601280BD08D
:10D2100002280DD00D704D70A5700320F17889079C
:10D220000AD540F480210EE0304600F03FFBF5E7E0
:10D230003046FFF7FBFDF1E7B6F801104FF480220E
:10D2400002EB8141014301F10110A2E6214600F009
:10D2500085FC18E704F8013C30469AE6010002001C
:10D2600000060020100C014000080140E8020020E8
:10D2700040420F000100040005000100010005000C
:10D280002DE9FC47027801F8012B0D4610F8011B2F
:10D290004FF0011406460020670080394FF0010866
:10D2A00004F101090E2978D2DFE801F007141F2EDE
:10D2B0003C77777747576165697A07F0D7F8064674
:10D2C000FFF7B5F8C4B22C70681C22463146FFF750
:10D2D00024F923E00724684603F0E6FA224669466B
:10D2E0002846FFF71AF9324C57E0684603F0DCFA9B
:10D2F00030680090684603F0F7FA002003F06AFBFC
:10D3000085F800802B4C48E03E21681C0AF09AFC0E
:10D31000040002D0012007F071FA2C7004F580346B
:10D32000A41C3AE03778701C39460AF051FD012000
:10D3300007F064FA85F800802BE085F800803178EA
:10D3400011B1012902D005E0002000E0012007F022
:10D35000CBFB00E028703C461FE085F8008005F01C
:10D360009BFD10B902200AF029FA4C4615E03078EE
:10D3700009F0A8F9EEE709F073F92870F5E716F857
:10D38000017B012007F04AFA3946304609F03CFAA1
:10D39000287004EB074404F101142046BDE8FC8723
:10D3A0002870307800B1012006F0B2FDD3E700000C
:10D3B0000900010002000500FF2008704FF0011075
:10D3C0007047000038B52248816941F0040181614D
:10D3D000816901F004010091816941F008018161D6
:10D3E000816901F008010091816941F010018161BA
:10D3F000816901F010010091816941F02001816192
:10D400008069144D00F0200000900D21284607F09F
:10D4100067FE104C6814103420600E21284607F077
:10D420005FFE4FF48040206001220C21284607F067
:10D4300005FE0021284607F085FE012020600B2113
:10D44000284607F04DFEE014211D086038BD00009D
:10D4500000100240000C01402DE9F05F002201F8AD
:10D46000012B012510F8016B8A46A94604464FF4AA
:10D47000804B31E014F8017B17F03F0000D14020D1
:10D48000C01D4FEAD008380608D500220E211548E5
:10D4900007F0D4FD13495846103106E00E2111481B
:10D4A00007F01EFE0F4958461431086052462146C7
:10D4B000384602F0F9F93EB90E210A4807F010FE8D
:10D4C00008491431C1F800B0380602D5C244C1443D
:10D4D00001E0444445446D1C761ECBD249EA054028
:10D4E000BDE8F09F000C01402DE9F04F87B08B465E
:10D4F00001F1020804460590EA49002002900870F4
:10D5000001906678A41C8146002E75D0DFF898A3A0
:10D5100014F8015BA90770D5B9F1000F50D0BAF823
:10D52000147005F0110001280AD0DFF878936946DD
:10D530000E2002F029FA022812D04FF0000905E06F
:10D540006946284602F020FA022802D0012806D1B6
:10D550000FE07F1E03D3D34909780029F0D04FE1B3
:10D560007F1E03D399F800100029E0D04FF0000986
:10D5700046E1009988F80010009A08F10101120AAA
:10D5800001F8012B009A120C01F8012B009A120EDF
:10D5900001F8012B8846B9F1000F11D029060FD5EB
:10D5A000DAF80C2008F1010188F80020130A01F8CC
:10D5B000013B130C01F8013B120E01F8012B8846C8
:10D5C000E90651D5A17834F8030B61F31F4014F834
:10D5D000011B40EA01600490BAF816000390E807C6
:10D5E00014D0BAF814700021284602F0CDF90228B0
:10D5F00004D00128B3D109E022E197E07F1E791C15
:10D60000ADD0A84909780029EDD0F9E0BAF8147036
:10D610006946284602F0B8F9022802D0012817D13D
:10D6200006E07F1E14D39F4909780029F0D00FE04F
:10D63000DAF81810009A1140049A914208D0039920
:10D64000491E0391491C03D0964909780029DDD071
:10D65000DAF81810009A1140049A914201D040F073
:10D660001000012816D15FE0BAF81470E90727D03E
:10D67000B9F1000F58D10021284602F085F902289F
:10D6800002D0012806D106E07F1E03D38549097820
:10D690000029F0D0B4E029060FD5DAF80C2008F103
:10D6A000010188F80020130A01F8013B130C01F86E
:10D6B000013B120E01F8012B88464FF0010933E0BF
:10D6C0006946284602F060F9022802D0012806D1F6
:10D6D00006E07F1E03D3734909780029F0D08FE05C
:10D6E00029060FD5DAF80C2008F1010188F800208E
:10D6F000130A01F8013B130C01F8013B120E01F86B
:10D70000012B8846009988F80010009A08F1010161
:10D71000120A01F8012B009A120C01F8012B009A51
:10D72000120E01F8012B884600215EE0B9F1000FCE
:10D7300025D0BAF8147069460E2002F025F90228A7
:10D7400002D001285CD106E07F1E59D355490978E3
:10D750000029F0D054E0009888F80000009908F102
:10D760000100090A00F8011B00994FF00009090C9B
:10D7700000F8011B0099090E00F8011B8046A178F2
:10D7800034F8030B61F31F4014F8011B40EA0160F9
:10D790000090A90603D5CAF81800012026E0BAF8BF
:10D7A00014706946284602F0EFF8022802D00128DA
:10D7B00026D107E07F1E791C22D03A49097800293A
:10D7C000EFD01DE029060FD5DAF80C2008F1010191
:10D7D00088F80020130A01F8013B130C01F8013B03
:10D7E000120E01F8012B8846012101910299491C72
:10D7F00002912C49097819B9761E7FF489AE09E0A7
:10D8000046B114F8011B8A0701D5C90600D5241DAD
:10D81000761EF5E7012837D1B9F1000F24D0BAF808
:10D820001450204E69460E2002F0AEF8022802D0B5
:10D83000012829D105E06D1E26D331780029F1D0C9
:10D8400022E0009988F80010009A08F10101120AFC
:10D8500001F8012B009A120C01F8012B009A120E0C
:10D8600001F8012B88460FE0019969B1BAF814500C
:10D870000C4E00210E2002F087F8022804D16D1E04
:10D8800002D331780029F4D002998BF800108BF87C
:10D8900001000598A8EB0B01201A07B041EA0040EF
:10D8A000BDE8F08F00000020000600202DE9F84FB1
:10D8B000DFF820810027044638460D4601F1030AAF
:10D8C00088F80070B4F80160E41C002E79D014F8D8
:10D8D000019BDFF804B15FEA897160D55FEAC97125
:10D8E0003CD0BBF814400021484602F04DF8022815
:10D8F00002D0012865D131E0641E62D398F800108F
:10D900000029F0D05DE026B95FEAC97001D04FF080
:10D910000E09BBF814406946484602F035F8022863
:10D9200002D001284DD106E0641E4AD398F80010B9
:10D930000029F0D045E000998AF80010009A0AF119
:10D940000101120A01F8012B009A120C01F8012BB7
:10D95000009A120E01F8012B8A467F1C761ED2D245
:10D960002FE0A17834F8030B61F31F4014F8011B7A
:10D9700040EA01600090BBF814806946484602F016
:10D9800003F8022802D001281BD107E0B8F10108F2
:10D9900017D3104909780029EFD012E07F1C761EBA
:10D9A000701CDED1BBF814400A4E00210E2001F09D
:10D9B000EBFF022805D1641E611C02D031780029DA
:10D9C000F3D02F70390A6970A870AAEB0500BDE882
:10D9D000F88F000000000020000600202DE9F05F15
:10D9E0008B460578447802794188407962F31F417B
:10D9F00041EA00664648E10700F1040706D0EA075D
:10DA00004FF4005101D0016000E03960A10706D554
:10DA1000AA074FF4804101D5016000E03960610739
:10DA200009D5A908CA074FF4007101D0394A01E0AD
:10DA3000384A121D116021060DD5E909C9074FF0BA
:10DA4000010802D0C0F8008005E03349334809F0EE
:10DA50009FFCC7F80080DFF8B8A0DFF8B890AAF103
:10DA6000040AA9F10809AAF1040896B32C488642D1
:10DA700000D9064602F0AEFB0746E00705D0DAF80B
:10DA80000000C0F34030A8421ED1A00706D5D8F848
:10DA90000000C0F30030B0EB550F15D1600706D57C
:10DAA000D9F80000C0F34020B0EB950F0CD1A006D0
:10DAB00001D5680908D120060BD5D8F8000000F080
:10DAC0000100B0EBD51F04D002F084FBC01BB042B4
:10DAD000D3D3DAF80000D8F80020C0F34031C2F305
:10DAE000003241EA4203D9F80020D9F80010C2F30D
:10DAF000402243EA8202C1F38021D8F8000042EAC2
:10DB0000C10141EAC0108BF800000648BDE8F09F53
:10DB1000100C0140100801400400FA050CED00E073
:10DB2000C0C62D00010006000A4910B500220A7087
:10DB3000094888600A7464238B82CA8201238A613F
:10DB40000B774A778A7702F0CFFABDE81040FFF7EB
:10DB500039BC00000006002080969800F8B5044605
:10DB6000174800260D460278012A03D0FF21022A19
:10DB700013D10DE0E178B4F8010061F31F40217981
:10DB800040EA016000906946002001F0FDFE13E0CC
:10DB90002278C277807F824201D329700DE008206D
:10DBA00001F0E8F8E178B4F8010061F31F40217951
:10DBB00040EA016001F026FD2E700248F8BD000029
:10DBC00000060020010005000078832805D0842885
:10DBD00003D08C2801D001207047002070472DE928
:10DBE000F04100F580540546D4F8C8091E46174692
:10DBF0008846002835D00846FFF7E6FF10B101201F
:10DC000006F004FE402F00DD4027D4F8C8093A464C
:10DC1000401EC4F8C809D4F8D009414605EB80106D
:10DC200004F6C814FEF779FCA06805EB80114046A5
:10DC3000FEF79CFEA16805EB410101F58051A1F8BA
:10DC40000009A068642105EB80103060A068401CCA
:10DC5000B0FBF1F201FB1200A0606068401C606044
:10DC60000120BDE8F08110B500F58053D3F8CC4910
:10DC70000CB3641EC3F8CC49D3F8D44900EB841428
:10DC80000C60D3F8D41900EB410000F580506421FA
:10DC9000B0F800091060D3F8D409401CB0FBF1F2D1
:10DCA00001FB1200C3F8D409D3F8C809401CC3F81B
:10DCB000C809012010BD002010BDA0F5C7600022DA
:10DCC00000F5005064218260C260C0E90012704714
:10DCD00001078A0E07490A44D2F8001C000602D543
:10DCE00048F6CF7001E04CF68F700140C2F8001C7E
:10DCF00070470000005000400207930E0C4A30B5F8
:10DD00001344D3F8002C000648F68F7502EA05008C
:10DD100048F2800482EA010202D502F0300101E0FB
:10DD200002F4405108432043C3F8000C30BD00000A
:10DD30000050004030B585B00546002400F03AF9A7
:10DD400000200090CDE901050120039004A9684658
:10DD500000F092F800B1012400F0E2F805B020468E
:10DD600030BD000006490020C8610648016941F045
:10DD700004010161016941F0400101617047000047
:10DD8000581C002000200240064A0021D1610649AB
:10DD90000A6942F002020A614861086940F04000E5
:10DDA00008617047581C002000200240044B0022EC
:10DDB000DA61044A136943F001031361018070477B
:10DDC000581C0020002002400E49C868C2060E48B8
:10DDD00003D5C26942F00202C261CA68520703D584
:10DDE000C26942F00102C261CA69D20707D0C269A2
:10DDF00042F00402C261C86920F00100C861142029
:10DE0000C860704700200240581C002070B50546CD
:10DE100000F0C6F90646114C09E0681C07D025B190
:10DE200000F0BEF9801BA84201D9032070BDE06854
:10DE3000C007F2D1E068800601D52020E060E068EC
:10DE4000C00605D4E069C00702D1E068400703D5E9
:10DE5000FFF7BAFF012070BD002070BD0020024016
:10DE600031B500F09DF9044600F09AF90099001BC5
:10DE70008842F9D338BD00002DE9F0470546264811
:10DE80000F460126017E01290FD00121814601762E
:10DE90002868DFF888804CF25034022808D0A24667
:10DEA0002046FFF7B3FFA8B131E00220BDE8F087BC
:10DEB0002046FFF7ABFF08BB0120FFF753FF2046CA
:10DEC000FFF7A4FFD8F81010064621F00401C8F8A7
:10DED00010101CE04FF0FF303860AC6811E02046B5
:10DEE000FFF752FF5046FFF791FFD8F810100600D9
:10DEF00021F00201C8F8101001D03C6007E004F5E1
:10DF00008064D5E9020100EB8120A042E7D800211E
:10DF100089F818103046C9E7581C0020002002403C
:10DF20000348016941F08001016100207047000051
:10DF3000002002402DE9F05F07461C488846002477
:10DF4000017E15461E46012909D001218146017630
:10DF50004CF2503A5046FFF759FF18B122E0022028
:10DF6000BDE8F09F012F02D0022F00D00427D34636
:10DF7000DFF83CA0220128463146FEF719FA81B2AB
:10DF800008EB4400FFF712FF5846FFF73FFFDAF8AF
:10DF9000102022F00102CAF8102018B9641CE4B263
:10DFA000BC42E7D3002289F81820D9E7581C00208A
:10DFB0000020024005480169090605D50449416071
:10DFC0000449416000207047012070470020024052
:10DFD00023016745AB89EFCD2DE9F84FDFF890A11C
:10DFE00000220AF1040B144601274FF00F090BF130
:10DFF000040E00BF0B6807FA04F52B40AB4274D146
:10E00000DFF870C14E68A6EB0C0866452BD00DDC1E
:10E01000032E34D005DC36B3012E19D0022E2FD1B9
:10E020001BE0112E16D0122E2AD119E0B8F5881F48
:10E0300019D006DCB8F5803F15D0B8F5801F1FD188
:10E0400011E0B8F5001F0ED0B8F5041F18D10AE092
:10E05000CA6815E0CA68121D12E0CA6808320FE0EB
:10E06000CA680C320CE08A682AB1012A4FF0080213
:10E0700003D0456104E0042202E0056100E00022D3
:10E08000FF2B01D8064601E000F104064FEA8405A3
:10E0900001D9A5F12005D6F800C009FA05F82CEA47
:10E0A000080C02FA05F54CEA050CC6F800C04D68EC
:10E0B000ED0057D5304DAE6946F00106AE61AD6951
:10E0C00024F0030605F0010500952C4D06EB050C28
:10E0D000DCF80850A6074FEA167809FA08F6B543A7
:10E0E000274EB04202D1002610E03BE0254EB04260
:10E0F00001D101260AE0244EB04201D1022605E0FA
:10E10000224EB04201D1032600E0042606FA08F6AA
:10E110002E43CCF808604D68DAF80060ED035546F0
:10E1200001D51E4300E09E432E604D68DBF8006081
:10E13000AD035D4601D51E4300E09E432E604D6851
:10E14000DEF80060ED02754601D51E4300E09E43F7
:10E150002E604D68AD020E4D2E6801D51E4300E0C5
:10E160009E432E60641C102CFFF444AFBDE8F88F72
:10E1700000040140000011100010024000000140A6
:10E1800000080140000C0140001001400014014053
:10E190000C0401400AB1016170470904FBE700006B
:10E1A000EFF3108172B607480068406A064A1368A8
:10E1B000C3EB9000C0F30D00184481F31088106089
:10E1C000704700001C1C0020E4020020074810B526
:10E1D000016841F010010160032000F05DF80F209C
:10E1E00000F006F800F056F8002010BD00200240B4
:10E1F00010B588B006A901A800F024F90498B0F57C
:10E20000806F08D0B0F5A06F35D0B0F5C06F34D0B6
:10E21000B0F5E06F33D001201A494FF0804200245E
:10E220000968B1FBF0F04FF47A61B0FBF1F11648E8
:10E23000491E02604FF6FF72C0E90324C0E90114D1
:10E2400044611248C16941F00101C161C06900F037
:10E25000010000900C4800F018FC002809D10C487F
:10E260000460094800F02DFC002802D1064800F0A7
:10E2700045FC08B010BD0220CEE70420CCE7082002
:10E28000CAE70000E80200201C1C00200010024029
:10E29000E402002070470000064900F00702086809
:10E2A0004FF6FF03184040EA0220034A104308607B
:10E2B000704700000CED00E00000FA052DE9F04782
:10E2C000DFF8708105460E46D8F8000000F0070020
:10E2D000B0420CD2D8F8001021F007013143C8F841
:10E2E0000010D8F8000000F00700B04277D128787D
:10E2F000514C800705D56068A96820F0F0000843FC
:10E3000060602878C00759D06968012001290DD0C4
:10E31000022929D05FF0020393FAA3F2B2FA82F243
:10E3200042F02002520904D0226803E04FF4003387
:10E33000F2E7626A93FAA3F3B3FA83F303F01F03DD
:10E34000984002424BD0606820F0030008436060B0
:10E35000FFF726FF6968074641F2883001290DD092
:10E360000229814617D025E04FF00073D4E700BFA3
:10E37000FFF716FFC11B494501D918E081466068C7
:10E38000C0F381000128F3D118E000BFFFF708FFB8
:10E39000C11B49450BD86068C0F381000228F5D144
:10E3A0000CE000BFFFF7FCFEC11B494502D903206A
:10E3B000BDE8F087606810F00C0FF3D1D8F80010BA
:10E3C000404601F00701B1420BD9016821F0070175
:10E3D00031430160006800F00700B04201D0012025
:10E3E000E6E72878400705D56068E96820F4E06032
:10E3F000084360602878000706D56068296920F422
:10E40000605040EAC100606000F03CF86168F022B2
:10E4100092FAA2F201F0F001B2FA82F2D140074A78
:10E42000515CC840064908600F20FFF7E1FE00205C
:10E43000BEE7000000200240001002409899010849
:10E44000E80200200F2202600C4A536803F0030325
:10E450004360536803F0F0038360536803F4E063A0
:10E46000C36052684FF4E06303EAD20202610448D9
:10E47000006800F0070008607047000000100240CC
:10E480000020024010B519A385B00FCB8DE80F0016
:10E490001AA01B4B006804905A681A4802F00C013D
:10E4A00004291DD008291BD14FF4701494FAA4F448
:10E4B00002F47011B4FA84F4E140D2031DF80110A3
:10E4C00010D55A684FF4003393FAA3F302F40032E4
:10E4D000B3FA83F3DA4004AB9A5CB0FBF2F0484342
:10E4E00005B010BD08484843FAE7000002030405E0
:10E4F000060708090A0B0C0D0E0F10100102000090
:10E500000010024000127A0000093D002DE9F84F8A
:10E5100004460078F74DC0074FF0010625D0686823
:10E520007704C0F38100012807D06868C0F3810038
:10E5300002281BD16868C00318D597FAA7F0B0FA73
:10E5400080F040F02000400901D0286800E0686AAF
:10E5500097FAA7F1B1FA81F101F01F0106FA01F172
:10E5600008425ED0606800287CD05AE06068B0F550
:10E57000803F0BD010B1B0F5A02F11D0286820F447
:10E5800080302860286820F4802002E0286840F469
:10E5900080302860606828B3FFF702FE80460BE0F9
:10E5A000286840F480202860F0E700BFFFF7F8FDFE
:10E5B000A0EB0800642871D897FAA7F0B0FA80F0B1
:10E5C00040F02000400901D0286800E0686A97FA0E
:10E5D000A7F1B1FA81F101F01F0106FA01F1084239
:10E5E000E4D01EE0FFF7DCFD804605E0FFF7D8FD34
:10E5F000A0EB08006428DED897FAA7F0B0FA80F004
:10E6000040F02000400901D0286800E0686A97FACD
:10E61000A7F1B1FA81F101F01F0106FA01F10842F8
:10E62000E4D12078DFF8D08280074FF000094FF066
:10E6300002075BD568684FF0F80B10F00C0F07D09D
:10E640006868C0F3810002281CD16868C00319D42F
:10E6500097FAA7F0B0FA80F040F02000400902D00D
:10E66000286801E08BE0686A97FAA7F1B1FA81F1B6
:10E6700001F01F0106FA01F108422CD0206901289F
:10E680007DD128E0206990B396FAA6F0B0FA80F028
:10E6900048F82060FFF784FD824607E011E100BFE3
:10E6A000FFF77EFDA0EB0A00022884D897FAA7F0B6
:10E6B000B0FA80F040F02000400901D0286800E066
:10E6C000686A97FAA7F1B1FA81F101F01F0106FA21
:10E6D00001F10842E4D028689BFAABF26169B2FA12
:10E6E00082F220F0F80091400843286025E0FFE71F
:10E6F00096FAA6F1B1FA81F148F82190FFF750FDA2
:10E70000824605E0FFF74CFDA0EB0A000228CCD8BA
:10E7100097FAA7F0B0FA80F040F02000400901D04D
:10E72000286800E0686A97FAA7F1B1FA81F101F070
:10E730001F0106FA01F10842E4D1207800076ED5E6
:10E74000A069B8B396FAA6F0B0FA80F008EB8000A2
:10E75000C0F88064FFF724FD824605E0FFF720FD46
:10E76000A0EB0A000228A0D897FAA7F0B0FA80F030
:10E7700040F06000B6EB501F02D128680CE062E167
:10E7800097FAA7F0B0FA80F040F06000B7EB501FA6
:10E7900001D1286A00E0686A97FAA7F1B1FA81F11D
:10E7A00001F01F0106FA01F21042D7D00120FFF755
:10E7B00057FB34E0FFE796FAA6F1B1FA81F108EBD6
:10E7C0008101C1F88094FFF7EBFC824606E000BFB0
:10E7D000FFF7E6FCA0EB0A00022872D897FAA7F030
:10E7E000B0FA80F040F06000B6EB501F01D128680D
:10E7F0000BE097FAA7F0B0FA80F040F06000B7EBBA
:10E80000501F01D1286A00E0686A97FAA7F1B1FAAF
:10E8100081F101F01F0106FA01F21042D8D12078EF
:10E82000400765D5E86940F08050E861E869DFF8A5
:10E83000CCB000F080500090DBF8001041F4807103
:10E84000CBF80010FFF7ACFC824605E0FFF7A8FC10
:10E85000A0EB0A00642834D8DBF80000C005F5D529
:10E86000E06801280AD008B1052813D0286A20F0F2
:10E8700001002862286A20F0040002E0286A40F0C3
:10E8800001002862E06841F2883B90B3FFF788FC02
:10E8900082460BE0286A40F004002862EEE700BFE1
:10E8A000FFF77EFCA0EB0A0159450AD897FAA7F0BA
:10E8B000B0FA80F040F04000B6EB501F02D128685B
:10E8C0000CE0A3E097FAA7F0B0FA80F040F0400027
:10E8D000B7EB501F01D1286A00E0686A97FAA7F1E8
:10E8E000B1FA81F101F01F0206FA02F10842D7D015
:10E8F00031E005E00010024000004242007000409C
:10E90000FFF74EFC824605E0FFF74AFCA0EB0A0148
:10E9100059457BD897FAA7F0B0FA80F040F0400054
:10E92000B6EB501F01D128680BE097FAA7F0B0FAB8
:10E9300080F040F04000B7EB501F01D1286A00E0A2
:10E94000686A97FAA7F1B1FA81F101F01F0206FA9D
:10E9500002F10842D8D1E06980B36968C1F381014E
:10E96000022970D04FF080714F000228484609D02C
:10E9700091FAA1F1B1FA81F148F82100FFF710FCFA
:10E98000044669E08A4691FAA1F1B1FA81F1C146E3
:10E9900048F82100FFF704FC804605E0FFF700FC83
:10E9A000A0EB0800022854D897FAA7F0B0FA80F03C
:10E9B00040F02000400902D0286801E061E0686A68
:10E9C00097FAA7F1B1FA81F101F01F0106FA01F1FE
:10E9D0000842E3D1206AB0F5803F05D16868A1689C
:10E9E00020F4003008436860D4E9080108436968EE
:10E9F00021F47411084368609AFAAAF0B0FA80F022
:10EA000049F82060FFF7CCFB044606E021E000BF98
:10EA1000FFF7C6FB001B02281BD897FAA7F0B0FA35
:10EA200080F040F02000400901D0286800E0686ACA
:10EA300097FAA7F1B1FA81F101F01F0106FA01F18D
:10EA40000842E5D01DE01EE0FFF7AAFB001B0228EC
:10EA500002D90320BDE8F88F97FAA7F0B0FA80F04A
:10EA600040F02000400901D0286800E0686A97FA69
:10EA7000A7F1B1FA81F101F01F0106FA01F1084294
:10EA8000E2D10020E6E70120E4E710B504460220C9
:10EA900084F839002068016A41F21112114207D14D
:10EAA000016A9210114203D1016821F00101016055
:10EAB000204600F021F8002084F8390084F838005E
:10EAC00010BD10B5040003D094F8390010B107E070
:10EAD000012010BD002084F83800204600F00DF819
:10EAE000022084F83900211D206801F093FB0120E9
:10EAF00084F83900002010BD70477047022180F86B
:10EB0000391001680A6842F001020A60012180F8A8
:10EB100039100020704770B5044690F838000D4653
:10EB200001280DD0012684F83860022084F83900CD
:10EB300042B1042A18D0082A2AD00C2A4DD139E033
:10EB4000022070BD206801F0A3FB2068816941F0BC
:10EB5000080181612068816921F0040181612068D8
:10EB600081692A69114311E0206801F0B9FB20682E
:10EB7000816941F4006181612068816921F48061CB
:10EB80008161206881692A6941EA0221816124E06A
:10EB9000206801F0D1FB2068C16941F00801C16122
:10EBA0002068C16921F00401C1612068C1692A6936
:10EBB000114311E0206801F0EBFB2068C16941F4CA
:10EBC0000061C1612068C16921F48061C161206870
:10EBD000C1692A6941EA0221C16184F839600020D3
:10EBE00084F8380070BD10B50446022084F839005E
:10EBF0002068016A41F21112114207D1016A921094
:10EC0000114203D1016821F001010160204600F0AA
:10EC100021F8002084F8390084F8380010BD10B5C0
:10EC2000040003D094F8390010B107E0012010BDB2
:10EC3000002084F83800204600F00DF8022084F807
:10EC40003900211D206801F0E5FA012084F839001F
:10EC5000002010BD7047704710B5044600680122BF
:10EC600001F00AFB07492068884203D1416C41F456
:10EC7000004141642068016841F001010160002009
:10EC800010BD0000002C014070B5040018D0022017
:10EC900084F839002068C16821F40051C1602068FF
:10ECA0000025C5602068056120684561204600F0A8
:10ECB00038F8E56384F8395084F83850002070BD86
:10ECC000012070BD70B5040004D094F8390000250F
:10ECD00010B106E0012070BD84F83850204600F0E5
:10ECE00021F8022084F839002068C16821F400511D
:10ECF000C160204601F06EFB2068016921F490415B
:10ED000001612068416921F02A0141612068C168E0
:10ED100041F40051C160E563012084F8390000200E
:10ED200070BD7047704703F091FE002070471CB51E
:10ED300007F0F4FF00281BD09E208DF80000E7208C
:10ED40008DF801006946102001F09AF907F0E6FFFE
:10ED500000280DD000208DF800006946082001F041
:10ED60008FF901A9002007F06BFF012800D00020D7
:10ED70001CBD00000349497809B100F005B800F056
:10ED800063B80000000600202DE9F0432B4A4FF441
:10ED9000804717605114131D1960116019601160CC
:10EDA0001F601960116019601160254E0C113460EC
:10EDB000244D95F81FC005EB4C09B9F828501DB13A
:10EDC000196011606D1EFBD11E4D20351CF80550D9
:10EDD000DFF86CC00CF1040C0AE000BF5FEAC078F9
:10EDE00001D0346001E0CCF80040196011604008A7
:10EDF0006D1EF3D1B9F838507DB1C00701D0346031
:10EE000001E0CCF8004019601160346001E0196045
:10EE100011606D1EFBD1176006E01760C00701D0BE
:10EE2000346001E0CCF80040196011601960116095
:10EE30001F60196011603460BDE8F083100C014060
:10EE400010080140000600202DE9F047564B4FF412
:10EE50008048C3F800805A141C1D2260534F796803
:10EE60000D466D1EFDD11A600D466D1EFDD122604E
:10EE70000D466D1EFDD11A600D466D1EFDD1C4F804
:10EE8000008022600D466D1EFDD11A600D466D1E7C
:10EE9000FDD122600D466D1EFDD11A600D466D1E1E
:10EEA000FDD1434E4FF40075356097F81FC007EB56
:10EEB0004C0AE146BAF828C0BCF1000F0AD0226023
:10EEC0000F467F1EFDD11A600F467F1EFDD1BCF19B
:10EED000010CF4D1DFF8D4C00CF1200C19F80CC0EF
:10EEE000DFF8CC9009F104090EE0C70701D03560C6
:10EEF00001E0C9F8005022600F467F1EFDD11A6064
:10EF00000F467F1EFDD14008BCF1010CEDD1BAF8CF
:10EF1000387027B3C00701D0356001E0C9F8005050
:10EF200022600846401EFDD11A600846401EFDD1F1
:10EF3000356007E022600846401EFDD11A60084691
:10EF4000401EFDD17F1EF5D1C3F800802260084627
:10EF5000401EFDD11A600846401EFDD10FE0C3F8E7
:10EF60000080C00701D0356001E0C9F80050226080
:10EF70000846401EFDD11A600846401EFDD12260A1
:10EF80000846401EFDD11A600846401EFDD1C4F857
:10EF9000008022600846401EFDD11A60491EFDD146
:10EFA0003560BDE8F0870000100C0140000600202D
:10EFB00010080140F0B5314C4FF4804626606214D1
:10EFC000231D1A602E4841680D466D1EFDD122603A
:10EFD0000D466D1EFDD11E601A600D466D1EFDD1E1
:10EFE00022600D466D1EFDD11A600D466D1EFDD1CD
:10EFF00022600D466D1EFDD1C57F4DB11A600846D9
:10F00000401EFDD122600846401EFDD16D1EF5D187
:10F010000027DFF870C01F251A600846401EFDD18A
:10F02000DCF800002260C0F3802E0846401EFDD1AF
:10F0300047EACE7047086D1EEED126601A6008467A
:10F04000401EFDD1DCF800002260C0F38025084698
:10F05000401EFDD147EAC5701A600D466D1EFDD1F8
:10F0600022600D466D1EFDD11E601A600B465B1EB0
:10F07000FDD12260491EFDD1F0BD0000100C014001
:10F0800000060020080801402DE9F04F10F03F0570
:10F0900000D14025DFF884A044064FF480434FF4AC
:10F0A000007EAAF1040B4FF4005801D55C4600E045
:10F0B000544623602EE000BF11F8016B00244FF08E
:10F0C000080C1FE0F307734601D0154F01E0144F01
:10F0D0003F1D3B60CAF80080124B5B681F467F1ED5
:10F0E000FDD10F4F083F3F68CBF80080C7F3802960
:10F0F0005B1EFDD1630876086D1E43EAC914BCF19E
:10F10000010C01D0002DDDD124FA0CF4030601D549
:10F1100002F8014B002DCFD1BDE8F08F140C014057
:10F120001008014000060020034A52780AB100F09E
:10F1300005B800F0D7B80000000600202DE9F05F08
:10F14000654D4FF480428B462A6054102E1D34606A
:10F150002C60326034602C6034602C605F49C97F61
:10F1600019B134602C60491EFBD1DFF874C141082D
:10F17000C907ACF104094FF4007302D0C9F800309C
:10F1800001E0CCF800303460DFF85481A8F10C08BD
:10F19000D8F800102C60C1F3802149008708FF07D0
:10F1A00002D0C9F8003001E0CCF800303460D8F863
:10F1B00000702C60C7F380273943C708FF0702D0CF
:10F1C000C9F8003001E0CCF800303460444F0C3F07
:10F1D0003F682C60C7F3802741EA870ABAF1010F24
:10F1E00001D02A605EE03D4F5FEA8078B97FFF7F03
:10F1F000A1EB070E2FD5DFF8E88000271F21A8F12B
:10F200000C083460D8F800C02C604FEA9C2C47EA08
:10F21000CC777F08491EF4D1BEF1010114D03460CF
:10F22000D8F800C0CCF3802C00E034602C60491E7C
:10F23000FBD12A6034602C6047EACC71BBF1000F2F
:10F2400032D0CBF800102FE02A603460D8F80010DC
:10F25000C1F3802CEFE7DBF800101F27E04600BF6A
:10F260005FEAC17C01D0CC4600E0C446CCF8003057
:10F2700034602C6049087F1EF2D1BEF101070AD02C
:10F28000C90701D0494600E041460B6034602C605C
:10F290007F1EFBD1A5E72A60C90701D0494600E0DF
:10F2A00041460B6034602C6034602C603260346006
:10F2B0002C60C9F80030000603D500F09BFF074919
:10F2C000C8600648007C01E034602C60401EFBD220
:10F2D0005046BDE8F09F0000100C014000060020E1
:10F2E000140801402DE9F34FC34F83B04FF480451C
:10F2F0003D606B103C1D2360DFF800C3DCF8041098
:10F300000A46521EFDD13B600A46521EFDD12560C1
:10F3100023600A46521EFDD13B600A46521EFDD1B3
:10F3200023600A46521EFDD13B600A46521EFDD1A3
:10F330009CF81F604EB123600A46521EFDD13B600F
:10F340000A46521EFDD1761EF5D14208DFF8B09272
:10F350005FEAC278A9F104064FF4007201D032606E
:10F3600001E0C9F800209A4623600B465B1EFDD1E0
:10F37000DFF88C82A8F10C08D8F80030C7F800A09C
:10F38000C3F3802C53460F467F1EFDD14FEA4C0736
:10F390004FEA900C5FEACC7C01D0326001E0C9F802
:10F3A0000020A34623600C46641EFDD1D8F800401F
:10F3B000C646C4F3802C904C23600C46641EFDD1DD
:10F3C000C40847EA0C07E40701D0326001E0C9F83D
:10F3D0000020CBF800300C46641EFDD1DEF8004062
:10F3E0009A46C4F3802C844C23600B465B1EFDD1EF
:10F3F00047EA8C030193012B0AD025605746CBF8CE
:10F4000000A00B465B1EFDD12760491EFDD1BEE06A
:10F410007A4B5FEA807C9F7FDB7FA7EB030300933F
:10F420005BD54FF0000C1F275346CBF800A0884651
:10F43000B8F10108FCD1DEF800802360C8F3802811
:10F440000B465B1EFDD14CEAC8734FEA530C7F1E7E
:10F45000EAD1009B5B1E5FEA03082AD05746CBF82F
:10F4600000A00B465B1EFDD1DEF80030BA46C3F3A8
:10F47000802927600B465B1EFDD1B8F101030DD03A
:10F480004FEA0A08CBF800800F467F1EFDD1C4F872
:10F4900000800F467F1EFDD15B1EF3D125605746CD
:10F4A000CBF800A00B465B1EFDD12760491EFDD1A5
:10F4B0000DE025605746CBF800A00B465B1EFDD142
:10F4C000DEF800302760C3F38029491EFDD1049B7C
:10F4D0004CEAC971E3B3196059E0049B4FF01F0C6B
:10F4E000D0461B68DF0701D0326001E0C9F8002078
:10F4F000CBF800800F467F1EFDD1C4F800800F4678
:10F500007F1EFDD15B08BCF1010CEBD1009F7F1E7B
:10F510002DD0DB0701D0326001E0C9F8002043465E
:10F52000DC46CBF800808846B8F10108FCD12360A6
:10F530004FEA0108B8F10108FCD17F1E0DD0CCF8CC
:10F5400000308846B8F10108FCD12360884600E00D
:10F550001DE0B8F10108FAD1EFE72560CCF80030E2
:10F560000F467F1EFDD12360491EFDD10FE02560AF
:10F57000DB0701D0326001E0C9F800204746CBF834
:10F5800000800B465B1EFDD12760491EFDD157460A
:10F59000D946CBF800A0DFF86480D8F804100B46F9
:10F5A0005B1EFDD127600B465B1EFDD1C9F80050E4
:10F5B000C9F800700B465B1EFDD12760491EFDD1C6
:10F5C0003260000603D500F015FEC8F80C0098F86C
:10F5D0001020D8F8040008E0C9F800700146491E60
:10F5E000FDD127600146491EFDD1521EF4D201987B
:10F5F00005B0BDE8F08F0000100C014000060020AF
:10F60000140801402DE9F04F654B4FF480471F600F
:10F610005A141C1D2260634E71680D466D1EFDD18B
:10F620001A600D466D1EFDD1276022600D466D1ECD
:10F63000FDD11A600D466D1EFDD122600D466D1E76
:10F64000FDD11A600D466D1EFDD196F81FC0BCF1AC
:10F65000000A0AD022600D466D1EFDD11A600D46CB
:10F660006D1EFDD1BCF1010CF4D1DFF83C814FF4EB
:10F670000075C8F8005022604FEA010CBCF1010C83
:10F68000FCD11A604FEA010CBCF1010CFCD12260E4
:10F690004FEA010CBCF1010CFCD11A604FEA010CDD
:10F6A000BCF1010CFCD122604FEA010CBCF1010C51
:10F6B000FCD11A604FEA010CBCF1010CFCD1DFF85F
:10F6C000E8904FF01F0CA9F10409B346C60702D019
:10F6D000C9F8005001E0C8F8005022600E46761EBE
:10F6E000FDD11A600E46761EFDD14008BCF1010C1A
:10F6F000ECD19BF81EC0ACEB0A06761E2CD0C007DE
:10F7000002D0C9F8005001E0C8F80050104622604D
:10F710004FEA010CBCF1010CFCD118604FEA010C5E
:10F72000BCF1010CFCD1761E0CD020604FEA010C1C
:10F73000BCF1010CFCD118604FEA010CBCF1010CCA
:10F74000FCD1F0E71F6020600E46761EFDD11860E8
:10F750000846401EFDD10FE01F60C00702D0C9F867
:10F76000005001E0C8F8005022600846401EFDD15C
:10F770001A600846401EFDD122600846401EFDD199
:10F780001A600846401EFDD1276022600846401ED0
:10F79000FDD11A60491EFDD1C9F80050BDE8F08FB7
:10F7A000100C0140000600201408014070B5104CF8
:10F7B0000D21204605F0ADFC0D4D6014103528607C
:10F7C0000E21204605F0A5FC4FF480402860012260
:10F7D0000C21204605F05BFC206820F00F00206023
:10F7E000206840F0070020600120286070BD000004
:10F7F000000C01402DE9F04117460D4680460026D9
:10F80000FEF7D8FBA80706D000206E220DA103F05A
:10F81000C9F900240EE00120F7E700BF57F82420C3
:10F8200008EB840100230220FEF784FB08B10126C7
:10F8300003E0641CB4EB950FF0D3FEF771FB304688
:10F84000BDE8F0812E2E5C2E2E5C2E2E5C736F7523
:10F850007263655C6869635F68616C5C73746D3367
:10F86000325C73746D33326631303378625C666C4F
:10F870006173682E630000000246002053090949A5
:10F88000012B0BD0022B0BD0D1F8241002F01F0259
:10F89000012393400B4200D0012070470968F5E72F
:10F8A000096AF3E7001002402DE9F00710F03F036A
:10F8B00008BF402310F0800FDFF8C090DFF8C0A031
:10F8C0004FF40054A9F104062CD0002B12BFDFF82E
:10F8D000B480BDE8F007704700274FF0080CDAF855
:10F8E000045010E0491EFDD1D8F800003460C0F388
:10F8F00000312846401EFDD178085B1E40EAC11742
:10F90000BCF1010C05D0002B1CBFC9F800402946F2
:10F91000E8D127FA0CF002F8010B002BDCD1BDE88E
:10F92000F0077047002B19BF4FF4804CDAF8042021
:10F93000BDE8F007704700BF11F8015B082712E02F
:10F94000E80714BFC6F800C0C9F800C0C9F80040F5
:10F950001046401EFDD134601046401EFDD16D089A
:10F960005B1E7F1E04D0002BEAD1BDE8F007704774
:10F97000002BE1D1BDE8F00770470000140C0140F6
:10F9800000060020080C0140034A52780AB100F03A
:10F9900005B800F055B90000000600202DE9F04F31
:10F9A000A04F4FF4804AC7F800A07E143D1D2E6082
:10F9B0003E60C20714BFC7F800A0C5F800A02E60C3
:10F9C0003E6042085FEAC27C14BFC7F800A0C5F8D9
:10F9D00000A02E603E60830802445FEAC37C14BF2F
:10F9E000C7F800A0C5F800A02E603E601344C2080E
:10F9F0005FEAC27C14BFC7F800A0C5F800A02E6063
:10FA00003E601A44D20714BFC7F800A0C5F800A092
:10FA10002E603E60C5F800A02E603E60C7F800A0D2
:10FA20002E603E60DFF800B2DBF8042022F0706246
:10FA3000CBF80420DBF80420CBF80420C7F800A0A2
:10FA4000DFF8E8E19EF81C20131E03D02E603E6014
:10FA5000521EFBD12E60DFF8D891D9F800203E600D
:10FA6000C2F300322E60D9F800C03E60CCF3003CF7
:10FA700042EA4C022E60D9F800C03E60CCF3003C54
:10FA800042EA8C02012A1DD0022A18BF042A7DD026
:10FA900013F1210003D02E603E60401EFBD1DBF845
:10FAA000040020F07060CBF80400DBF8040040F0A4
:10FAB0004070CBF80400C5F800A0C7F800A01046BD
:10FAC000BDE8F08F10F0020F4AD00024A04620239A
:10FAD0002E60D9F800C03E60CCF3003C6408E044DE
:10FAE00044EACC745B1EF3D12E60D9F800303E603E
:10FAF00088EA133313F0010F18BF0822002918BF3A
:10FB00000C609EF81C1019B12E603E60491EFBD19E
:10FB1000DBF8041021F07061CBF80410DBF804105E
:10FB200041F04071CBF80410C5F800A010F0800F30
:10FB30000AD0404840490068B0FBF1F03F494968AD
:10FB4000B1FBF0F0CEF80C009EF81000002818BFB2
:10FB5000C5F800A061D02E603E60401EFBD15CE085
:10FB60001BB12E603E605B1EFBD1DBF8043023F03E
:10FB70007063CBF80430DBF8043043F04073CBF80B
:10FB80000430C5F800A00968002300E017E04FF03A
:10FB9000200CCC0714BFC7F800A0C5F800A02E6049
:10FBA0003E600B444908BCF1010CF2D1D90714BFE7
:10FBB000C7F800A0C5F800A02E603E60B6E79EF82A
:10FBC0001DC0BCF1000F1CBF10F0020F212103D09B
:10FBD0002E603E60491EFBD11BB12E603E605B1E55
:10FBE000FBD1DBF8041021F07061CBF80410DBF8D6
:10FBF000041041F04071CBF80410C5F800A0BCF12E
:10FC0000000F0AD010F0020F04BFC5F800A0212099
:10FC100003D12E603E60401EFBD1C7F800A0104605
:10FC2000BDE8F08F100C0140000C014000060020E0
:10FC3000080C0140E802002040420F00001000E0E4
:10FC40002DE9F04FDFF810A44FF4804E4FF0000C78
:10FC5000CAF800E00AF104094FF40057C9F800702F
:10FC6000FE4D6A6813465B1EFDD1CAF8007013464C
:10FC70005B1EFDD1C30714BFCAF800E0C9F800E05D
:10FC8000C9F8007013465B1EFDD1CAF80070134618
:10FC90005B1EFDD10CEB00044FEA500C5FEACC7305
:10FCA00014BFCAF800E0C9F800E0C9F800701346B4
:10FCB0005B1EFDD1CAF8007013465B1EFDD1644483
:10FCC0004FEA900C5FEACC7314BFCAF800E0C9F8A1
:10FCD00000E0C9F8007013465B1EFDD1CAF8007041
:10FCE00013465B1EFDD164444FEAD00C5FEACC732F
:10FCF00014BFCAF800E0C9F800E0C9F80070134664
:10FD00005B1EFDD1CAF8007013465B1EFDD104EBEB
:10FD10000C03DB0714BFCAF800E0C9F800E0C9F81B
:10FD2000007013465B1EFDD1CAF8007013465B1EBF
:10FD3000FDD1C9F800E0C9F8007013465B1EFDD183
:10FD4000CAF8007013465B1EFDD1CAF800E0C9F87E
:10FD5000007013465B1EFDD1CAF8007013465B1E8F
:10FD6000FDD1BF4BD3F804C02CF0706CC3F804C0B5
:10FD7000D3F804C0C3F804C0CAF800E02C7FB4F183
:10FD8000000C0BD0C9F8007013465B1EFDD1CAF8F9
:10FD9000007013465B1EFDD1641EF3D1C9F80070DC
:10FDA00013465B1EFDD1DFF8BCB2DBF80030CAF8A9
:10FDB0000070C3F300331446641EFDD1C9F800700F
:10FDC0001446641EFDD1DBF80040CAF80070C4F38D
:10FDD00000341646761EFDD143EA4403C9F800708C
:10FDE0001446641EFDD1DBF80040CAF80070C4F36D
:10FDF000003415466D1EFDD143EA8408B8F1010FA9
:10FE000024D0B8F1020F18BFB8F1040F72D01CF162
:10FE100021010BD0C9F800701046401EFDD1CAF870
:10FE200000701046401EFDD1491EF3D18C48416838
:10FE300021F070614160416841F040714160C9F852
:10FE400000E0CAF800E04046BDE8F08F10F0020F75
:10FE500051D0002635464FF0200C00BFC9F8007085
:10FE600013465B1EFDD1DBF80030CAF80070C3F307
:10FE7000003413465B1EFDD17308254443EAC47663
:10FE8000BCF1010CEAD1BC46C9F80070734C1346B2
:10FE90005B1EFDD1DBF80030CAF800C0C3F30033AD
:10FEA000521EFDD185EA030212F0010F18BF4FF078
:10FEB0000808002918BF0E60257F002D18BF636851
:10FEC0000CD000BFC9F800C01A46521EFDD1CAF8B6
:10FED00000C01946491EFDD16D1EF3D160494A6824
:10FEE00022F070624A604A6842F040724A60C9F883
:10FEF00000E047E069E0BCF1000F0CD0C9F80070E9
:10FF000013465B1EFDD1CAF8007013465B1EFDD17F
:10FF1000BCF1010CF2D1524BD3F804C02CF0706C40
:10FF2000C3F804C0D3F804C04CF0407CC3F804C04C
:10FF3000F446C9F800E000240B682025D90714BF57
:10FF4000CAF800C0C9F800C0C9F800701146491EBF
:10FF5000FDD1CAF800701146491EFDD11C445B0852
:10FF60006D1EEBD1E10714BFCAF800C0C9F800C08C
:10FF70003B46C9F800701146491EFDD1CAF8003051
:10FF8000521EFDD110F0800F0AD037483749006863
:10FF9000B0FBF1F036494968B1FBF0F02F49C86079
:10FFA0002E48027C002A1CBFC9F800E0416851D0ED
:10FFB000C9F800700846401EFDD1CAF80070084616
:10FFC000401EFDD1521EF3D144E024494C7F002C49
:10FFD0001CBF10F0020F21230CD000BFC9F8007025
:10FFE0001146491EFDD1CAF800701146491EFDD1C7
:10FFF0005B1EF3D1BCF1000F0DD000BFC9F800703B
:020000040801F1
:100000001146491EFDD1CAF800701146491EFDD1A6
:10001000BCF1010CF2D112494B6823F070634B60C4
:100020004B6843F040734B60C9F800E094B110F0A6
:10003000020F04BFC9F800E021210BD1C9F80070FC
:100040001046401EFDD1CAF800701046401EFDD17A
:10005000491EF3D10EE00000100C01400006002004
:10006000000C0140080C0140E802002040420F0053
:10007000001000E0CAF800E04046BDE8F08F000044
:100080002DE9F001441E3CBFBDE8F00170474FF47C
:1000900080474FF400581348114DD0F804202E1F0C
:1000A00011F8013B4FF0080C13F0010F14BF37603B
:1000B0002F60C5F800801046401EFDD1C6F80080B4
:1000C0001046401EFDD15B08ACF1010C641E3CBF24
:1000D000BDE8F0017047BCF1000FE5D1E0E700009A
:1000E000140C0140000600200C490A680C49B0EBD2
:1000F000920F02D3012048700DE000EB5202521E15
:10010000B2FBF0F000234B70022803D90322B0FBAE
:10011000F2F000E00120486070470000E802002093
:10012000000600200B4A50680B4910F00C030B48E6
:1001300003D0042B01D0082B09D001605168084A74
:10014000C1F30311515C0268CA400260704705495F
:10015000F3E700000010024000127A00E8020020DD
:100160009899010800E6DF0C0D48016841F0010193
:10017000016041680B4A1140416001680A4A114020
:100180000160016821F480210160416821F4FE01D1
:1001900041604FF41F0181600449C003086070474B
:1001A000001002400000FFF8FFFFF6FE08ED00E03F
:1001B000BFF34F8F05480168054A01F4E061114320
:1001C0000160BFF34F8F00BFFDE700000CED00E0C2
:1001D0000400FA05044805490068B0FBF1F0044941
:1001E0004968B1FBF0F07047E802002040420F0080
:1001F000001000E0044805490068B0FBF1F0044934
:100200004968B1FBF0F07047E802002040420F005F
:10021000001000E0F0B50268144B154C154D4FF07E
:100220008047984205D0B84203D0A04201D0A842EE
:1002300003D122F070064A683243984205D0B84292
:1002400003D0A04201D0A84203D122F44074CA686E
:10025000224302608A68C2620A688262984201D1BF
:100260000969016301214161F0BD0000002C0140DA
:10027000000400400008004010B50123046A8B40D0
:100280009C430462036A8A401343036210BD00006A
:1002900030B5026A22F001020262026A4368846990
:1002A00024F073050C682C4322F002058A682A4367
:1002B0000A4DA8420BD122F00805CA6823F4407306
:1002C0002A434D6922F004021D438B692B4343608E
:1002D000846149684163026230BD0000002C014026
:1002E00030B5026A22F010020262026A4368846931
:1002F0000D6824F4E64444EA05248D6822F02002C7
:1003000042EA05120B4DA8420ED1CD6822F08002C0
:1003100042EA05124D6923F4406343EA85038D697F
:1003200022F0400243EA85034360846149688163A7
:10033000026230BD002C014030B5026A22F48072A6
:100340000262036A4268C46923F4007324F07305EF
:100350000C682C438D6843EA05230C4DA8420ED14E
:10036000CD6823F4006343EA05234D6922F440522B
:1003700042EA05128D6923F4806342EA0512426065
:10038000C4614968C163036230BD0000002C0140B4
:1003900030B5026A22F480520262046A4268C3697C
:1003A0000D6823F4E64343EA05238D6824F40054E2
:1003B00044EA0534064DA84204D14D6922F4804236
:1003C00042EA85124260C36149680164046230BD3B
:1003D000002C0140F0B501680A69C36822F440525C
:1003E0001A430A6102698168036811434269114333
:1003F000DA6841F20C64A2430A43DA6001684A6990
:10040000836922F440721A434A610468194B4068B8
:10041000642132229C424FEA800001D1164B00E059
:10042000164B6FF01807B3FBF0F5B5FBF1F5B3FB16
:10043000F0F67D4306EB8505B3FBF0F602EB051500
:10044000B5FBF1F5B6FBF1F605F0F00505EB061589
:10045000B3FBF0F6B3FBF0F0B0FBF1F0784306EB42
:10046000800002EB0010B0FBF1F000F00F00284418
:10047000A060F0BD003801400076DD4100BBEEA079
:1004800070B515480468154DA00612D52868C6B287
:10049000134802F01BFC132804D93146104802F01F
:1004A00079FC06E005D14FF013020EA10C4802F0D2
:1004B000C3FC200607D5104802F015FC20B10E48F9
:1004C00002F02CFC286070BD0448083001680B4A1B
:1004D0001140016070BD0000004400400444004031
:1004E000883000203C4441504C696E6B3A4F766531
:1004F00072666C6F773E0A00781C00207FFFFFEF6A
:100500001CB50020009001AA69460848FDF7ABFB26
:1005100040B10748DDE90012007840F0800002F0A9
:10052000FFF91CBD0349012008701CBD986700201D
:10053000CE990108EC05002038B5164D164C2888D8
:100540006188421A15486168007801F01FFE6168F1
:1005500080B201446160618801448AB26280298866
:100560008A4206D20F4B0E491B7831F81310814294
:100570000FD96B460C490D48FDF731FB002528B11A
:10058000207818B10020FFF7BBFF25706580064872
:10059000606038BDD4990108EC050020CF990108AE
:1005A000D09901086B050020E246002098670020E2
:1005B00010B50446400702D50020FFF7BDFF200715
:1005C00004D5BDE810400020FFF79ABF10BD002001
:1005D000704700000348D0E90410081A024909884E
:1005E000081A704728050020C499010870B50B4D02
:1005F0000C460346D5E90C0188420BD9401A8442C7
:1006000000DD044622461846FBF787FF686B20444E
:10061000686300E00024204670BD0000280500202B
:10062000002070472DE9F041194C0D460746D4E9EA
:100630000401401A17490988081A002802DC002022
:10064000BDE8F081854200DD0546D4E906020026BA
:1006500090420FD3104A431911448B420AD30E1A09
:10066000904632463946FBF758FF3744AD1B4046AB
:10067000C4F8188035B12A463946FBF74EFFA06909
:100680002844A0612169A81901442161D8E700002C
:1006900028050020C49901086246002010B5054CC9
:1006A0006068002805D10120606000F005F8002096
:1006B000606010BD280500202DE9F047234CA0689C
:1006C00000283DD0D4E90401421AE0684FF000064A
:1006D000104337D020461E4FDFF87880DFF878903F
:1006E0001E4DC1697AB1A069814205D338888B1843
:1006F0002844834200D3421A99F8003038F8130096
:10070000904200DA02461648E660007840F0800029
:1007100002F006F9E1690144E16162690244626143
:100720003B882B448B4200D1E561216991420BD17A
:1007300099F8002038F81210814205D10120E060BC
:10074000BDE8F087A660FBE7E660F9E72805002032
:10075000C4990108C89901086B0500206246002071
:10076000C299010810B50B4C206A18B1A06A401C50
:10077000A06210BD01202062606200F00DF8002030
:1007800060622062D4E90C018842F2D0401AFFF77F
:1007900047FF10BD2805002010B5134C1348164B19
:1007A000216B0A1A12481B780088821A114830F807
:1007B000130082420EDB1148007801F0E7FC216B48
:1007C00008442063A06A00280CD0616A002909D17E
:1007D000401E06E00120E062606A002802D0A06AA4
:1007E000401CA06210BD000028050020A246002089
:1007F000C6990108C89901086B050020C399010832
:1008000010B50446400702D52046FFF7ABFF20078E
:1008100004D52046BDE81040FFF740BF10BD70472B
:10082000002070470020704710B50B4800F03CF8DE
:10083000002810D0084A0948116801700B0A43705B
:100840000B0C8370090EC1701179017151794171DE
:1008500091798171012010BD600500206045002064
:100860000E4810B5002141608160C1600C4A0161F1
:10087000C0E90512C0E9072141620A4A8162C0E964
:100880000B124263018038304FF41652026001713E
:1008900041710821817100F015F810BD2805002074
:1008A00062460020A246002005490A6802600A79D3
:1008B00082714A7942718979017101207047000083
:1008C000F805002010B507F07BF903F0AFFF012019
:1008D00010BD10B507F0BEF9012010BD10B507F02E
:1008E00061FA012010BD0000064902680A608279A1
:1008F0000A7142794A71007988710020C8710846EE
:1009000007F0BAB9F805002010B5104800241049C6
:1009100044608460C4600461C0E90541C0E9071413
:1009200044620C498462C0E90B4141630480FFF7D3
:10093000D0FF06484FF416513830016004714471FD
:1009400008218171FFF7D0FF10BD000028050020AD
:1009500062460020A246002010B5FFF7D5FF10BD6B
:1009600070B51948007800282DD0184C00250126B4
:10097000206A50B9D4E90C10814206D11448814252
:1009800003D02063E56225626063A06A70B1206ACB
:1009900060B9E06A50B92662FFF7FEFE2562D4E92D
:1009A0000C01884202D0401AFFF73AFED4E9010157
:1009B000084308D1D4E90401884204D06660A660E7
:1009C000FFF77AFE656070BD6905002028050020EC
:1009D000A246002070B505460D480068C0698047F2
:1009E000A0B90C4C35B104F09DF82060002006F051
:1009F000E5FE0BE004F096F82168401AB0F5967F0A
:100A000001D3012000E0002003F018FF012070BD99
:100A100084940108F40500200020704700207047EE
:100A2000024910B50880FFF759FF10BD28050020C6
:100A30000A4810B58278018862F31F41C27841EA02
:100A4000026207490A6002790A7142794A71807923
:100A500088710846FFF748FF10BD00006045002080
:100A60006005002000B50346FDF732F943F230017E
:100A700018465DF804EBFDF73FB90000F0B5837848
:100A8000204A03F00F041E0657688188158803F07A
:100A90000F0307EB031304D5491C21F001011D606E
:100AA00011E09D603E2909D91F3121F01F014FF04F
:100AB000FF3505EB411545F4004503E0491C21F0E5
:100AC00001014D02DD6013880B441380C07810F0E3
:100AD000030006D0012807D0022808D003280AD135
:100AE00007E04FF4007106E04FF4806103E000215D
:100AF00001E04FF4C061044A214302EB8400C0F8D6
:100B0000001CF0BD9C04002000500040002802D1D1
:100B10000149D020088070479C04002000F0CABA28
:100B20000949CA1350B101200860002008600B1D5C
:100B300018604FF4E0500860044803E003200860A8
:100B40000248001D02607047405C004010080140F0
:100B500010B50B4C0B49A0880A78904200D8024689
:100B60001AB907490020143908718020216801F062
:100B7000D7FE216801442160A188081AA08010BD19
:100B80007C050020AB99010810B5064C0020A28816
:100B9000216801F0FBFA216801442160A188081A4C
:100BA000A08010BD7C05002070470021FDF7A4B88F
:100BB00043F22001FDF7A0B82DE9F0476F4C07463E
:100BC00080074FF00009A4F10805A4F11C0623D505
:100BD00001F070FE2078C009FFF7E6FFE088A880EA
:100BE0002078C0F3411121B101295CD0022971D1D3
:100BF00067E06178DFF888810C296BD2DFE801F0CB
:100C0000060D6A156A1A296A2D333A4801F0EAFB83
:100C100021E000BFFFF79CFF68E0002006E000BF76
:100C200001F058FED8F8000039E0012001F018FC6E
:100C3000C0B3F5E710F01F0F4CD1A078012140F0B0
:100C40008000307000F07F0001F026FE01F042FECF
:100C50004CE001F0C7FA28B3DCE710F01F0F39D1E0
:100C600046481B3812E001F04BFCD8B101F032FECF
:100C7000444813E000F01F0001282BD1707888B1A0
:100C80002079B178884225D23F4908442860C1E7DD
:100C900001F000FD30B101F01DFE3C48006828B3B2
:100CA000804723E016E010F01F0013D0012811D177
:100CB00000F004F9D0B900F05DF9B8B900F0AEF871
:100CC00007E010F01F0F05D100F082F970B900F0B5
:100CD000C3F958B92078000603D4E08808B1002091
:100CE00000E0802001F0E2FDA5F80490780721D50E
:100CF000207800061CD4A888E0B1FFF745FFA8883B
:100D0000C0B92078C0F3411161B101290AD110F0B6
:100D10001F0007D0012805D100F062F850B900F09B
:100D200037F838B9802001F0C1FDA5F8049001E042
:100D300001F0D6FD380712D52078000606D5A88820
:100D4000317908430BD0FFF703FF08E03078010644
:100D500005D500F07F003070002101F09DFD780680
:100D600002D50020FFF77EFE380604D5BDE8F04727
:100D70008020FFF777BEBDE8F087000084050020E3
:100D8000349A01082C9A01088B040020309A01083B
:100D900010B51048104A01791278914203D00F4AD9
:100DA0001278914214D1417821B1022905D020292D
:100DB0000ED10AE0FFF730FE02E04088FFF72EFE7A
:100DC00030B101F087FD012010BDFFF731FEF7E7DC
:100DD000002010BD84050020FC020020FD02002040
:100DE00010B50B480B4A01791278914203D00A4A98
:100DF0001278914209D14078092806D100F008FB09
:100E000018B101F067FD012010BD002010BD0000E9
:100E100084050020000300200203002070B5224951
:100E2000224A08791278904203D0214A12789042DF
:100E300038D11D4849781F4C1F4D408804291FD0C8
:100E400007DC79B101290FD002290BD0032929D160
:100E500011E0202906D021291AD022291BD02329CC
:100E600020D11BE02C6011E0FFF7DCFC05E02C60DA
:100E7000FFF76EFE0AE0FFF7D3FC0028F7D111E080
:100E8000FFF7A5FB0CE000BF01F024FD012070BDC1
:100E9000FFF7CAFCF1E7FFF7C3FD01E0FFF79AFD9A
:100EA0000028F1D1002070BD84050020FC02002044
:100EB000FD020020604500207C0500202DE9F04166
:100EC000244C254920790978884203D023490978A0
:100ED00088423DD16078224D224E234F0C2837D2D4
:100EE000DFE800F03606212D363636363616243247
:100EF00000F0AEF960B3E078012802D0032803D0F7
:100F000003E01A48286000E02E60FFF721FE13E09E
:100F1000E078022802D0032803D00DE014482860AE
:100F20000AE02E6008E000F07BF90AE000F04AFADF
:100F30000CE000BF01F0CEFC0120BDE8F08100F024
:100F40007DF928B12F60E0E700F058FA0028F1D1D0
:100F50000020F2E7840500200003002002030020A7
:100F60007C0500209804002060450020A145002059
:100F7000E245002010B51248124A017912789142D8
:100F80001CD1014642784888C988FE2A09D0FF2A28
:100F900014D198B991B901F049F878B101F09AFCEF
:100FA0000AE058B9012909D100F058FD30B10749CC
:100FB00005480860FFF7CCFD012010BD002010BDE2
:100FC0008405002001030020604500207C050020EE
:100FD00070B51B4D1B4900266878097888422CD1D2
:100FE000A888022829D1184CA97811B3002003E061
:100FF000227802B11444401C421C9142F8D8207857
:10100000B0B103F0EDF90146E01CFBF77AFA0F49A5
:1010100001260C602078EA8882420BD988800C492E
:101020000978491E084206D10A490120087002E0E9
:10103000002602E08A80FFF78BFD304670BD00007D
:1010400084050020CC990108580400207C0500206C
:10105000AB9901086C05002010B5104A1049002416
:1010600050780978884217D19088072814D10E4803
:101070000C49012401600989D2888A4209D98180FA
:101080000A480078401E014204D109490120087035
:1010900000E08280FFF75CFD204610BD8405002043
:1010A000CD990108080300207C050020AB990108B8
:1010B0006C050020074800214170C1600161416159
:1010C000418081808161C161C18001810162418172
:1010D000704700008C0500202DE9F047494CA0889E
:1010E00061884A4DDFF820816F1C0026884216D3A4
:1010F000A069A0B96661A680012329786A1C1846F8
:1011000007F018F96080608848B1656198F80000C0
:10111000012801D8676102E06088401C6080608817
:101120004FF00109B0BBE06808B1E66032E0206929
:1011300080B398F8001001290DD82E70A6800223E4
:101140006A1C0021012007F0F5F86080608800B17A
:10115000676126611EE02F78C846202F00D3002744
:1011600008FA07F1014218D0781CC1B22970A68094
:1011700002236A1C012007F0DDF86080608818B146
:1011800065616088401C6080206908FA07F820EAE1
:1011900008002061608830B902E07F1CFFB2DCE704
:1011A000A069002829D06088A188DFF86880401AEB
:1011B00085B2174F98F8000037F81000A84200D207
:1011C00005461548007828B140F080002A4661693C
:1011D00001F0A6FB6069114928446061A088284499
:1011E00080B2A0800988884209D298F8000037F8B8
:1011F0001000A84203D1C4F81890BDE8F087A6619A
:10120000FBE700008C050020B6990108A0450020EE
:10121000B29901086B050020AC990108B899010842
:10122000034804498078085C03490870012070472E
:1012300084050020960400206045002010B507F0CA
:1012400077F802490870012010BD000060450020B9
:101250000B4910B5C8780022012804D0022804D018
:10126000032806D103E0074A02E0002010BD064A29
:10127000521C8978002307F05DF8012010BD0000A2
:1012800084050020A0450020970400202DE9F05F90
:101290004348007800287DD0424804230025027886
:1012A000A946511C017040490C7804EB440B03FA29
:1012B0000BF35B1E9A4202DB80F8009001253B494C
:1012C00000220B88FF2B01D25B1C0B80384B374967
:1012D00033F814A009888A4500D10122354B86468F
:1012E000002100699EF8006093F800C03FE00027ED
:1012F00065B1314B5C5CFF2C01D2641C5C542F4CFB
:10130000645C1CB15B5CA34200D301272B4B4FF004
:10131000020808FA0BF85B5C03FA08F4544502DA99
:101320000BB1012400E0002432B12CB14FF00108D0
:1013300008FA01F848EA0000DFF8848018F8018014
:1013400043450AD01C4B5B5C434503D301238B40D0
:1013500018430026194B03F8018037B114B9012353
:101360008B401843144B03F80190491CC9B26145E6
:10137000BDD3CEF8100071468EF8006012B10B4A52
:10138000A2F80090002808D04888002805D1BDE8C0
:10139000F05F00E001E0FFF79FBEBDE8F09F0000B6
:1013A000690500208C0500206B05002092040020B8
:1013B000AE990108B6990108940400209504002014
:1013C00096040020094809498078C97810B1084A74
:1013D000815409E0084A0020064B127802E01954B3
:1013E000401CC0B29042FAD301207047840500200F
:1013F0009504002096040020B6990108034810B512
:10140000807807F027F8012010BD00008405002037
:101410000C4908B5C8780022012804D0022804D05D
:10142000032806D103E0002008BD074A00E0074A70
:10143000521C00230093CB88897807F00DF8012017
:1014400008BD000084050020E1450020970400202D
:101450002DE9F041EFF3108072B6354D00212C6973
:1014600080F310882961600507D501F0ABF907F01A
:101470009DF83048006800B18047200505D501F08F
:1014800039FA2D48006800B18047E00405D501F025
:101490003DFA2A48006800B18047A00503D52848D6
:1014A000006800B18047274E600403D5316809B158
:1014B00002208847DFF89080A00426D5316821B348
:1014C000012021E0EFF3108072B620490B2351F880
:1014D0002210521CB2FBF3F603FB162280F3108895
:1014E0000F0C8EB2AA60380604D558F8261009B140
:1014F00008208847380408D558F8261029B138053F
:1015000001D5022000E00420884720040DD5EFF328
:10151000108072B6D5E902218A4201D1012100E092
:10152000002180F310880029CCD0BDE8F0810000B4
:101530009C040020D8990108DC990108E099010871
:10154000E4990108E8990108EC9901082447002072
:101550000A4810B541680A4A114041604168094A89
:1015600011434160C16941F40001C161142001F0DF
:101570005FFA05494FF40040086010BD00100240BA
:10158000FFFF3F7F000080801408014070B500F02D
:1015900005F900281CD00F4802220F4D027042703E
:1015A0000E4C03202A632870A068022803D9A4F1F6
:1015B0001F008260A2600A480649007840F080005F
:1015C00001F0AEF9A068296B401AA06001202073D9
:1015D00070BD000022460020B0050020B34D002061
:1015E000BA990108114810B50178022908D00329D9
:1015F00010D0042912D0052901D10021017010BD9D
:101600000B48C07B282801D0A828F8D1BDE810409D
:1016100000F068BABDE8104000F040BD0548007811
:1016200040F0800000F052FDF4E70000B00500201B
:10163000944D0020BA990108204910B50A786AB380
:10164000012A0ED01E48052A00781BD0072A2BD06D
:1016500000F03CFD1B4902200873BDE8104000F07B
:101660001DBD18481F38C07B2A2803D02F2805D05D
:10167000AA2822D1BDE8104000F008BBBDE8104008
:1016800000F09ABA012181400F480068014201D060
:10169000012000E0002040F23F4200E009E0BDE808
:1016A00010400AA101F07EBA00200870086B1F28C4
:1016B00003D1BDE8104000F0D5B810BDB005002042
:1016C000BB990108B34D0020740500202E2E5C2E1E
:1016D0002E5C2E2E5C736F757263655C7573625C35
:1016E0006D73635C757362645F6D73632E6300007A
:1016F000104810B54168C16009B1012010BD0E4904
:1017000001F11F048A687AB1097B090604D50B48E8
:10171000007840F0800005E0A168006B814203D0B2
:101720000748007800F0D2FC0120207300F0B6FCDE
:10173000002010BDB0050020944D0020BA9901088A
:10174000BB9901081048007900F08F02100605D5FA
:1017500002F00F004FF48031814001E001219140FF
:101760000A48007840F0800090420CD1084A126884
:101770000A4208D00749084A0968914203D10D225C
:10178000044901F0CDB8704784050020BA990108DA
:1017900074050020B34D00205553425370B50A48DC
:1017A000022400F11F05816831B1007B000608D4D6
:1017B0000648007800F08AFC2C7300F06FFC0020D3
:1017C00070BD012070BD0000944D0020BB99010840
:1017D00010B50E480E4C8068216B884202D82063F9
:1017E000032000E0042020700A480B49226B007897
:1017F00040F0800001F094F80448226B1F308168AB
:10180000891A81600021017310BD0000944D0020F1
:10181000B0050020BA99010822460020064810B5FC
:10182000028807480549007800F0B0FC05490863C4
:10183000BDE81040FFF700BFC09901082246002014
:10184000BB990108B005002010B50446400702D539
:101850000020FFF7E3FF200703D5BDE81040FFF7A6
:10186000C1BE10BD2DE9F047754E764C316B1F2976
:1018700002D20A46002005E01F220020724B1B5CAA
:101880002354401C9042F9D3714FDFF8C0A14FF0B0
:10189000010838781F2940F080007CD121686D4A0A
:1018A000914278D1674D61681F356960A168A96070
:1018B000617B19B9A17B09B1102902D985F80C8087
:1018C0008CE0E17B4FF002092A293ED022DC1A2964
:1018D00050D00FDC0429F1D006DCE9B30329EDD1A7
:1018E000BDE8F04700F060BB1229E7D1BDE8F04742
:1018F00000F0BCB8232945D007DC1B2936D01E29AF
:10190000DCD1BDE8F04700F0DFB825293ED028291A
:10191000D4D149E09E2943D00FDC5529CED004DC38
:101920002F2956D03529C9D103E05A2926D091292B
:10193000C4D1BDE8F04700F0F9BBA1292AD0A32902
:1019400060D0A82930D0AA29B8D100F079FA0028AF
:1019500006D0207B000600E004E04FD486F800802B
:10196000BDE8F087BDE8F04700F0E8BBBDE8F04710
:1019700000F0C2BBBDE8F04700F03ABABDE8F0475E
:1019800000F00ABABDE8F04700F0D8BABDE8F04769
:1019900000F0ACBA00E038E0BDE8F047FFF7F6BD74
:1019A000BDE8F04700F054BB00F04AFA0028D7D059
:1019B000207B000605D586F80090BDE8F04700F0D2
:1019C00091B89AF8000000BF00F080FB85F80C90F9
:1019D00004E0207C800705D400202873BDE8F04790
:1019E00000F05CBB00F02CFA0028B9D0207B000688
:1019F00004D486F80080C6F82080B1E7387840F03B
:101A00008000E1E700F062FB58E700F05FFB387808
:101A1000114C00F00F014FF480308840216855468A
:101A2000084320609AF8000000F050FB297808FA7B
:101A300001F02168084320600620307090E7000024
:101A4000B0050020944D002022460020BB990108DB
:101A5000BA990108555342437805002002490020F5
:101A600008700120704700006045002010B5FFF7A6
:101A700095FE002820D0114800218022017042707C
:101A800002228270C2702023037141718171C17181
:101A90000B490A680821147814B14454521C00E020
:101AA0004354491CC9B22429F5D3064924200863AC
:101AB000BDE81040FFF78CBE10BD0000224600209C
:101AC00054040020B00500200548C07CC10704482C
