:040000050800C0ED42
:020000040800F2
:10C00000A887002025C3000853C300086FE6000876
:10C0100057C3000859C300085BC3000866C1FAAFE4
:10C020008F9E939B089996970201000039C20008E1
:10C030005FC3000854820108C1C2000811C3000890
:10C0400065C3000865C3000865C3000865C3000830
:10C0500065C3000865C3000865C3000865C3000820
:10C0600065C3000865C3000865C3000865C3000810
:10C0700065C3000865C3000865C3000865C3000800
:10C0800065C3000865C3000865C3000865C30008F0
:10C090007518010865C3000865C3000865C300087A
:10C0A00065C3000865C3000865C3000865C30008D0
:10C0B00065C3000865C3000865C3000865C30008C0
:10C0C00065C3000865C3000865C3000865C30008B0
:10C0D00065C3000865C3000871F3000865C3000864
:10C0E00065C3000865C3000865C3000800F002F8D6
:10C0F00000F05AF80AA090E8000C82448344AAF1A8
:10C100000107DA4501D100F04FF8AFF2090EBAE8A5
:10C110000F0013F0010F18BFFB1A43F0010318477B
:10C12000C0D70000E0D700000A444FF0000C10F820
:10C13000013B13F0070408BF10F8014B1D1108BFA5
:10C1400010F8015B641E05D010F8016B641E01F845
:10C15000016BF9D113F0080F1EBF10F8014BAD1C95
:10C160000C1B09D16D1E58BF01F801CBFAD505E0B3
:10C1700014F8016B01F8016B6D1EF9D59142D6D30D
:10C18000704700000023002400250026103A28BF35
:10C1900078C1FBD8520728BF30C148BF0B60704739
:10C1A0001FB51FBD10B510BD00F001FB114603B453
:10C1B00005F07EFC03BCFFF7F3FF07F091FA00F0F7
:10C1C0001BFB03B4FFF7EEFF03BC00F01FFB0000F6
:10C1D00080F309887047EFF309807047684680F361
:10C1E000098804480078C00714BF0220032080F3A8
:10C1F00014887047148B0108DFF818C0EFF305832B
:10C200001B0618BF6047EFF31483DB0708BF6047C6
:10C2100000DF704739470108DFF818C0EFF30583E6
:10C220001B0618BF6047EFF31483DB0708BF6047A6
:10C2300000DF704745490108EFF30980816911F873
:10C24000021C39BB90E80F10E047EFF3098C194B43
:10C2500093E80600914218D059B10CB44FF0010395
:10C2600081F821302CE9F00FC1F824C008F002FE5B
:10C270000CBC1A60D2F824C0BCE8F00F92F8213050
:10C280008CF309881BB192F82000CCF800006FF005
:10C29000020E704710B5084A1268914209D8074C3F
:10C2A00054F8214090E80F10A047EFF3098C8CE878
:10C2B0000F0010BDC40400201CC800081CC80008E2
:10C2C00008F0C2FC114B93E8060091421BD00CB45D
:10C2D0004FF0000381F82130EFF3098C2CE9F00FC7
:10C2E000C1F824C008F0C6FD0CBC1A60D2F824C006
:10C2F000BCE8F00F8CF3098892F821301BB192F85A
:10C300002030CCF800306FF0020E7047C4040020DB
:10C3100008F074FED6E7000007F05AFC08F06EFE45
:10C32000D0E7000013484FF001010160124A134B9F
:10C330001360134B1360134B1360134B9361134C37
:10C340004FF0A53525604FF0000111488047114896
:10C350000047FEE7FEE7FEE7FEE7FEE7FEE7FEE753
:10C36000FEE7FEE7FEE700000B480C490C4A0D4BC8
:10C3700070470000F0100240006C0140863AD9A7D7
:10C38000CDDF12AB2635EDCDFF8301208C2202409C
:10C3900079F00008EDC00008A8810020A8870020DF
:10C3A000A8830020A883002000487047488100200F
:10C3B000B2F120030AD5C2F1200320FA02F001FAFB
:10C3C00003F321FA02F140EA0300704721FA03F077
:10C3D0004FF00001704740EA010310B59B070FD1F1
:10C3E000042A0DD310C808C9121F9C42F8D020BAE5
:10C3F00019BA884201D9012010BD4FF0FF3010BD9D
:10C400001AB1D30703D0521C07E0002010BD10F86A
:10C41000013B11F8014B1B1B07D110F8013B11F830
:10C42000014B1B1B01D1921EF1D1184610BD10B556
:10C43000431C02E010F8011B71B18107FAD14FF0E3
:10C44000013202C88C1A8C4314EAC211F9D0C01A06
:10C450000A0603D0C01E10BDC01A10BD0A0401D0C8
:10C46000801E10BD0902FCD0401E10BD40EA010331
:10C4700070B59B072ED14FF00136042A2AD308C885
:10C4800010C99D1B9D43121F15EAC61517D0D8B2BF
:10C49000E1B2401A50EA056110D198B2A1B2401A37
:10C4A00050EA05410AD123F07F4024F07F41401A31
:10C4B00050EA052102D1180EA0EB146070BDA34212
:10C4C000DBD018BA21BA884201D9012070BD4FF0E3
:10C4D000FF3070BD0AB9002070BD10F8013B11F8A3
:10C4E000014B63B1A3420AD1521E08D010F8013BA0
:10C4F00011F8014B1BB1A34201D1521EEDD1181B03
:10C5000070BD421E12F8013F002BFBD111F8013B18
:10C51000002B02F8013BF9D17047032A40F230802A
:10C5200010F0030C00F0158011F8013BBCF1020F74
:10C53000624498BF11F801CB00F8013B38BF11F8F5
:10C54000013BA2F1040298BF00F801CB38BF00F80C
:10C55000013B11F0030300F06780083AC0F0088047
:10C5600051F8043B083A51F804CBA0E80810F5E76D
:10C57000121D5CBF51F8043B40F8043BAFF3008050
:10C58000D20724BF11F8013B11F801CB48BF11F8C5
:10C59000012B24BF00F8013B00F801CB48BF00F895
:10C5A000012B7047431A28BF9A427FF6B6AF032A81
:10C5B0001044114440F2268010F0030F1EBF11F802
:10C5C000013D521E00F8013D10F0030F7FF4F6AF5D
:10C5D00011F0030300F0C180083AC0F00B8051F85D
:10C5E000043D083A51F804CD40F8043D40F804CD2C
:10C5F000FFF7F3BF121D5CBF51F8043D40F8043D46
:10C60000AFF30080D20724BF11F8013D11F801CD2E
:10C6100048BF11F8012C24BF00F8013D00F801CDFE
:10C6200048BF00F8012C704710B5203AC0F00B80CD
:10C63000B1E81850203AA0E81850B1E81850A0E826
:10C640001850BFF4F5AF5FEA027C24BFB1E8185080
:10C65000A0E8185044BF18C918C0BDE810405FEAF0
:10C66000827C24BF51F8043B40F8043B08BF70476C
:10C67000D20728BF31F8023B48BF11F8012B28BF71
:10C6800020F8023B48BF00F8012B704702F0FF037F
:10C6900043EA032242EA024200F002B84FF00002ED
:10C6A0000429C0F0128010F0030C00F01B80CCF1C4
:10C6B000040CBCF1020F18BF00F8012BA8BF20F832
:10C6C000022BA1EB0C0100F00DB85FEAC17C24BF86
:10C6D00000F8012B00F8012B48BF00F8012B704730
:10C6E0004FF0000200B5134694469646203922BF0B
:10C6F000A0E80C50A0E80C50B1F12001BFF4F7AF56
:10C70000090728BFA0E80C5048BF0CC05DF804EB37
:10C71000890028BF40F8042B08BF704748BF20F8A5
:10C72000022B11F0804F18BF00F8012B70477047A3
:10C7300070477047431A28BF9A427FF675AF10447E
:10C7400010F0030F11441EBF11F8013D521E00F8F6
:10C75000013D10F0030F7FF4F6AF103AC0F00A80ED
:10C7600010B531E91850103A20E91850BFF4F9AF6C
:10C77000BDE81040530724BF31E9081020E9081034
:10C7800044BF51F8043D40F8043D12F0030F08BFC8
:10C790007047D20728BF31F8023D48BF11F8012C7D
:10C7A00028BF20F8023D48BF00F8012C70477546AD
:10C7B000FFF7FAFDAE4605006946534620F0070034
:10C7C000854618B020B5FFF7CFFDBDE820404FF0FB
:10C7D00000064FF000074FF000084FF0000B21F06B
:10C7E0000701AC46ACE8C009ACE8C009ACE8C00938
:10C7F000ACE8C0098D46704710B50446AFF3008021
:10C800002046BDE81040FFF7DCBC000001491820BD
:10C81000ABBEFEE7260002007047000000000000EB
:10C820002DE9F84F1E4D8246012090468B464FF071
:10C830000009C5F8F0001C4C1A4820601B48206015
:10C840001B482060184E1836306800901948306038
:10C85000194F4FF0A530C7F88C0218480123002269
:10C86000D0F80CC04146584607F52377E047686882
:10C8700020F4403040EA0A00686000983060C5F853
:10C88000F0900848C04320600848C0432060084832
:10C89000C04320604FF05A3038600120BDE8F88F67
:10C8A00000100240863AD9A7006C0140CDDF12ABE0
:10C8B0002635EDCDFF8301200020024000D0FF1F70
:10C8C0002DE9F04102787F2A03D0BDE8F04100F065
:10C8D0007DB801F8012B10F8015F01F8015B461CDF
:10C8E0000C464FF0021708E02146304600F06EF883
:10C8F000074406EB104680B204446D1EF4D238465D
:10C90000BDE8F08170B5002402460B462046092A96
:10C910003FD00ADC2B49092A086951D2DFE802F02E
:10C92000505050151920262C2F004021FC2A47D0AA
:10C9300004DCF02A33D0F12A42D132E0FD2A3FD084
:10C94000FE2A3AD0FF2A3BD133E01C4606F016FD02
:10C9500022E0062422461C491846FFF7DEFD2FE0A0
:10C96000A8B1D0F8A41104E018460CE078B1D0F8D2
:10C97000A8110029F8D10AE01846C96F02E0D1F8E1
:10C980008010184619B107F0BDFE044618E00024D7
:10C9900016E00C4606F0FAFC01462046F3E731208B
:10C9A0000CE01970422159700F219970D87004243D
:10C9B00006E019705870022402E064201870012407
:10C9C000204670BD54820108D88201082DE9F84F35
:10C9D0000278A2F180031F2B03D800F04FF9BDE8C5
:10C9E000F88FA2F1A0035E2B02D800F0E3F9F6E77E
:10C9F00001F8012B0C4610F801CBDFF864920027F8
:10CA00000125DFF85CA2FF21964B974ADFF85CB264
:10CA1000A9F110094FF00116BCF11E0F72D2DFE828
:10CA20000CF00F172950C4CDE771F6627271717165
:10CA30007171767A8B9BA8BFC2717171717171A48B
:10CA40000078611CFFF75EFF207000F10210C6E75E
:10CA5000027822B1012A53D021701846EAE04078CA
:10CA6000C1074FF4006001D0514601E07C49091D27
:10CA7000086045E007782FB1012F04D00027277008
:10CA80003046D7E00127A84615700D21484607F02B
:10CA9000AFFA4FF400505546CAF800000E21484640
:10CAA00007F0A6FA4FF48040286001220C21484686
:10CAB00007F04CFA0021484607F0CCFAC5F8008090
:10CAC000DDE7177000220D214E46484607F03EFA7A
:10CAD00000220E21304607F039FA00220C213046A0
:10CAE00007F034FA23E001886148624A0068B0FB2D
:10CAF000F2F00322801CB0FBF2F04843401EFDD14F
:10CB00002770AAE7A8E067702770022092E021460C
:10CB100000F062FC8EE085780388C07865F31F43DF
:10CB2000554D53EA006005D0906002F065FA277019
:10CB300028467FE02170FBE710F8015B0DB94FF448
:10CB400080750146284602F023FAED1D2770E8089B
:10CB5000000400F101106DE0007800F00301491CB1
:10CB60001177C0F38000507789E7214600F072F911
:10CB700060E0217001210C4610F8013B0BE000BF82
:10CB800010F8012B12F03F0200D14022D21DD20832
:10CB900011441044491C5B1EF2D244EA014049E0B2
:10CBA00000782170D4E721706AE701781174B0F839
:10CBB00001109182B0F80300D0824BE01278214638
:10CBC000012A12D0421C12F8013B43B112F8014B6A
:10CBD000A50701D5E40600D5121D5B1EF6D1101A7B
:10CBE0000F7000044F70801C24E000F07BF921E0FE
:10CBF00005461078214601280AD00F704F70A770A3
:10CC00000321E878800708D541F4802012E00CE089
:10CC1000284600F049FB0146F3E7B5F801004FF460
:10CC2000802202EB8040084304E01278012A04D0FD
:10CC30002170584600F10110D1E6C278B0F8011019
:10CC4000007962F31F4141EA0060009069460020CC
:10CC500001F022FE2770ECE704F8011C3046BEE626
:10CC6000100C014001000200000600200100050038
:10CC7000E802002040420F00010004002DE9FC47BB
:10CC8000027801F8012B0D4610F8011B4FF001143A
:10CC900006460020670080394FF0010804F10109C1
:10CCA0000E2978D2DFE801F007141F2E3C77777742
:10CCB00047576165697A06F061FB0646FFF7B7FBE7
:10CCC000C4B22C70681C22463146FFF726FC23E0D4
:10CCD0000724684602F060FD224669462846FFF7B1
:10CCE0001CFC324C57E0684602F056FD306800905C
:10CCF000684602F071FD002002F0E4FD85F8008036
:10CD00002B4C48E03E21681C09F032FF040002D0A1
:10CD1000012006F0FBFC2C7004F58034A41C3AE0E2
:10CD20003778701C394609F0E9FF012006F0EEFC67
:10CD300085F800802BE085F80080317811B1012959
:10CD400002D005E0002000E0012006F055FE00E0E2
:10CD500028703C461FE085F8008005F025F810B9E2
:10CD6000022009F0A7FC4C4615E0307808F032FCB0
:10CD7000EEE708F0FDFB2870F5E716F8017B0120CF
:10CD800006F0D4FC3946304608F0C6FC287004EBA7
:10CD9000074404F101142046BDE8FC872870307870
:10CDA00000B1012006F03CF8D3E7000009000100C3
:10CDB00002000500FF2008704FF0011070470000CE
:10CDC00038B52248816941F004018161816901F02F
:10CDD00004010091816941F008018161816901F0DC
:10CDE00008010091816941F010018161816901F0C0
:10CDF00010010091816941F0200181618069144D29
:10CE000000F0200000900D21284607F0F1F8104CAA
:10CE10006814103420600E21284607F0E9F84FF41A
:10CE20008040206001220C21284607F08FF8002165
:10CE3000284607F00FF9012020600B21284607F053
:10CE4000D7F8E014211D086038BD00000010024032
:10CE5000000C01402DE9F05F002201F8012B0125B3
:10CE600010F8016B8A46A94604464FF4804B31E026
:10CE700014F8017B17F03F0000D14020C01D4FEA9D
:10CE8000D008380608D500220E21154807F05EF8B4
:10CE900013495846103106E00E21114807F0A8F852
:10CEA0000F4958461431086052462146384601F071
:10CEB00083FC3EB90E210A4807F09AF8084914315C
:10CEC000C1F800B0380602D5C244C14401E0444470
:10CED00045446D1C761ECBD249EA0540BDE8F09F63
:10CEE000000C01402DE9F04F87B08B4601F102089C
:10CEF00004460590EA490020029008700190667887
:10CF0000A41C8146002E75D0DFF898A314F8015BAD
:10CF1000A90770D5B9F1000F50D0BAF8147005F018
:10CF2000110001280AD0DFF8789369460E2001F03D
:10CF3000B3FC022812D04FF0000905E069462846EC
:10CF400001F0AAFC022802D0012806D10FE07F1EC2
:10CF500003D3D34909780029F0D04FE17F1E03D3D2
:10CF600099F800100029E0D04FF0000946E100993F
:10CF700088F80010009A08F10101120A01F8012B4B
:10CF8000009A120C01F8012B009A120E01F8012BE5
:10CF90008846B9F1000F11D029060FD5DAF80C2018
:10CFA00008F1010188F80020130A01F8013B130C75
:10CFB00001F8013B120E01F8012B8846E90651D514
:10CFC000A17834F8030B61F31F4014F8011B40EA09
:10CFD00001600490BAF816000390E80714D0BAF87C
:10CFE00014700021284601F057FC022804D00128C3
:10CFF000B3D109E022E197E07F1E791CADD0A849AA
:10D0000009780029EDD0F9E0BAF81470694628468D
:10D0100001F042FC022802D0012817D106E07F1E51
:10D0200014D39F4909780029F0D00FE0DAF81810DE
:10D03000009A1140049A914208D00399491E039125
:10D04000491C03D0964909780029DDD0DAF8181078
:10D05000009A1140049A914201D040F0100001283A
:10D0600016D15FE0BAF81470E90727D0B9F1000FC4
:10D0700058D10021284601F00FFC022802D00128D7
:10D0800006D106E07F1E03D3854909780029F0D038
:10D09000B4E029060FD5DAF80C2008F1010188F870
:10D0A0000020130A01F8013B130C01F8013B120E9A
:10D0B00001F8012B88464FF0010933E06946284604
:10D0C00001F0EAFB022802D0012806D106E07F1E0B
:10D0D00003D3734909780029F0D08FE029060FD5D2
:10D0E000DAF80C2008F1010188F80020130A01F891
:10D0F000013B130C01F8013B120E01F8012B88468D
:10D10000009988F80010009A08F10101120A01F84C
:10D11000012B009A120C01F8012B009A120E01F853
:10D12000012B884600215EE0B9F1000F25D0BAF846
:10D13000147069460E2001F0AFFB022802D00128CE
:10D140005CD106E07F1E59D3554909780029F0D0FB
:10D1500054E0009888F80000009908F10100090ADD
:10D1600000F8011B00994FF00009090C00F8011BA1
:10D170000099090E00F8011B8046A17834F8030BD2
:10D1800061F31F4014F8011B40EA01600090A906FA
:10D1900003D5CAF81800012026E0BAF814706946D1
:10D1A000284601F079FB022802D0012826D107E0A9
:10D1B0007F1E791C22D03A4909780029EFD01DE062
:10D1C00029060FD5DAF80C2008F1010188F80020B3
:10D1D000130A01F8013B130C01F8013B120E01F890
:10D1E000012B8846012101910299491C02912C4989
:10D1F000097819B9761E7FF489AE09E046B114F8B2
:10D20000011B8A0701D5C90600D5241D761EF5E746
:10D21000012837D1B9F1000F24D0BAF81450204EAC
:10D2200069460E2001F038FB022802D0012829D1DE
:10D2300005E06D1E26D331780029F1D022E0009957
:10D2400088F80010009A08F10101120A01F8012B78
:10D25000009A120C01F8012B009A120E01F8012B12
:10D2600088460FE0019969B1BAF814500C4E0021BC
:10D270000E2001F011FB022804D16D1E02D331787B
:10D280000029F4D002998BF800108BF80100059862
:10D29000A8EB0B01201A07B041EA0040BDE8F08F6F
:10D2A00000000020000600202DE9F84FDFF8208163
:10D2B0000027044638460D4601F1030A88F800703D
:10D2C000B4F80160E41C002E79D014F8019BDFF85B
:10D2D00004B15FEA897160D55FEAC9713CD0BBF8DF
:10D2E00014400021484601F0D7FA022802D0012854
:10D2F00065D131E0641E62D398F800100029F0D0A7
:10D300005DE026B95FEAC97001D04FF00E09BBF8A5
:10D3100014406946484601F0BFFA022802D00128AD
:10D320004DD106E0641E4AD398F800100029F0D0D1
:10D3300045E000998AF80010009A0AF10101120AEA
:10D3400001F8012B009A120C01F8012B009A120E21
:10D3500001F8012B8A467F1C761ED2D22FE0A178DD
:10D3600034F8030B61F31F4014F8011B40EA01601D
:10D370000090BBF814806946484601F08DFA0228F7
:10D3800002D001281BD107E0B8F1010817D31049DA
:10D3900009780029EFD012E07F1C761E701CDED1C8
:10D3A000BBF814400A4E00210E2001F075FA022845
:10D3B00005D1641E611C02D031780029F3D02F7092
:10D3C000390A6970A870AAEB0500BDE8F88F000063
:10D3D00000000020000600202DE9F0478A4605786D
:10D3E000447802794188407962F31F4141EA00663E
:10D3F0003648E10700F1040706D0EA074FF4005170
:10D4000001D0016000E03960A10706D5AA074FF4FA
:10D41000804101D5016000E0396021060DD5E909A0
:10D42000C9074FF0010802D0C0F8008005E0284984
:10D43000284808F029FFC7F80080DFF89090A9F18C
:10D440000409A9F104086EB32348864200D90646B0
:10D4500001F048FE0746E00705D0D9F80000C0F308
:10D460004030A84219D1A00706D5D8F80000C0F373
:10D470000030B0EB550F10D1600701D5A8080CD1D2
:10D48000A00601D5680908D120060BD5D8F8000000
:10D4900000F00100B0EBD51F04D001F023FEC01B4B
:10D4A000B042D8D3D9F80000D8F80020C0F34031FA
:10D4B000C2F30032D8F8000041EA420141EAC0104C
:10D4C0008AF800000548BDE8F0870000100C014014
:10D4D0000400FA050CED00E0C0C62D0001000600B6
:10D4E000094910B500220A70084888600A7464234C
:10D4F0008B82CA8201238A610B774A7701F07CFD17
:10D50000BDE81040FFF75CBC000600208096980044
:10D510000078832805D0842803D08C2801D00120EE
:10D520007047002070472DE9F04100F58054054612
:10D53000D4F8C8091E4617468846002835D0084644
:10D54000FFF7E6FF10B1012006F0E8F8402F00DDFC
:10D550004027D4F8C8093A46401EC4F8C809D4F890
:10D56000D009414605EB801004F6C814FEF7D5FF3C
:10D57000A06805EB80114046FFF7A2F9A16805EB12
:10D58000410101F58051A1F80009A068642105EB73
:10D5900080103060A068401CB0FBF1F201FB12006B
:10D5A000A0606068401C60600120BDE8F08110B59B
:10D5B00000F58053D3F8CC490CB3641EC3F8CC49B2
:10D5C000D3F8D44900EB84140C60D3F8D41900EBE1
:10D5D000410000F580506421B0F800091060D3F8D4
:10D5E000D409401CB0FBF1F201FB1200C3F8D409CE
:10D5F000D3F8C809401CC3F8C809012010BD002099
:10D6000010BDA0F5C760002200F5005064218260C3
:10D61000C260C0E90012704701078A0E07490A4438
:10D62000D2F8001C000602D548F6CF7001E04CF697
:10D630008F700140C2F8001C70470000005000408D
:10D640000207930E0C4A30B51344D3F8002C0006A1
:10D6500048F68F7502EA050048F2800482EA01026A
:10D6600002D502F0300101E002F4405108432043AA
:10D67000C3F8000C30BD00000050004030B585B04C
:10D680000546002400F03AF900200090CDE901059C
:10D690000120039004A9684600F092F800B101242B
:10D6A00000F0E2F805B0204630BD00000649002039
:10D6B000C8610648016941F004010161016941F056
:10D6C0004001016170470000301C00200020024032
:10D6D000064A0021D16106490A6942F002020A6144
:10D6E0004861086940F0400008617047301C002024
:10D6F00000200240044B0022DA61044A136943F01F
:10D700000103136101807047301C0020002002409B
:10D710000E49C868C2060E4803D5C26942F002022B
:10D72000C261CA68520703D5C26942F00102C261F0
:10D73000CA69D20707D0C26942F00402C261C8694F
:10D7400020F00100C8611420C8607047002002402A
:10D75000301C002070B5054600F0C6F90646114C95
:10D7600009E0681C07D025B100F0BEF9801BA84273
:10D7700001D9032070BDE068C007F2D1E0688006DF
:10D7800001D52020E060E068C00605D4E069C0074C
:10D7900002D1E068400703D5FFF7BAFF012070BD52
:10D7A000002070BD0020024031B500F09DF9044614
:10D7B00000F09AF90099001B8842F9D338BD0000A7
:10D7C0002DE9F047054626480F460126017E01292E
:10D7D0000FD00121814601762868DFF888804CF25D
:10D7E0005034022808D0A2462046FFF7B3FFA8B164
:10D7F00031E00220BDE8F0872046FFF7ABFF08BB11
:10D800000120FFF753FF2046FFF7A4FFD8F81010C0
:10D81000064621F00401C8F810101CE04FF0FF305C
:10D820003860AC6811E02046FFF752FF5046FFF722
:10D8300091FFD8F81010060021F00201C8F810106E
:10D8400001D03C6007E004F58064D5E9020100EBFB
:10D850008120A042E7D8002189F818103046C9E796
:10D86000301C0020002002400348016941F0800183
:10D870000161002070470000002002402DE9F05FA8
:10D8800007461C4888460024017E15461E4601298D
:10D8900009D00121814601764CF2503A5046FFF7FB
:10D8A00059FF18B122E00220BDE8F09F012F02D0FD
:10D8B000022F00D00427D346DFF83CA022012846DF
:10D8C0003146FEF775FD81B208EB4400FFF712FF09
:10D8D0005846FFF73FFFDAF8102022F00102CAF89D
:10D8E000102018B9641CE4B2BC42E7D3002289F8C6
:10D8F0001820D9E7301C00200020024005480169AB
:10D90000090605D50449416004494160002070477B
:10D91000012070470020024023016745AB89EFCD0D
:10D920002DE9F84FDFF890A100220AF1040B14460C
:10D9300001274FF00F090BF1040E00BF0B6807FA27
:10D9400004F52B40AB4274D1DFF870C14E68A6EBF2
:10D950000C0866452BD00DDC032E34D005DC36B325
:10D96000012E19D0022E2FD11BE0112E16D0122E0F
:10D970002AD119E0B8F5881F19D006DCB8F5803F28
:10D9800015D0B8F5801F1FD111E0B8F5001F0ED0DB
:10D99000B8F5041F18D10AE0CA6815E0CA68121D5C
:10D9A00012E0CA6808320FE0CA680C320CE08A68DC
:10D9B0002AB1012A4FF0080203D0456104E0042295
:10D9C00002E0056100E00022FF2B01D8064601E0DD
:10D9D00000F104064FEA840501D9A5F12005D6F827
:10D9E00000C009FA05F82CEA080C02FA05F54CEA21
:10D9F000050CC6F800C04D68ED0057D5304DAE6936
:10DA000046F00106AE61AD6924F0030605F001059C
:10DA100000952C4D06EB050CDCF80850A6074FEAE4
:10DA2000167809FA08F6B543274EB04202D100260F
:10DA300010E03BE0254EB04201D101260AE0244E21
:10DA4000B04201D1022605E0224EB04201D10326A8
:10DA500000E0042606FA08F62E43CCF808604D686C
:10DA6000DAF80060ED03554601D51E4300E09E4301
:10DA70002E604D68DBF80060AD035D4601D51E43A6
:10DA800000E09E432E604D68DEF80060ED027546B2
:10DA900001D51E4300E09E432E604D68AD020E4D41
:10DAA0002E6801D51E4300E09E432E60641C102C9E
:10DAB000FFF444AFBDE8F88F0004014000001110EE
:10DAC000001002400000014000080140000C01402D
:10DAD00000100140001401400C0401400AB1016132
:10DAE00070470904FBE70000EFF3108172B60748A6
:10DAF0000068406A064A1368C3EB9000C0F30D004B
:10DB0000184481F31088106070470000F41B002057
:10DB1000E4020020074810B5016841F010010160DF
:10DB2000032000F05DF80F2000F006F800F056F832
:10DB3000002010BD0020024010B588B006A901A841
:10DB400000F024F90498B0F5806F08D0B0F5A06F0C
:10DB500035D0B0F5C06F34D0B0F5E06F33D00120D0
:10DB60001A494FF0804200240968B1FBF0F04FF4ED
:10DB70007A61B0FBF1F11648491E02604FF6FF7260
:10DB8000C0E90324C0E9011444611248C16941F0AD
:10DB90000101C161C06900F0010000900C4800F073
:10DBA00018FC002809D10C480460094800F02DFC3D
:10DBB000002802D1064800F045FC08B010BD022044
:10DBC000CEE70420CCE70820CAE70000E8020020E6
:10DBD000F41B002000100240E40200207047000007
:10DBE000064900F0070208684FF6FF03184040EAB4
:10DBF0000220034A10430860704700000CED00E06B
:10DC00000000FA052DE9F047DFF8708105460E4661
:10DC1000D8F8000000F00700B0420CD2D8F800108D
:10DC200021F007013143C8F80010D8F8000000F0D7
:10DC30000700B04277D12878514C800705D560683D
:10DC4000A96820F0F000084360602878C00759D028
:10DC50006968012001290DD0022929D05FF0020353
:10DC600093FAA3F2B2FA82F242F02002520904D0EF
:10DC7000226803E04FF40033F2E7626A93FAA3F3F9
:10DC8000B3FA83F303F01F03984002424BD060685D
:10DC900020F0030008436060FFF726FF696807462D
:10DCA00041F2883001290DD00229814617D025E0A4
:10DCB0004FF00073D4E700BFFFF716FFC11B4945C3
:10DCC00001D918E081466068C0F381000128F3D1D2
:10DCD00018E000BFFFF708FFC11B49450BD860687B
:10DCE000C0F381000228F5D10CE000BFFFF7FCFE75
:10DCF000C11B494502D90320BDE8F087606810F0D8
:10DD00000C0FF3D1D8F80010404601F00701B142E2
:10DD10000BD9016821F0070131430160006800F070
:10DD20000700B04201D00120E6E72878400705D57A
:10DD30006068E96820F4E0600843606028780007C4
:10DD400006D56068296920F4605040EAC10060602F
:10DD500000F03CF86168F02292FAA2F201F0F001C2
:10DD6000B2FA82F2D140074A515CC84006490860C5
:10DD70000F20FFF7E1FE0020BEE700000020024078
:10DD800000100240C4880108E80200200F2202604F
:10DD90000C4A536803F003034360536803F0F00335
:10DDA0008360536803F4E063C36052684FF4E06338
:10DDB00003EAD20202610448006800F0070008602C
:10DDC00070470000001002400020024010B519A367
:10DDD00085B00FCB8DE80F001AA01B4B0068049094
:10DDE0005A681A4802F00C0104291DD008291BD1D9
:10DDF0004FF4701494FAA4F402F47011B4FA84F499
:10DE0000E140D2031DF8011010D55A684FF40033D9
:10DE100093FAA3F302F40032B3FA83F3DA4004ABCB
:10DE20009A5CB0FBF2F0484305B010BD0848484387
:10DE3000FAE7000002030405060708090A0B0C0DA7
:10DE40000E0F1010010200000010024000127A00B4
:10DE500000093D002DE9F84F04460078F74DC00752
:10DE60004FF0010625D068687704C0F381000128CF
:10DE700007D06868C0F3810002281BD16868C0031E
:10DE800018D597FAA7F0B0FA80F040F020004009CA
:10DE900001D0286800E0686A97FAA7F1B1FA81F129
:10DEA00001F01F0106FA01F108425ED06068002807
:10DEB0007CD05AE06068B0F5803F0BD010B1B0F56F
:10DEC000A02F11D0286820F480302860286820F422
:10DED000802002E0286840F480302860606828B321
:10DEE000FFF702FE80460BE0286840F4802028609F
:10DEF000F0E700BFFFF7F8FDA0EB0800642871D839
:10DF000097FAA7F0B0FA80F040F02000400901D065
:10DF1000286800E0686A97FAA7F1B1FA81F101F088
:10DF20001F0106FA01F10842E4D01EE0FFF7DCFD14
:10DF3000804605E0FFF7D8FDA0EB08006428DED896
:10DF400097FAA7F0B0FA80F040F02000400901D025
:10DF5000286800E0686A97FAA7F1B1FA81F101F048
:10DF60001F0106FA01F10842E4D12078DFF8D082DF
:10DF700080074FF000094FF002075BD568684FF04B
:10DF8000F80B10F00C0F07D06868C0F3810002286E
:10DF90001CD16868C00319D497FAA7F0B0FA80F0D2
:10DFA00040F02000400902D0286801E08BE0686A58
:10DFB00097FAA7F1B1FA81F101F01F0106FA01F118
:10DFC00008422CD0206901287DD128E0206990B337
:10DFD00096FAA6F0B0FA80F048F82060FFF784FDCA
:10DFE000824607E011E100BFFFF77EFDA0EB0A00CB
:10DFF000022884D897FAA7F0B0FA80F040F0200009
:10E00000400901D0286800E0686A97FAA7F1B1FAE0
:10E0100081F101F01F0106FA01F10842E4D02868FD
:10E020009BFAABF26169B2FA82F220F0F8009140FB
:10E030000843286025E0FFE796FAA6F1B1FA81F1DE
:10E0400048F82190FFF750FD824605E0FFF74CFDB0
:10E05000A0EB0A000228CCD897FAA7F0B0FA80F01B
:10E0600040F02000400901D0286800E0686A97FA73
:10E07000A7F1B1FA81F101F01F0106FA01F108429E
:10E08000E4D1207800076ED5A069B8B396FAA6F05F
:10E09000B0FA80F008EB8000C0F88064FFF724FD40
:10E0A000824605E0FFF720FDA0EB0A000228A0D879
:10E0B00097FAA7F0B0FA80F040F06000B6EB501F7E
:10E0C00002D128680CE062E197FAA7F0B0FA80F07C
:10E0D00040F06000B7EB501F01D1286A00E0686A89
:10E0E00097FAA7F1B1FA81F101F01F0106FA01F2E6
:10E0F0001042D7D00120FFF757FB34E0FFE796FA34
:10E10000A6F1B1FA81F108EB8101C1F88094FFF723
:10E11000EBFC824606E000BFFFF7E6FCA0EB0A003E
:10E12000022872D897FAA7F0B0FA80F040F06000A9
:10E13000B6EB501F01D128680BE097FAA7F0B0FAB0
:10E1400080F040F06000B7EB501F01D1286A00E07A
:10E15000686A97FAA7F1B1FA81F101F01F0106FA96
:10E1600001F21042D8D12078400765D5E86940F027
:10E170008050E861E869DFF8CCB000F08050009092
:10E18000DBF8001041F48071CBF80010FFF7ACFC15
:10E19000824605E0FFF7A8FCA0EB0A00642834D80B
:10E1A000DBF80000C005F5D5E06801280AD008B109
:10E1B000052813D0286A20F001002862286A20F080
:10E1C000040002E0286A40F001002862E06841F2A1
:10E1D000883B90B3FFF788FC82460BE0286A40F04A
:10E1E00004002862EEE700BFFFF77EFCA0EB0A0107
:10E1F00059450AD897FAA7F0B0FA80F040F04000ED
:10E20000B6EB501F02D128680CE0A3E097FAA7F004
:10E21000B0FA80F040F04000B7EB501F01D1286AFF
:10E2200000E0686A97FAA7F1B1FA81F101F01F02E4
:10E2300006FA02F10842D7D031E005E000100240B2
:10E240000000424200700040FFF74EFC824605E0AD
:10E25000FFF74AFCA0EB0A0159457BD897FAA7F0D3
:10E26000B0FA80F040F04000B6EB501F01D12868B2
:10E270000BE097FAA7F0B0FA80F040F04000B7EB5F
:10E28000501F01D1286A00E0686A97FAA7F1B1FA35
:10E2900081F101F01F0206FA02F10842D8D1E069CB
:10E2A00080B36968C1F38101022970D04FF0807199
:10E2B0004F000228484609D091FAA1F1B1FA81F144
:10E2C00048F82100FFF710FC044669E08A4691FAFD
:10E2D000A1F1B1FA81F1C14648F82100FFF704FC31
:10E2E000804605E0FFF700FCA0EB0800022854D8A8
:10E2F00097FAA7F0B0FA80F040F02000400902D071
:10E30000286801E061E0686A97FAA7F1B1FA81F143
:10E3100001F01F0106FA01F10842E3D1206AB0F5CD
:10E32000803F05D16868A16820F400300843686028
:10E33000D4E908010843696821F47411084368604E
:10E340009AFAAAF0B0FA80F049F82060FFF7CCFB07
:10E35000044606E021E000BFFFF7C6FB001B0228D1
:10E360001BD897FAA7F0B0FA80F040F020004009DF
:10E3700001D0286800E0686A97FAA7F1B1FA81F144
:10E3800001F01F0106FA01F10842E5D01DE01EE090
:10E39000FFF7AAFB001B022802D90320BDE8F88F73
:10E3A00097FAA7F0B0FA80F040F02000400901D0C1
:10E3B000286800E0686A97FAA7F1B1FA81F101F0E4
:10E3C0001F0106FA01F10842E2D10020E6E7012030
:10E3D000E4E710B50446022084F839002068016A99
:10E3E00041F21112114207D1016A9210114203D178
:10E3F000016821F001010160204600F021F80020B1
:10E4000084F8390084F8380010BD10B5040003D03A
:10E4100094F8390010B107E0012010BD002084F805
:10E420003800204600F00DF8022084F83900211D44
:10E43000206800F067FE012084F83900002010BD3C
:10E4400070477047022180F8391001680A6842F06D
:10E4500001020A60012180F839100020704770B570
:10E46000044690F838000D4601280DD0012684F8A6
:10E470003860022084F8390042B1042A18D0082AF2
:10E480002AD00C2A4DD139E0022070BD206800F05E
:10E4900077FE2068816941F0080181612068816907
:10E4A00021F004018161206881692A69114311E02A
:10E4B000206800F08DFE2068816941F4006181616F
:10E4C0002068816921F480618161206881692A69FD
:10E4D00041EA0221816124E0206800F0A5FE206865
:10E4E000C16941F00801C1612068C16921F00401DE
:10E4F000C1612068C1692A69114311E0206800F0F8
:10E50000BFFE2068C16941F40061C1612068C16932
:10E5100021F48061C1612068C1692A6941EA022150
:10E52000C16184F83960002084F8380070BD10B5EE
:10E530000446022084F839002068016A41F2111271
:10E54000114207D1016A9210114203D1016821F0F2
:10E5500001010160204600F021F8002084F8390014
:10E5600084F8380010BD10B5040003D094F83900C9
:10E5700010B107E0012010BD002084F838002046CB
:10E5800000F00DF8022084F83900211D206800F009
:10E59000B9FD012084F83900002010BD7047704794
:10E5A00010B504460068012200F0DEFD074920682E
:10E5B000884203D1416C41F4004141642068016804
:10E5C00041F001010160002010BD0000002C01405D
:10E5D00070B5040018D0022084F839002068C168A2
:10E5E00021F40051C16020680025C56020680561E4
:10E5F00020684561204600F038F8E56384F839501A
:10E6000084F83850002070BD012070BD70B5040042
:10E6100004D094F83900002510B106E0012070BD47
:10E6200084F83850204600F021F8022084F83900A0
:10E630002068C16821F40051C160204600F042FE0C
:10E640002068016921F4904101612068416921F04D
:10E650002A0141612068C16841F40051C160E5634D
:10E66000012084F83900002070BD7047704703F026
:10E6700075F9002070471CB507F0CCFA00281BD0B4
:10E680009E208DF80000E7208DF8010069461020DB
:10E6900000F07EFC07F0BEFA00280DD000208DF8B7
:10E6A00000006946082000F073FC01A9002007F073
:10E6B00043FA012800D000201CBD000070B5104CAA
:10E6C0000D21204605F0ADFC0D4D6014103528607D
:10E6D0000E21204605F0A5FC4FF480402860012261
:10E6E0000C21204605F05BFC206820F00F00206024
:10E6F000206840F0070020600120286070BD000005
:10E70000000C01402DE9F04117460D4680460026D9
:10E71000FFF7F4F8A80706D000206E220DA103F041
:10E72000C9F900240EE00120F7E700BF57F82420C4
:10E7300008EB840100230220FFF7A0F808B10126AE
:10E7400003E0641CB4EB950FF0D3FFF78DF830466F
:10E75000BDE8F0812E2E5C2E2E5C2E2E5C736F7524
:10E760007263655C6869635F68616C5C73746D3368
:10E77000325C73746D33326631303378625C666C50
:10E780006173682E630000000246002053090949A6
:10E79000012B0BD0022B0BD0D1F8241002F01F025A
:10E7A000012393400B4200D0012070470968F5E730
:10E7B000096AF3E7001002402DE9F00710F03F036B
:10E7C00008BF402310F0800FDFF8C090DFF8C0A032
:10E7D0004FF40054A9F104062CD0002B12BFDFF82F
:10E7E000B480BDE8F007704700274FF0080CDAF856
:10E7F000045010E0491EFDD1D8F800003460C0F389
:10E8000000312846401EFDD178085B1E40EAC11742
:10E81000BCF1010C05D0002B1CBFC9F800402946F3
:10E82000E8D127FA0CF002F8010B002BDCD1BDE88F
:10E83000F0077047002B19BF4FF4804CDAF8042022
:10E84000BDE8F007704700BF11F8015B082712E030
:10E85000E80714BFC6F800C0C9F800C0C9F80040F6
:10E860001046401EFDD134601046401EFDD16D089B
:10E870005B1E7F1E04D0002BEAD1BDE8F007704775
:10E88000002BE1D1BDE8F00770470000140C0140F7
:10E8900000060020080C0140034A52780AB100F03B
:10E8A00005B800F055B90000000600202DE9F04F32
:10E8B000A04F4FF4804AC7F800A07E143D1D2E6083
:10E8C0003E60C20714BFC7F800A0C5F800A02E60C4
:10E8D0003E6042085FEAC27C14BFC7F800A0C5F8DA
:10E8E00000A02E603E60830802445FEAC37C14BF30
:10E8F000C7F800A0C5F800A02E603E601344C2080F
:10E900005FEAC27C14BFC7F800A0C5F800A02E6063
:10E910003E601A44D20714BFC7F800A0C5F800A093
:10E920002E603E60C5F800A02E603E60C7F800A0D3
:10E930002E603E60DFF800B2DBF8042022F0706247
:10E94000CBF80420DBF80420CBF80420C7F800A0A3
:10E95000DFF8E8E19EF81C20131E03D02E603E6015
:10E96000521EFBD12E60DFF8D891D9F800203E600E
:10E97000C2F300322E60D9F800C03E60CCF3003CF8
:10E9800042EA4C022E60D9F800C03E60CCF3003C55
:10E9900042EA8C02012A1DD0022A18BF042A7DD027
:10E9A00013F1210003D02E603E60401EFBD1DBF846
:10E9B000040020F07060CBF80400DBF8040040F0A5
:10E9C0004070CBF80400C5F800A0C7F800A01046BE
:10E9D000BDE8F08F10F0020F4AD00024A04620239B
:10E9E0002E60D9F800C03E60CCF3003C6408E044DF
:10E9F00044EACC745B1EF3D12E60D9F800303E603F
:10EA000088EA133313F0010F18BF0822002918BF3A
:10EA10000C609EF81C1019B12E603E60491EFBD19F
:10EA2000DBF8041021F07061CBF80410DBF804105F
:10EA300041F04071CBF80410C5F800A010F0800F31
:10EA40000AD0404840490068B0FBF1F03F494968AE
:10EA5000B1FBF0F0CEF80C009EF81000002818BFB3
:10EA6000C5F800A061D02E603E60401EFBD15CE086
:10EA70001BB12E603E605B1EFBD1DBF8043023F03F
:10EA80007063CBF80430DBF8043043F04073CBF80C
:10EA90000430C5F800A00968002300E017E04FF03B
:10EAA000200CCC0714BFC7F800A0C5F800A02E604A
:10EAB0003E600B444908BCF1010CF2D1D90714BFE8
:10EAC000C7F800A0C5F800A02E603E60B6E79EF82B
:10EAD0001DC0BCF1000F1CBF10F0020F212103D09C
:10EAE0002E603E60491EFBD11BB12E603E605B1E56
:10EAF000FBD1DBF8041021F07061CBF80410DBF8D7
:10EB0000041041F04071CBF80410C5F800A0BCF12E
:10EB1000000F0AD010F0020F04BFC5F800A021209A
:10EB200003D12E603E60401EFBD1C7F800A0104606
:10EB3000BDE8F08F100C0140000C014000060020E1
:10EB4000080C0140E802002040420F00001000E0E5
:10EB50002DE9F04FDFF810A44FF4804E4FF0000C79
:10EB6000CAF800E00AF104094FF40057C9F8007030
:10EB7000FE4D6A6813465B1EFDD1CAF8007013464D
:10EB80005B1EFDD1C30714BFCAF800E0C9F800E05E
:10EB9000C9F8007013465B1EFDD1CAF80070134619
:10EBA0005B1EFDD10CEB00044FEA500C5FEACC7306
:10EBB00014BFCAF800E0C9F800E0C9F800701346B5
:10EBC0005B1EFDD1CAF8007013465B1EFDD1644484
:10EBD0004FEA900C5FEACC7314BFCAF800E0C9F8A2
:10EBE00000E0C9F8007013465B1EFDD1CAF8007042
:10EBF00013465B1EFDD164444FEAD00C5FEACC7330
:10EC000014BFCAF800E0C9F800E0C9F80070134664
:10EC10005B1EFDD1CAF8007013465B1EFDD104EBEC
:10EC20000C03DB0714BFCAF800E0C9F800E0C9F81C
:10EC3000007013465B1EFDD1CAF8007013465B1EC0
:10EC4000FDD1C9F800E0C9F8007013465B1EFDD184
:10EC5000CAF8007013465B1EFDD1CAF800E0C9F87F
:10EC6000007013465B1EFDD1CAF8007013465B1E90
:10EC7000FDD1BF4BD3F804C02CF0706CC3F804C0B6
:10EC8000D3F804C0C3F804C0CAF800E02C7FB4F184
:10EC9000000C0BD0C9F8007013465B1EFDD1CAF8FA
:10ECA000007013465B1EFDD1641EF3D1C9F80070DD
:10ECB00013465B1EFDD1DFF8BCB2DBF80030CAF8AA
:10ECC0000070C3F300331446641EFDD1C9F8007010
:10ECD0001446641EFDD1DBF80040CAF80070C4F38E
:10ECE00000341646761EFDD143EA4403C9F800708D
:10ECF0001446641EFDD1DBF80040CAF80070C4F36E
:10ED0000003415466D1EFDD143EA8408B8F1010FA9
:10ED100024D0B8F1020F18BFB8F1040F72D01CF163
:10ED200021010BD0C9F800701046401EFDD1CAF871
:10ED300000701046401EFDD1491EF3D18C48416839
:10ED400021F070614160416841F040714160C9F853
:10ED500000E0CAF800E04046BDE8F08F10F0020F76
:10ED600051D0002635464FF0200C00BFC9F8007086
:10ED700013465B1EFDD1DBF80030CAF80070C3F308
:10ED8000003413465B1EFDD17308254443EAC47664
:10ED9000BCF1010CEAD1BC46C9F80070734C1346B3
:10EDA0005B1EFDD1DBF80030CAF800C0C3F30033AE
:10EDB000521EFDD185EA030212F0010F18BF4FF079
:10EDC0000808002918BF0E60257F002D18BF636852
:10EDD0000CD000BFC9F800C01A46521EFDD1CAF8B7
:10EDE00000C01946491EFDD16D1EF3D160494A6825
:10EDF00022F070624A604A6842F040724A60C9F884
:10EE000000E047E069E0BCF1000F0CD0C9F80070E9
:10EE100013465B1EFDD1CAF8007013465B1EFDD180
:10EE2000BCF1010CF2D1524BD3F804C02CF0706C41
:10EE3000C3F804C0D3F804C04CF0407CC3F804C04D
:10EE4000F446C9F800E000240B682025D90714BF58
:10EE5000CAF800C0C9F800C0C9F800701146491EC0
:10EE6000FDD1CAF800701146491EFDD11C445B0853
:10EE70006D1EEBD1E10714BFCAF800C0C9F800C08D
:10EE80003B46C9F800701146491EFDD1CAF8003052
:10EE9000521EFDD110F0800F0AD037483749006864
:10EEA000B0FBF1F036494968B1FBF0F02F49C8607A
:10EEB0002E48027C002A1CBFC9F800E0416851D0EE
:10EEC000C9F800700846401EFDD1CAF80070084617
:10EED000401EFDD1521EF3D144E024494C7F002C4A
:10EEE0001CBF10F0020F21230CD000BFC9F8007026
:10EEF0001146491EFDD1CAF800701146491EFDD1C8
:10EF00005B1EF3D1BCF1000F0DD000BFC9F800703B
:10EF10001146491EFDD1CAF800701146491EFDD1A7
:10EF2000BCF1010CF2D112494B6823F070634B60C5
:10EF30004B6843F040734B60C9F800E094B110F0A7
:10EF4000020F04BFC9F800E021210BD1C9F80070FD
:10EF50001046401EFDD1CAF800701046401EFDD17B
:10EF6000491EF3D10EE00000100C01400006002005
:10EF7000000C0140080C0140E802002040420F0054
:10EF8000001000E0CAF800E04046BDE8F08F000045
:10EF90002DE9F001441E3CBFBDE8F00170474FF47D
:10EFA00080474FF400581348114DD0F804202E1F0D
:10EFB00011F8013B4FF0080C13F0010F14BF37603C
:10EFC0002F60C5F800801046401EFDD1C6F80080B5
:10EFD0001046401EFDD15B08ACF1010C641E3CBF25
:10EFE000BDE8F0017047BCF1000FE5D1E0E700009B
:10EFF000140C0140000600200C490A680C49B0EBD3
:10F00000920F02D3012048700DE000EB5202521E15
:10F01000B2FBF0F000234B70022803D90322B0FBAF
:10F02000F2F000E00120486070470000E802002094
:10F03000000600200B4A50680B4910F00C030B48E7
:10F0400003D0042B01D0082B09D001605168084A75
:10F05000C1F30311515C0268CA4002607047054960
:10F06000F3E700000010024000127A00E8020020DE
:10F07000C488010800E6DF0C0D48016841F0010179
:10F08000016041680B4A1140416001680A4A114021
:10F090000160016821F480210160416821F4FE01D2
:10F0A00041604FF41F0181600449C003086070474C
:10F0B000001002400000FFF8FFFFF6FE08ED00E040
:10F0C000BFF34F8F05480168054A01F4E061114321
:10F0D0000160BFF34F8F00BFFDE700000CED00E0C3
:10F0E0000400FA05044805490068B0FBF1F0044942
:10F0F0004968B1FBF0F07047E802002040420F0081
:10F10000001000E0F0B50268144B154C154D4FF09F
:10F110008047984205D0B84203D0A04201D0A8420F
:10F1200003D122F070064A683243984205D0B842B3
:10F1300003D0A04201D0A84203D122F44074CA688F
:10F14000224302608A68C2620A688262984201D1E0
:10F150000969016301214161F0BD0000002C0140FB
:10F16000000400400008004010B50123046A8B40F1
:10F170009C430462036A8A401343036210BD00008B
:10F1800030B5026A22F001020262026A43688469B1
:10F1900024F073050C682C4322F002058A682A4388
:10F1A0000A4DA8420BD122F00805CA6823F4407327
:10F1B0002A434D6922F004021D438B692B434360AF
:10F1C000846149684163026230BD0000002C014047
:10F1D00030B5026A22F010020262026A4368846952
:10F1E0000D6824F4E64444EA05248D6822F02002E8
:10F1F00042EA05120B4DA8420ED1CD6822F08002E2
:10F2000042EA05124D6923F4406343EA85038D69A0
:10F2100022F0400243EA85034360846149688163C8
:10F22000026230BD002C014030B5026A22F48072C7
:10F230000262036A4268C46923F4007324F0730510
:10F240000C682C438D6843EA05230C4DA8420ED16F
:10F25000CD6823F4006343EA05234D6922F440524C
:10F2600042EA05128D6923F4806342EA0512426086
:10F27000C4614968C163036230BD0000002C0140D5
:10F2800030B5026A22F480520262046A4268C3699D
:10F290000D6823F4E64343EA05238D6824F4005403
:10F2A00044EA0534064DA84204D14D6922F4804257
:10F2B00042EA85124260C36149680164046230BD5C
:10F2C000002C0140F0B501680A69C36822F440527D
:10F2D0001A430A6102698168036811434269114354
:10F2E000DA6841F20C64A2430A43DA6001684A69B1
:10F2F000836922F440721A434A610468194B4068DA
:10F30000642132229C424FEA800001D1164B00E07A
:10F31000164B6FF01807B3FBF0F5B5FBF1F5B3FB37
:10F32000F0F67D4306EB8505B3FBF0F602EB051521
:10F33000B5FBF1F5B6FBF1F605F0F00505EB0615AA
:10F34000B3FBF0F6B3FBF0F0B0FBF1F0784306EB63
:10F35000800002EB0010B0FBF1F000F00F00284439
:10F36000A060F0BD003801400076DD4100BBEEA09A
:10F3700070B515480468154DA00612D52868C6B2A8
:10F38000134802F02BFC132804D93146104802F030
:10F3900089FC06E005D14FF013020EA10C4802F0E3
:10F3A000D3FC200607D5104802F025FC20B10E48FA
:10F3B00002F03CFC286070BD0448083001680B4A2C
:10F3C0001140016070BD0000004400400444004052
:10F3D000603000203C4441504C696E6B3A4F76657A
:10F3E00072666C6F773E0A00501C00207FFFFFEFB3
:10F3F0001CB50020009001AA69460848FEF7D7F81E
:10F4000040B10748DDE90012007840F0800002F0CA
:10F41000FFF91CBD0349012008701CBD7067002066
:10F42000FA880108EC05002038B5164D164C2888DE
:10F430006188421A15486168007801F01FFE616812
:10F4400080B201446160618801448AB26280298887
:10F450008A4206D20F4B0E491B7831F813108142B5
:10F460000FD96B460C490D48FEF75DF8002528B111
:10F47000207818B10020FFF7BBFF25706580064893
:10F48000606038BD00890108EC050020FB88010898
:10F49000FC8801086B050020BA4600207067002038
:10F4A00010B50446400702D50020FFF7BDFF200736
:10F4B00004D5BDE810400020FFF79ABF10BD002022
:10F4C000704700000348D0E90410081A024909886F
:10F4D000081A704728050020F088010870B50B4D08
:10F4E0000C460346D5E90C0188420BD9401A8442E8
:10F4F00000DD044622461846FDF70FF8686B2044ED
:10F50000686300E00024204670BD0000280500204C
:10F51000002070472DE9F041194C0D460746D4E90B
:10F520000401401A17490988081A002802DC002043
:10F53000BDE8F081854200DD0546D4E906020026DB
:10F5400090420FD3104A431911448B420AD30E1A2A
:10F55000904632463946FCF7E0FF3744AD1B404643
:10F56000C4F8188035B12A463946FCF7D6FFA069A1
:10F570002844A0612169A81901442161D8E700004D
:10F5800028050020F08801083A46002010B5054CF7
:10F590006068002805D10120606000F005F80020B7
:10F5A000606010BD280500202DE9F047234CA068BD
:10F5B00000283DD0D4E90401421AE0684FF000066B
:10F5C000104337D020461E4FDFF87880DFF8789060
:10F5D0001E4DC1697AB1A069814205D338888B1864
:10F5E0002844834200D3421A99F8003038F81300B7
:10F5F000904200DA02461648E660007840F080004B
:10F6000002F006F9E1690144E16162690244626164
:10F610003B882B448B4200D1E561216991420BD19B
:10F6200099F8002038F81210814205D10120E060DD
:10F63000BDE8F087A660FBE7E660F9E72805002053
:10F64000F0880108F48801086B0500203A46002084
:10F65000EE88010810B50B4C206A18B1A06A401C56
:10F66000A06210BD01202062606200F00DF8002051
:10F6700060622062D4E90C018842F2D0401AFFF7A0
:10F6800047FF10BD2805002010B5134C1348164B3A
:10F69000216B0A1A12481B780088821A114830F828
:10F6A000130082420EDB1148007801F0E7FC216B69
:10F6B00008442063A06A00280CD0616A002909D19F
:10F6C000401E06E00120E062606A002802D0A06AC5
:10F6D000401CA06210BD0000280500207A460020D2
:10F6E000F2880108F48801086B050020EF88010802
:10F6F00010B50446400702D52046FFF7ABFF2007B0
:10F7000004D52046BDE81040FFF740BF10BD70474C
:10F71000002070470020704710B50B4800F03CF8FF
:10F72000002810D0084A0948116801700B0A43707C
:10F730000B0C8370090EC1701179017151794171FF
:10F7400091798171012010BD6005002038450020AD
:10F750000E4810B5002141608160C1600C4A016112
:10F76000C0E90512C0E9072141620A4A8162C0E985
:10F770000B124263018038304FF41652026001715F
:10F7800041710821817100F015F810BD2805002095
:10F790003A4600207A46002005490A6802600A7944
:10F7A00082714A79427189790171012070470000A4
:10F7B000F805002010B507F07FF903F0BFFF012026
:10F7C00010BD10B507F0DCF9012010BD10B507F031
:10F7D0007FFA012010BD0000064902680A608279A4
:10F7E0000A7142794A71007988710020C87108460F
:10F7F00007F0D8B9F805002010B5104800241049CA
:10F8000044608460C4600461C0E90541C0E9071434
:10F8100044620C498462C0E90B4141630480FFF7F4
:10F82000D0FF06484FF4165138300160047144711E
:10F8300008218171FFF7D0FF10BD000028050020CE
:10F840003A4600207A46002010B5FFF7D5FF10BDDC
:10F8500070B51948007800282DD0184C00250126D5
:10F86000206A50B9D4E90C10814206D11448814273
:10F8700003D02063E56225626063A06A70B1206AEC
:10F8800060B9E06A50B92662FFF7FEFE2562D4E94E
:10F890000C01884202D0401AFFF73AFED4E9010178
:10F8A000084308D1D4E90401884204D06660A66008
:10F8B000FFF77AFE656070BD69050020280500200D
:10F8C0007A46002070B505460D480068C06980473B
:10F8D000A0B90C4C35B104F0ADF82060002006F062
:10F8E000E9FE0BE004F0A6F82168401AB0F5967F17
:10F8F00001D3012000E0002003F028FF012070BDAB
:10F90000B0830108F40500200020704700207047F4
:10F91000024910B50880FFF759FF10BD28050020E7
:10F920000A4810B58278018862F31F41C27841EA23
:10F93000026207490A6002790A7142794A71807944
:10F9400088710846FFF748FF10BD000038450020C9
:10F950006005002000B50346FDF75EFE43F230016E
:10F9600018465DF804EBFDF76BBE0000F0B5837838
:10F97000204A03F00F041E0657688188158803F09B
:10F980000F0307EB031304D5491C21F001011D608F
:10F9900011E09D603E2909D91F3121F01F014FF070
:10F9A000FF3505EB411545F4004503E0491C21F006
:10F9B00001014D02DD6013880B441380C07810F004
:10F9C000030006D0012807D0022808D003280AD156
:10F9D00007E04FF4007106E04FF4806103E000217E
:10F9E00001E04FF4C061044A214302EB8400C0F8F7
:10F9F000001CF0BD9C04002000500040002802D1F3
:10FA00000149D020088070479C04002000F0CABA49
:10FA10000949CA1350B101200860002008600B1D7D
:10FA200018604FF4E0500860044803E003200860C9
:10FA30000248001D02607047405C00401008014011
:10FA400010B50B4C0B49A0880A78904200D80246AA
:10FA50001AB907490020143908718020216801F083
:10FA6000D7FE216801442160A188081AA08010BD3A
:10FA70007C050020D788010810B5064C0020A2881C
:10FA8000216801F0FBFA216801442160A188081A6D
:10FA9000A08010BD7C05002070470021FDF7D0BD7F
:10FAA00043F22001FDF7CCBD2DE9F0476F4C07462E
:10FAB00080074FF00009A4F10805A4F11C0623D526
:10FAC00001F070FE2078C009FFF7E6FFE088A8800B
:10FAD0002078C0F3411121B101295CD0022971D1F4
:10FAE00067E06178DFF888810C296BD2DFE801F0EC
:10FAF000060D6A156A1A296A2D333A4801F0EAFBA5
:10FB000021E000BFFFF79CFF68E0002006E000BF97
:10FB100001F058FED8F8000039E0012001F018FC8F
:10FB2000C0B3F5E710F01F0F4CD1A078012140F0D1
:10FB30008000307000F07F0001F026FE01F042FEF0
:10FB40004CE001F0C7FA28B3DCE710F01F0F39D101
:10FB500046481B3812E001F04BFCD8B101F032FEF0
:10FB6000444813E000F01F0001282BD1707888B1C1
:10FB70002079B178884225D23F4908442860C1E7FE
:10FB800001F000FD30B101F01DFE3C48006828B3D3
:10FB9000804723E016E010F01F0013D0012811D198
:10FBA00000F004F9D0B900F05DF9B8B900F0AEF892
:10FBB00007E010F01F0F05D100F082F970B900F0D6
:10FBC000C3F958B92078000603D4E08808B10020B2
:10FBD00000E0802001F0E2FDA5F80490780721D52F
:10FBE000207800061CD4A888E0B1FFF745FFA8885C
:10FBF000C0B92078C0F3411161B101290AD110F0D8
:10FC00001F0007D0012805D100F062F850B900F0BC
:10FC100037F838B9802001F0C1FDA5F8049001E063
:10FC200001F0D6FD380712D52078000606D5A88841
:10FC3000317908430BD0FFF703FF08E03078010665
:10FC400005D500F07F003070002101F09DFD7806A1
:10FC500002D50020FFF77EFE380604D5BDE8F04748
:10FC60008020FFF777BEBDE8F08700008405002004
:10FC700060890108588901088B0400205C8901080B
:10FC800010B51048104A01791278914203D00F4AFA
:10FC90001278914214D1417821B1022905D020294E
:10FCA0000ED10AE0FFF730FE02E04088FFF72EFE9B
:10FCB00030B101F087FD012010BDFFF731FEF7E7FD
:10FCC000002010BD84050020FC020020FD02002061
:10FCD00010B50B480B4A01791278914203D00A4AB9
:10FCE0001278914209D14078092806D100F008FB2A
:10FCF00018B101F067FD012010BD002010BD00000B
:10FD000084050020000300200203002070B5224972
:10FD1000224A08791278904203D0214A1278904200
:10FD200038D11D4849781F4C1F4D408804291FD0E9
:10FD300007DC79B101290FD002290BD0032929D181
:10FD400011E0202906D021291AD022291BD02329ED
:10FD500020D11BE02C6011E0FFF7DCFC05E02C60FB
:10FD6000FFF76EFE0AE0FFF7D3FC0028F7D111E0A1
:10FD7000FFF7A5FB0CE000BF01F024FD012070BDE2
:10FD8000FFF7CAFCF1E7FFF7C3FD01E0FFF79AFDBB
:10FD90000028F1D1002070BD84050020FC02002065
:10FDA000FD020020384500207C0500202DE9F041AF
:10FDB000244C254920790978884203D023490978C1
:10FDC00088423DD16078224D224E234F0C2837D2F5
:10FDD000DFE800F03606212D363636363616243268
:10FDE00000F0AEF960B3E078012802D0032803D018
:10FDF00003E01A48286000E02E60FFF721FE13E0C0
:10FE0000E078022802D0032803D00DE014482860CF
:10FE10000AE02E6008E000F07BF90AE000F04AFA00
:10FE20000CE000BF01F0CEFC0120BDE8F08100F045
:10FE30007DF928B12F60E0E700F058FA0028F1D1F1
:10FE40000020F2E7840500200003002002030020C8
:10FE50007C050020980400203845002079450020CA
:10FE6000BA45002010B51248124A01791278914221
:10FE70001CD1014642784888C988FE2A09D0FF2A49
:10FE800014D198B991B901F049F878B101F09AFC10
:10FE90000AE058B9012909D100F058FD30B10749ED
:10FEA00005480860FFF7CCFD012010BD002010BD03
:10FEB0008405002001030020384500207C05002037
:10FEC00070B51B4D1B4900266878097888422CD1F3
:10FED000A888022829D1184CA97811B3002003E082
:10FEE000227802B11444401C421C9142F8D8207878
:10FEF000B0B103F0FDF90146E01CFCF702FB0F492D
:10FF000001260C602078EA8882420BD988800C494F
:10FF10000978491E084206D10A490120087002E00A
:10FF2000002602E08A80FFF78BFD304670BD00009E
:10FF300084050020F8880108580400207C05002072
:10FF4000D78801086C05002010B5104A104900241C
:10FF500050780978884217D19088072814D10E4824
:10FF60000C49012401600989D2888A4209D981801B
:10FF70000A480078401E014204D109490120087056
:10FF800000E08280FFF75CFD204610BD8405002064
:10FF9000F9880108080300207C050020D7880108A3
:10FFA0006C050020074800214170C160016141617A
:10FFB000418081808161C161C18001810162418193
:10FFC000704700008C0500202DE9F047494CA088BF
:10FFD00061884A4DDFF820816F1C0026884216D3C5
:10FFE000A069A0B96661A680012329786A1C184619
:10FFF00007F036F96080608848B1656198F80000C4
:020000040801F1
:10000000012801D8676102E06088401C6080608838
:100010004FF00109B0BBE06808B1E66032E020694A
:1000200080B398F8001001290DD82E70A680022305
:100030006A1C0021012007F013F96080608800B17C
:10004000676126611EE02F78C846202F00D3002765
:1000500008FA07F1014218D0781CC1B22970A680B5
:1000600002236A1C012007F0FBF86080608818B149
:1000700065616088401C6080206908FA07F820EA02
:1000800008002061608830B902E07F1CFFB2DCE725
:10009000A069002829D06088A188DFF86880401A0C
:1000A00085B2174F98F8000037F81000A84200D228
:1000B00005461548007828B140F080002A4661695D
:1000C00001F0A6FB6069114928446061A0882844BA
:1000D00080B2A0800988884209D298F8000037F8D9
:1000E0001000A84203D1C4F81890BDE8F087A661BB
:1000F000FBE700008C050020E2880108784500201D
:10010000DE8801086B050020D8880108E488010812
:10011000034804498078085C03490870012070474F
:1001200084050020960400203845002010B507F013
:1001300095F802490870012010BD000038450020E4
:100140000B4910B5C8780022012804D0022804D039
:10015000032806D103E0074A02E0002010BD064A4A
:10016000521C8978002307F07BF8012010BD0000A5
:100170008405002078450020970400202DE9F05FD9
:100180004348007800287DD04248042300250278A7
:10019000A946511C017040490C7804EB440B03FA4A
:1001A0000BF35B1E9A4202DB80F8009001253B496D
:1001B00000220B88FF2B01D25B1C0B80384B374988
:1001C00033F814A009888A4500D10122354B8646B0
:1001D000002100699EF8006093F800C03FE000270E
:1001E00065B1314B5C5CFF2C01D2641C5C542F4C1C
:1001F000645C1CB15B5CA34200D301272B4B4FF026
:10020000020808FA0BF85B5C03FA08F4544502DABA
:100210000BB1012400E0002432B12CB14FF00108F1
:1002200008FA01F848EA0000DFF8848018F8018035
:1002300043450AD01C4B5B5C434503D301238B40F1
:1002400018430026194B03F8018037B114B9012374
:100250008B401843144B03F80190491CC9B2614507
:10026000BDD3CEF8100071468EF8006012B10B4A73
:10027000A2F80090002808D04888002805D1BDE8E1
:10028000F05F00E001E0FFF79FBEBDE8F09F0000D7
:10029000690500208C0500206B05002092040020D9
:1002A000DA880108E28801089404002095040020FF
:1002B00096040020094809498078C97810B1084A95
:1002C000815409E0084A0020064B127802E01954D4
:1002D000401CC0B29042FAD3012070478405002030
:1002E0009504002096040020E2880108034810B518
:1002F000807807F045F8012010BD0000840500203B
:100300000C4908B5C8780022012804D0022804D07E
:10031000032806D103E0002008BD074A00E0074A91
:10032000521C00230093CB88897807F02BF801201A
:1003300008BD000084050020B94500209704002076
:100340002DE9F041EFF3108072B6354D00212C6994
:1003500080F310882961600507D501F0ABF907F03B
:10036000BBF83048006800B18047200505D501F092
:1003700039FA2D48006800B18047E00405D501F046
:100380003DFA2A48006800B18047A00503D52848F7
:10039000006800B18047274E600403D5316809B179
:1003A00002208847DFF89080A00426D5316821B369
:1003B000012021E0EFF3108072B620490B2351F8A1
:1003C0002210521CB2FBF3F603FB162280F31088B6
:1003D0000F0C8EB2AA60380604D558F8261009B161
:1003E00008208847380408D558F8261029B1380560
:1003F00001D5022000E00420884720040DD5EFF34A
:10040000108072B6D5E902218A4201D1012100E0B3
:10041000002180F310880029CCD0BDE8F0810000D5
:100420009C04002004890108088901080C8901083E
:10043000108901081489010818890108FC46002068
:100440000A4810B541680A4A114041604168094AAA
:1004500011434160C16941F40001C161142001F000
:100460006FFA05494FF40040086010BD00100240CB
:10047000FFFF3F7F000080801408014070B500F04E
:1004800005F900281CD00F4802220F4D027042705F
:100490000E4C03202A632870A068022803D9A4F117
:1004A0001F008260A2600A480649007840F0800080
:1004B00001F0AEF9A068296B401AA06001202073FA
:1004C00070BD0000FA450020B00500208B4D0020D3
:1004D000E6880108114810B50178022908D00329DF
:1004E00010D0042912D0052901D10021017010BDBE
:1004F0000B48C07B282801D0A828F8D1BDE81040BF
:1005000000F068BABDE8104000F040BD0548007832
:1005100040F0800000F052FDF4E70000B00500203C
:100520006C4D0020E6880108204910B50A786AB3AE
:10053000012A0ED01E48052A00781BD0072A2BD08E
:1005400000F03CFD1B4902200873BDE8104000F09C
:100550001DBD18481F38C07B2A2803D02F2805D07E
:10056000AA2822D1BDE8104000F008BBBDE8104029
:1005700000F09ABA012181400F480068014201D081
:10058000012000E0002040F23F4200E009E0BDE829
:1005900010400AA101F08EBA00200870086B1F28D5
:1005A00003D1BDE8104000F0D5B810BDB005002063
:1005B000E78801088B4D0020740500202E2E5C2E4C
:1005C0002E5C2E2E5C736F757263655C7573625C56
:1005D0006D73635C757362645F6D73632E6300009B
:1005E000104810B54168C16009B1012010BD0E4925
:1005F00001F11F048A687AB1097B090604D50B480A
:10060000007840F0800005E0A168006B814203D0D3
:100610000748007800F0D2FC0120207300F0B6FCFF
:10062000002010BDB00500206C4D0020E6880108B8
:10063000E78801081048007900F08F02100605D500
:1006400002F00F004FF48031814001E00121914020
:100650000A48007840F0800090420CD1084A1268A5
:100660000A4208D00749084A0968914203D10D227D
:10067000044901F0CDB8704784050020E6880108E0
:10068000740500208B4D00205553425370B50A4825
:10069000022400F11F05816831B1007B000608D4F7
:1006A0000648007800F08AFC2C7300F06FFC0020F4
:1006B00070BD012070BD00006C4D0020E78801086E
:1006C00010B50E480E4C8068216B884202D820631A
:1006D000032000E0042020700A480B49226B0078B8
:1006E00040F0800001F094F80448226B1F308168CC
:1006F000891A81600021017310BD00006C4D00203B
:10070000B0050020E6880108FA450020064810B52B
:10071000028807480549007800F0B0FC05490863E5
:10072000BDE81040FFF700BFEC880108FA45002043
:10073000E7880108B005002010B50446400702D53F
:100740000020FFF7E3FF200703D5BDE81040FFF7C7
:10075000C1BE10BD2DE9F047754E764C316B1F2997
:1007600002D20A46002005E01F220020724B1B5CCB
:100770002354401C9042F9D3714FDFF8C0A14FF0D1
:10078000010838781F2940F080007CD121686D4A2B
:10079000914278D1674D61681F356960A168A96091
:1007A000617B19B9A17B09B1102902D985F80C80A8
:1007B0008CE0E17B4FF002092A293ED022DC1A2985
:1007C00050D00FDC0429F1D006DCE9B30329EDD1C8
:1007D000BDE8F04700F060BB1229E7D1BDE8F04763
:1007E00000F0BCB8232945D007DC1B2936D01E29D0
:1007F000DCD1BDE8F04700F0DFB825293ED028293C
:10080000D4D149E09E2943D00FDC5529CED004DC59
:100810002F2956D03529C9D103E05A2926D091294C
:10082000C4D1BDE8F04700F0F9BBA1292AD0A32923
:1008300060D0A82930D0AA29B8D100F079FA0028D0
:1008400006D0207B000600E004E04FD486F800804C
:10085000BDE8F087BDE8F04700F0E8BBBDE8F04731
:1008600000F0C2BBBDE8F04700F03ABABDE8F0477F
:1008700000F00ABABDE8F04700F0D8BABDE8F0478A
:1008800000F0ACBA00E038E0BDE8F047FFF7F6BD95
:10089000BDE8F04700F054BB00F04AFA0028D7D07A
:1008A000207B000605D586F80090BDE8F04700F0F3
:1008B00091B89AF8000000BF00F080FB85F80C901A
:1008C00004E0207C800705D400202873BDE8F047B1
:1008D00000F05CBB00F02CFA0028B9D0207B0006A9
:1008E00004D486F80080C6F82080B1E7387840F05C
:1008F0008000E1E700F062FB58E700F05FFB38782A
:10090000114C00F00F014FF48030884021685546AB
:10091000084320609AF8000000F050FB297808FA9C
:1009200001F02168084320600620307090E7000045
:10093000B00500206C4D0020FA450020E788010832
:10094000E6880108555342437805002002490020FB
:1009500008700120704700003845002010B5FFF7EF
:1009600095FE002820D0114800218022017042709D
:1009700002228270C2702023037141718171C171A2
:100980000B490A680821147814B14454521C00E041
:100990004354491CC9B22429F5D3064924200863CD
:1009A000BDE81040FFF78CBE10BD0000FA450020E6
:1009B00054040020B00500200548C07CC10704484D
:1009C00000F11F0000D00121017300F0DFBA000028
:1009D0006C4D00202DE9F0412E4C2F4F0026A169CF
:1009E000606ADFF8B88088420AD33878002540F082
:1009F000800000F0E3FA88F80C6000F0C7FA08E025
:100A000028492748E56A097830F81100A84200D241
:100A10000546FFF7E5FD00B90025A06A48B375B1AA
:100A2000A16AE0692A460144387840F0800000F06D
:100A3000EFFEA06A2844A062E06A401BE062D4E9AD
:100A40000410A26A4143914203D1A662616A08443C
:100A50006062D8F808104046491BC8F80810002DFD
:100A600005D0E16A002902D1032121700673BDE897
:100A7000F081002DE3D0E16A20690144491EB1FBF9
:100A8000F0F26069824200D90246E169606A06F0CC
:100A9000DBFCC5E7B0050020E68801088B4D00208F
:100AA000E88801086B0500202DE9F0412F4C002556
:100AB0002F4EA169606A884207D32E4825630078CB
:100AC00000F07CFA357300F061FAFFF789FD20B180
:100AD000206B08B3A06A10B10FE0256320E0E16A43
:100AE00020690144491EB1FBF0F26069824200D9DD
:100AF0000246E169606A06F0A7FC00201E4BA26A6C
:100B0000216B0BE0D4F81CC017181CF8077013F801
:100B100000C0674501D0256202E0401C8842F1D345
:100B2000A16A206B0B18A362E16A0A1AE262D4E997
:100B300004714F439F4203D1A562636A1944616205
:100B4000B168091AB16000280DD012B120780528CB
:100B500009D1206A28B100203073BDE8F04100F0CF
:100B600015BA0120F8E7BDE8F0810000B0050020CB
:100B70008B4D0020E7880108FA4500202DE9F0415F
:100B8000344C0025344FA169606A884207D333484A
:100B90002563007800F012FA3D7300F0F7F9FFF7D3
:100BA0001FFD00B92563A26A216B23695018984282
:100BB00006D9BDE8F041FE2229A1002000F07ABF4D
:100BC0000020304EE36906E016F800C002EB000E8C
:100BD000401C03F80EC08842F6D3216BA06A08447B
:100BE000A062E26A521AE26209B392B988B121693D
:100BF0000844401EB0FBF1F66069864200D9064603
:100C00003246E169606A06F039FCA562606A3044E8
:100C10000CE0D4E904125143814208D1E169606AD1
:100C200006F02CFCA5626169606A08446062B968DC
:100C3000206B091AB960002809D0E06A10B1207849
:100C4000052804D13D73BDE8F04100F09FB9BDE82F
:100C5000F0810000B00500208B4D0020E7880108DE
:100C60002E2E5C2E2E5C2E2E5C736F757263655C6F
:100C70007573625C6D73635C757362645F6D7363DF
:100C80002E630000FA45002010B5FFF7FFFC002896
:100C90001FD0FFF7A5FC00281BD00E48002106221C
:100CA000017042700C4A8170137ADB01C3700171CC
:100CB00041718171C1710949082010638A68082A4D
:100CC00003D9A1F11F0290608860BDE81040FFF7D2
:100CD000F7BC10BDFA450020B00500208B4D002068
:100CE00010B5FFF7D3FC00281BD0FFF779FC0028D4
:100CF00017D00C480321002201700B4942700B7A77
:100D0000DB018370C2700420086308498A68042AE2
:100D100003D9A1F11F0290608860BDE81040FFF781
:100D2000CFBC10BDFA450020B00500208B4D00203F
:100D300070B5264C264DB4F81100E17C40BA000491
:100D400040EA0120217D08430021C5E90901E17B3A
:100D50002F290AD004DC28290BD02A2919D104E034
:100D6000A8290DD0AA2914D106E0FFF739FC0028E4
:100D700029D0E08A40BA0CE0FFF732FC002822D0EC
:100D8000B4F81500E17D40BA000440EA0120217E5C
:100D9000084329690D4E4843E862A16801251F36C2
:100DA00069B1814210D0207B000604D50948007843
:100DB00040F0800001E00848007800F0FFF835734B
:100DC00000F0E4F8002070BD012070BD6C4D0020E3
:100DD000B0050020E6880108E788010810B5FFF794
:100DE00055FC00281CD0FFF7FBFB002818D00D4A4B
:100DF0000D489169491E0B0E03700B0C43700B0AD2
:100E00008370C17011690B0E03710B0C43710B0AD7
:100E10008371C17108201063BDE81040FFF750BC1A
:100E200010BD0000B0050020FA45002010B5FFF706
:100E30002DFC002829D0FFF7D3FB002825D013482C
:100E40000021134A0170417081700821C1709169BD
:100E50000B0E03710B0C43710B0A8371C1710221DC
:100E6000017211690B0C43720B0A8372C17209493A
:100E70000C2010638A680C2A03D9A1F11F0290602C
:100E80008860BDE81040FFF71BBC10BDFA4500208C
:100E9000B00500208B4D002010B5FFF7F7FB0028B0
:100EA00035D01B4870211B4A017000214170D46865
:100EB000536833EA040406D006248470282404739B
:100EC0004173D36008E0DBB1134B1B7BE3B1052317
:100ED0008370202303734173C1700171417181716B
:100EE0000A23C371017241728172C1728173C1732D
:100EF0000174417412201063BDE81040FFF7E0BB9D
:100F0000022383703A23E5E781700173E3E710BDA4
:100F1000FA450020B00500208B4D00200449002038
:100F200008600449086004490720087001207047E0
:100F3000780500208B4D0020B0050020FFF7EEBFA4
:100F400010B5FFF7A3FB002817D00C482022002182
:100F5000027041700A4CC177032022632070094857
:100F60000649007840F0800000F052FC0648226BF1
:100F70008168891A81600121017310BDFA45002042
:100F8000B0050020E68801088B4D0020084910B507
:100F90000648086007480D22007840F0800000F005
:100FA00037FC05490520087010BD00005553425319
:100FB0008B4D0020E6880108B005002010B50446DE
:100FC00000F0ECFB200605D504F00F004FF4803153
:100FD000814001E00121A140024802681143016003
:100FE00010BD0000740500200A4810B5817C00F196
:100FF0001F0429B101202073BDE81040FFF7C6BFD0
:10100000C07C054900F00100486006F035FA002078
:10101000F1E700006C4D0020B005002002490020DF
:101020000873FFF7B3BF00008B4D00200F4810B5C9
:10103000816800F11F0469B1007B000604D50C48EB
:10104000007840F0800001E00A480078FFF7B6FF22
:10105000012004E0FFF7C4FA002805D00020207327
:10106000BDE81040FFF792BF10BD00006C4D00209E
:10107000E6880108E78801087047000070B5124B48
:10108000054600F00F005B68104C03EB00139868F6
:101090009B8904EB4000C3F30904944200D9144631
:1010A0000022631C05E000BF30F8046B21F8026BDE
:1010B000521CB2EB530FF7D34FF440512846FCF7C4
:1010C000BFFA204670BD00009C0400200060004074
:1010D000FFF7B0BA2DE9FC414E48A0F11C0501789C
:1010E000A0F1080411F01F0102D001296DD179E0AF
:1010F000494AC77849491378464A494E1C3A062F4F
:10110000D27810D006DC012F09D0022F14D0032F83
:101110007ED141E0072F2AD00F2F79D156E04148E8
:10112000206012205CE0002B72D01AB13E48206093
:101130000A2055E03D48FAE70BB9012A68D002239E
:1011400022B1009673700021827809E000914B7003
:10115000F9E70098037813B1438818440090491CBC
:101160008A42F6D10098017879B3206037E063B302
:10117000072322B100914B700021827809E000968C
:101180007370F9E70098037813B14388184400900E
:10119000491C8A42F6D1E5E7254900918178032967
:1011A00001D0002108E002F0EDF80BE0009B1A7876
:1011B0000AB11A440092491C82788A42F6D10098FA
:1011C000017811B1206000780AE021E01948007828
:1011D00000281BD01848009020600178C1B14088D9
:1011E000019005E001A9684600F02AF800280DD01A
:1011F000A1880198814208D9104980B2A08009785D
:10120000491E084201D1012028710120BDE8FC815E
:101210000020FBE784050020D588010870440020E9
:10122000FF020020888901089B8901089A8901082A
:10123000D6890108D68801089C890108D788010849
:1012400070B5194A194B1B4DD678194A1C78212EB6
:101250001378154A127902D0222E22D116E0A2422A
:1012600001D09A421DD1144A1378144A12780BB94E
:10127000012A16D042B1124A02601046114A128861
:1012800010442860092009E00F4AF5E7A24201D086
:101290009A4206D10D4828600D4800880860012058
:1012A00070BD002070BD00008405002000030020F8
:1012B000020300207C050020D58801086B05002072
:1012C000FF0200200603002070440020648901080A
:1012D0008689010870B51C481B4D0078A5F10805EA
:1012E00010F01F040AD01848A5F11401174B4A78D2
:1012F0000079012C06D0022C24D109E012481638BE
:1013000028601DE0F2B1897888421BD2002015E0E8
:1013100000F08F04200605D504F00F064FF480304E
:10132000B04001E00120A0400AB922070AD18A6832
:10133000024207D0C9680142E8D0012018802B6022
:10134000012070BD002070BD8405002038450020BC
:1013500070B5264A0146A2F11C04107810F01F0354
:101360001046408804D0012B28D0022B26D110E053
:10137000012823D129B100F049FAE08840F00200A9
:1013800005E0002000F042FAE08820F00200E08052
:1013900029E0127902F08F06320605D506F00F0219
:1013A0004FF48035954001E00125B54062782AB1BF
:1013B000320703D0A2682A4200D008B1002070BDD5
:1013C00029B1304600F0EAF9E06828430AE02069D4
:1013D000284208D13046FEF7BDFA3046FFF778FEC6
:1013E000E068A843E060012070BD00008405002093
:1013F0002DE9F84F5D4F00200090387810F01F0F56
:1014000071D1B8784FF000094FF0010B4FF4803ADA
:10141000A7F11C0600287CD0554801783046C078DA
:1014200009B901285FD008B1524C6EE0524C6CE013
:101430006078022805D0042846D0052847D0072820
:1014400061D16179B87881423CD1707020794C4982
:10145000B0700020494A098803E000BF02F80090FC
:10146000401C8842FAD301254FEA06080BFA05F022
:10147000D8F80810084202D02846FEF70EFBD8F82C
:1014800008100AFA05F0084203D045F08000FEF784
:1014900004FB6D1C102DE9D34FF00110C8E90209BF
:1014A0000120C8F81090FEF7A9FAE0794006B8F8D4
:1014B000060002D540F0010001E020F00100A8F88C
:1014C000060020E060881FE0E07800901BE00098B4
:1014D000C8B9A07800F08F05280606D505F00F01E1
:1014E0000AFA01F003E03BE013E00BFA05F0B16803
:1014F00001432046B160FEF739FA2846FEF7D0FADC
:10150000284600F02FF920780444207800288FD155
:1015100022E04D4686F801900124D8464FEA0A0998
:10152000B16808FA04F0084202D02046FEF7B5FA86
:10153000B16809FA04F0084203D044F08000FEF7D5
:10154000ACFA641C102CEBD34FF00110C6E9020575
:1015500000203561FEF752FAB8787178884202D0DF
:101560000020BDE8F88F0120FBE700008405002083
:10157000D5880108FF020020704400208B04002061
:10158000040300202DE9FC5F454E00273D463078DE
:10159000BB4600F01F00B84601287ED1A6F11C0111
:1015A0004878002876D03F48BA4602780846C07886
:1015B0000AB9012871D0894608B13B4C66E03B4C22
:1015C00064E06078022805D004280AD0052819D0E4
:1015D000072859D1617999F80100814254D0608877
:1015E00053E0A7783079E5784FF00008B8424BD146
:1015F000B078A84248D12E484FF0010A10F807B041
:10160000C55541E03079B8423ED1A07800F08F0056
:101610000190000605D5019800F00F014FF48030CD
:1016200001E00199012088400090B078A84217D1CC
:10163000D9F80810009A20461143C9F80810D9F8C3
:101640000C109143C9F80C10FEF790F90198FEF7C1
:1016500027FA019800F086F8009948EA010813E09B
:101660005D4511D1009918EA010F0DD1D9F8081084
:10167000009A9143C9F80810D9F80C109143C9F8A1
:101680000C100198FEF709FA20780444207800280D
:1016900097D15046BDE8FC9FFFE70020FAE7000025
:1016A00084050020D5880108FF0200207044002036
:1016B0008B0400204FF0E0224FF480110020C2F88C
:1016C0008011BFF34F8FBFF36F8F1F4908601F4911
:1016D000096819B14FF400514A0001E000210A469F
:1016E00011431B4A1268002A02D000BF4FF4007257
:1016F00041EA020102D04FF4807201E04FF0000293
:1017000041EA0201134A41F41C411160134B124992
:101710004FF050021860486802604FF090028260FB
:101720004FF0D0020A8048F2FF71C1600C494FF4BB
:1017300048500860A3F104014FF0800008604FF0AA
:10174000140000F0FDB80000445C0040148901085A
:1017500010890108405C00409C040020505C00405F
:10176000005C0040FBF758BF10B5FEF76DF8BDE810
:101770001040FFF7E3BB10B5FEF700FDFEF768F879
:1017800000F0BFF910BD0000002903D1024940F06C
:1017900080000860704700004C5C004041F210017E
:1017A000FBF74EBF082202490020FFF767BC00008C
:1017B0008405002002484FF40071006902F062B90C
:1017C0004C00002000221146802000F021B80000CB
:1017D0000248034902780020FFF750BCD78801086F
:1017E000384500200448016841F0080101600168A3
:1017F00041F0040101607047405C0040024801680C
:1018000021F0080101607047405C00407047000013
:10181000F0B5154F064600F00F037868144600EB4C
:101820000310124A006802EB40020020651C04E02D
:1018300031F802CB42F804CB401CB0EB550FF7D384
:1018400078680B4900EB0310446001EB8300D0F88B
:10185000000CC0F30110012803D030213046FBF703
:10186000EFFE2046F0BD00009C0400200060004018
:10187000005000402DE9F0472D480168DFF8B49092
:1018800021F01F0301F4FE42D9F810502B43D2433C
:10189000C9F810300260DFF8A0A0090448F2800601
:1018A00042D58046D8F8000000043DD500205146BE
:1018B00001EB8002D2F8002C92B2324201D00446F1
:1018C00002E0401C0828F3D30AEB8407D7F8005C39
:1018D00044B9280406D5280504D4D9F80400808921
:1018E000800517D0204665F31F4003F029FE280429
:1018F00007D500BF45EA060040F68F710840C7F8DB
:10190000000C2806CED5354348F60F700540C7F8C1
:10191000005CC7E72806EDD5C5F30E01204661F34C
:101920001F4003F00DFEE5E7BDE8F047FFF742BFBB
:10193000445C00409C0400200050004000207047A0
:10194000002809DB00F01F020121914040098000BE
:1019500000F1E020C0F8001170470000EFF30884A8
:1019600000F00F010D2901D1EFF30984A18B04F1DF
:101970002005890500D52D1DC10600D4483500F08D
:101980007FFAEFF3098000F07BFAEFF3088000F0B4
:1019900077FAEFF3148000F073FA284600F070FA3B
:1019A000606900F06DFAA06900F06AFAE06900F081
:1019B00067FA1248006800F063FA1048001F0068D8
:1019C00000F05EFA0D48001D006800F059FA0B485F
:1019D0001030006800F054FA08480830006800F041
:1019E0004FFA06480C30006800F04AFA432204A17E
:1019F000002000F05FF8FDF763FBFEE72CED00E050
:101A00002E2E5C2E2E5C2E2E5C736F757263655CC1
:101A10006461706C696E6B5C486172644661756C80
:101A2000745F48616E646C65722E630010B5002AA5
:101A300006DA22F00042D21D22F00703102203E052
:101A4000D21C22F003030C2213B19C188C4201D942
:101A5000012010BD024401448360C0E90021C91A7D
:101A6000D018884202D810600246F9E700201060C2
:101A700010BD000010B5044603F05AFB002805D045
:101A80004FF6FF71DFF808C0206800DF10BD0000CE
:101A9000E14B010810B5044603F04AFB002803D0CF
:101AA000DFF808C0206800DF10BD0000314B0108DE
:101AB000704700002DE9F04115460E46002819D167
:101AC000EFF3108472B600231A461946184600F048
